:020000040100F9
:10000000A8AA002155580201C5B6020129580201CB
:100010002958020129580201295802010000000054
:100020000000000000000000000000001D5502015B
:100030002958020100000000C5540201295802019C
:100040009D5502019D5502019D5502019D550201DC
:100050009D5502019D5502019D5502019D550201CC
:100060004DBD02019D5502019D5502019D550201A4
:1000700003BD02019D5502019D5502019D550201DE
:100080009D55020137BD02019D5502019D5502019A
:100090009D5502019D5502019D5502019D5502018C
:1000A0009D5502019D5502019D5502019D5502017C
:0800B0009D5502019D5502015E
:1000B80053B94AB9002908BF00281CBF4FF0FF31C7
:1000C8004FF0FF3000F00CB8ADF1080C6DE904CE2C
:1000D8001FF0A4FFDDF804E0DDE9022304B0704757
:1000E800704700BF2DE9F00791E8F807B2E8021061
:1000F8005B1854EB0C04B2E802104D4156EB0C06A9
:10010800B2E802104F4158EB0C08B2E8021059EB64
:1001180001095AEB0C0A80E8F80780410130BDE874
:10012800F00770472DE9F00791E8F807B2E80210E8
:100138005B1A74EB0C04B2E802108D4176EB0C06E6
:10014800B2E802108F4178EB0C08B2E8021079EBA4
:1001580001097AEB0C0A80E8F80780414042BDE8C3
:10016800F00770472DE9F007524290E87800B1E8AF
:1001780080071740DB1918EA020854EB080419EA4B
:10018800020955EB09051AEA020A56EB0A0678C075
:1001980090E87800B1E8800717407B4118EA020828
:1001A80054EB080419EA020955EB09051AEA020A90
:1001B80056EB0A0678C080410130BDE8F007704769
:1001C8002DE9F007524290E87800B1E8800717401F
:1001D800DB1B18EA020874EB080419EA020975EB3C
:1001E80009051AEA020A76EB0A0678C090E8780050
:1001F800B1E880071740BB4118EA020874EB08040D
:1002080019EA020975EB09051AEA020A76EB0A06E9
:1002180078C080414042BDE8F00770472DE9F00101
:1002280052424FF0040890E8300091E8C000A31B48
:100238001340E41AF618EB1B1340ED1AFF1830C0F0
:10024800C0C1B8F10108EED1BDE8F001704700BFA8
:1002580000B592E8DC072DE9DC07B1E8805702B465
:10026800A7FB02510A95A8FB020B09180020E7FB1F
:1002780003105BEB000B00204041E9FB02B00B913F
:10028800A8FB0351401800214941EAFB02011BEB7E
:10029800050B0025E7FB04B568410025E7FB0605CB
:1002A800694100256D41E8FB0615CDF830B0A9FB82
:1002B80003B689190026EAFB031675410026764124
:1002C800ECFB035610EB0B005FF0000BE8FB040B94
:1002D80051EB0B015FF0000BE9FB041B55EB0B0521
:1002E8005FF0000BEAFB045B56EB0B065FF0000BBC
:1002F8005BEB0B0BECFB046B0D90ACFB0230059C2D
:100308002D180020EEFB025046410020E9FB046056
:100318005BEB000B00204041EAFB04B05B180021B6
:10032800E7FB04314D410021E8FB0451069C4E4196
:100338000021E8FB04615BEB010B0021E9FB04B140
:10034800484100214941EAFB04010E93A7FB04320E
:10035800079CB6180022E7FB04625BEB020B002245
:10036800E8FB04B250410022E9FB0402514100229B
:100378005241EAFB0412049CED180023E9FB0453E4
:100388005E410023EAFB0463089C5BEB030B00233C
:10039800E7FB04B358410023E8FB04035941002359
:1003A800E9FB04135A4100235B41EAFB04230F9540
:1003B8005DF8049B99E80006DDF80080A9FB085465
:1003C8001BEB040B0024EAFB08B4DDF81080604145
:1003D8000024ECFB080461410024EEFB0814624190
:1003E8000024E9FB0824634100246441EAFB083443
:1003F800DDF8048076190025EEFB08655BEB050B3C
:100408000025E9FB08B568410025EAFB0805DDF889
:10041800148069410025ECFB08156A410025EEFBB4
:1004280008256B410025E9FB08356C4100256D4125
:10043800EAFB08450F96DDF80880AEFB08768019C0
:100448000026E9FB080671410026EAFB0816DDF8DC
:10045800188072410026ECFB082673410026EEFB4B
:10046800083674410026E9FB0846754100267641A6
:10047800EAFB0856DDF80C801BEB070B0027ECFBAA
:1004880008B778410027EEFB080779410027E9FB08
:1004980008177A410027EAFB0827DDF81C807B4112
:1004A8000027ECFB08377C410027EEFB08477D411D
:1004B8000027E9FB08577E4100277F41EAFB0867D0
:1004C80008B000BD2DE9F14F87B0FFF7C1FEDDF898
:1004D8001C8008F1200888E8FF00FFBC87E87F0837
:1004E800BDE8F08F00B591E84C57A2FB024101949A
:1004F800A2FB034524190020E2FB06506D417F4111
:10050800641802940021E2FB0801A3FB034B654138
:1005180003950024E3FB060440417F4109190024A8
:100528006441E2FB0914FF0750EB0B00049000251F
:10053800E2FB0A455FF0000BE3FB081B49415FEA59
:10054800370714EB0B045FF0000BE3FB094B55EB8B
:100558000B055FF0000B5BEB0B0BE2FB0C5BFF0F7B
:100568000020E2FB0EB000225141E6FB0612059185
:100578000021E6FB084164417F416D180021E3FB3F
:100588000A515BEB010B0021E3FB0CB14841002150
:100598004941E3FB0E010023E6FB09531BEB030B68
:1005A8000023E6FB0AB358410023E6FB0C0359413C
:1005B80000235B41E6FB0E13FF07544106946D418F
:1005C8007F41A8FB0826554107950022E8FB09B2A0
:1005D8005BEB0B0B7F4180180022E8FB0A025141BC
:1005E8000022E8FB0C125A4100235B41E8FB0E2372
:1005F8000024E9FB0E340025E9FB0A1552190025F1
:10060800E9FB0C256B410025EAFB0C356C41002504
:100618006D41EAFB0E45FF075BEB060B0026ECFB82
:100628000E564041494152415B4164416D4176411A
:10063800AEFB0EE848F100087F00A9FB0979784174
:1006480051EB0901AAFB0A7A7A4153EB0A03ACFB86
:100658000C7C7C4155EB0C0556EB0E0648F1000767
:1006680000BD00BF2DE9F14F87B0FFF73BFFDDF874
:100678001C8008F1200888E8FF00FFBC87E87F0895
:10068800BDE8F08F30B44FF0000310F8014B11F8BB
:10069800015B013A84EA050443EA0403F5D1A3F1B6
:1006A80001034FEAD37030BC704700BF4FF000031E
:1006B80010F8012B013943EA0203F9D1A3F1010330
:1006C8004FEAD370704700BF30B411F8014B12F8ED
:1006D800015B6C4000F8014B013BF6D130BC704720
:1006E8002DE9F00791E8F807B2E802105B1854EB1F
:1006F8000C04B2E802104D4156EB0C06B2E80210A9
:100708004F4158EB0C08B2E8021059EB01095AEBBB
:100718000C0A8941B3F1FF3374F1FF3475F1FF35E9
:1007280076F1000677F1000778F1000879F1010900
:100738007AF1FF3A51F100015B184C414D4156F1F5
:10074800000657F1000758F1000859EBD1795AEB28
:10075800010A80E8F807BDE8F00770472DE9F007BF
:1007680091E8F807B2E802105B1A74EB0C04B2E8DF
:1007780002108D4176EB0C06B2E802108F4178EB3F
:100788000C08B2E8021079EB01097AEB0C0A8941EE
:100798005B184C414D4156F1000657F1000758F1DE
:1007A800000859EBD1795AEB010A80E8F807BDE84F
:1007B800F007704718EB040859EB05095AEB060ACD
:1007C8005BEB070B5FF0000C4CF1000C18EB050815
:1007D80059EB06095AEB070A5BEB070B50EB0C00C9
:1007E8005FF0000C51EB0C0152EB0C0263414CF131
:1007F800000CB8EB070879F100097AF1000A7BEBE5
:10080800040BA841B141A241B3416CF1000CBBEB10
:10081800050BB041B941AA41BB416CF1000C4CF049
:1008280001068CF0020718EB060859EB6C095AEB25
:100838006C0A7BEB6C0B70EB6C0471EB6C0572EB68
:10084800670653EB6C076CEB6C0C18EB0C0059EB60
:100858000C015AEB0C025BF1000354F1000455F152
:10086800000556EBDC7657EB0C0770472DE9F14F86
:1008780087B0FFF7EDFCDDF81080DDF81490DDF8A7
:1008880018A0FFF797FFBDE8000FFFF793FF03B02D
:100898005DF8048B88E8FF00BDE8F08F2DE9F14F83
:1008A80087B0FFF71FFEDDF81080DDF81490DDF843
:1008B80018A0FFF77FFFBDE8000FFFF77BFF03B02D
:1008C8005DF8048B88E8FF00BDE8F08F2DE9F0475C
:1008D800904D86B00023C41DEA7D07460E4624F0DD
:1008E8000704CDE903332B788DF812206A7F8DF841
:1008F8000D308DF814206B78AA7F8DF80E308DF8A6
:100908001520AB78EA7F8DF80F308DF81620EB783C
:1009180095F820208DF810308DF817202B7995F850
:1009280024208DF811300AB18DF81330002E03A958
:100938004FF000080CBF2046002000F03FFE95F85D
:1009480000906B780444C24699445FFA89F95FFACB
:1009580088F34B45C0F0C5800334002E4946524603
:1009680024F0030414BF0020204601F093F9A9786D
:10097800044471B1E01CEB78EA7D002E20F00304FA
:100988001A4414BF002020466B8AD2B201F024FB1F
:10099800044495F825308BB1297C79B195F8263037
:1009A800E01C002B20F0030414BFFF222522002E98
:1009B8000CBF2046002001F0A5FC0444297D81B12C
:1009C800AB7823B995F825305BB12B7C4BB1E01D92
:1009D800002E20F0070414BF0020204606F0EEFF8A
:1009E80004444D4B1B685BB1297949B1E01C002ECA
:1009F8006A7D20F0030414BF002020469847044471
:100A0800464B1B6853B1A97D41B1E01C002E20F074
:100A1800030414BF0020204698470444404BD3F8F1
:100A28000080B8F1000F0ED0E97D61B1E01C002E06
:100A3800AB7E20F003042A7E009314BF00202046DA
:100A48006B7EC047044495F8243063B1297951B1CD
:100A5800E01C002E2A7F20F0030414BF002020464B
:100A680001F0AEFC044495F82130002B45D0E01D80
:100A780020F00704002E3ED1204619F0A1FD2046A3
:100A88004FF4887295F8211021F09CFA044495F8E7
:100A98002210002937D0E01D002E4FF0FF0220F071
:100AA800070814BF0020404621F08CFA08EB000428
:100AB8003346A97F0334012024F0070444F00404DA
:100AC800224601F0CBFC04443EB9404619F08EFDA5
:100AD800FB2195F8220019F08FFDE01B06B0BDE858
:100AE800F0872B7A08F10108EA79A979687921F069
:100AF80099F982442BE70020C2E7002EC7D130467F
:100B080019F05EFDC3E7002EE7D1304619F06EFDFF
:100B1800E3E700BF48090021440000214C00002100
:100B2800480000218FB572B61A4B9D6AE5B9BFF32C
:100B38004F8F1949194BCA6802F4E0621343CB601E
:100B4800BFF34F8F00BFFDE7B4FBF6F4D3B2013219
:100B5800002CF9D103F110026A4402F80C4C0A2463
:100B680033B901A8A847E2E7044600220A26EDE7C0
:100B7800013BDBB203F110020DEB0206C2B2B2FB7D
:100B8800F4F704FB17223032B0FBF4F006F80C2C13
:100B9800E6E700BF4809002100ED00E00400FA057F
:100BA8001FB51A4C02A8237A8DF80930E3798DF81D
:100BB8000830A379ADF80C306379ADF80A3017F036
:100BC80031FD18B1AD210320FFF7ACFFE36801A8A0
:100BD800019317F03DFD08B1B121F4E70123684600
:100BE8008DF8003022F0F1FE08B1B521EBE7A07EC8
:100BF80017F040FD08B1BE21E5E7607E17F034FD2F
:100C080008B1BF21DFE704B010BD00BF48090021CB
:100C180038B50546002840D01DF01EFD10B94FF02C
:100C2800FF3038BD1DF0C0F9B0F5FA7FF7D81C4C7D
:100C38001C48A56200F00EFB1B4902201B4A00233A
:100C48001B4D44F6011C84F82C3084F82D3084F8B0
:100C5800253084F8263084F824302362C4E9001251
:100C680041F64C52C4E902024FF40272C4E904523C
:100C78000122C4E906C2EFF3108472B601F08EFCBB
:100C88000C4801F051FD18B1CB210320FFF74AFFB2
:100C9800002CC6D162B62046C3E76FF01500C0E746
:100CA80048090021A90B000101010100001B1B03D9
:100CB80003001F00DD0F000110B5002840F08880F8
:100CC800464C94F82C30002B7FD181B1002A6AD091
:100CD80001390F297CD8DFE801F0081518282B52B4
:100CE8005A73315D606E373D494E13782370012188
:100CF8000020FFF7EBFDB0F5803F6CDA012384F8A4
:100D08002D3010BD13786370F1E79378002B4AD02B
:100D1800D378002B47D013781A2B44D953781A2B41
:100D280041D91068C4F80500E1E71368E360DEE71D
:100D38001378E278934236D3A370D8E71378A27871
:100D4800934230D8E370D2E71378A27893422AD836
:100D5800E375CCE7137833B35378013BDBB2F82B58
:100D680021D8136823831B0CA376C0E71078E0769C
:100D780017F0F0FDBBE71378ABB12377B7E713782B
:100D880094F825200AB1012B0DD92374AFE71388F5
:100D98006382ACE713782371A9E794F824101378D9
:100DA80021B9012B04D86FF01500AAE7002BFAD05F
:100DB800137863759BE71378082BF4D8A37596E727
:100DC8001388FF2BEFD8237591E74FF0FF3098E792
:100DD8006FF02C0095E76FF00B0092E748090021AF
:100DE80070B50D460646F0B1E9B111F007041AD105
:100DF80000F03AF9D0B130460E4E1DF071FC214694
:100E080086F82E002846FFF761FD17F0C7FD96F813
:100E18002E00214617F0E4FCFFF7C2FE012320460E
:100E280086F82C3070BD6FF01500FBE74FF0FF30EF
:100E3800F8E700BF4809002110B5094C94F82C3098
:100E48002BB117F0E9FC94F82E001DF065FC01F0B9
:100E5800B9FB01F07FFC002084F82C0010BD00BF16
:100E68004809002150B1074B03F1140253F8041B41
:100E7800934240F8041BF9D1002070476FF0150029
:100E8800704700BF12E00201074B93F82D2010B500
:100E980032B993F82C401CB917F050FC204610BD0D
:100EA8004FF0FF30FBE700BF48090021074B93F8DC
:100EB8002D2010B532B993F82C401CB917F052FC0C
:100EC800204610BD4FF0FF30FBE700BF4809002166
:100ED80038B5094D95F82D305BB995F82C4044B9D3
:100EE80017F062FC0123204685F8253085F8263066
:100EF80038BD4FF0FF30FBE748090021074B93F856
:100F08002D2010B532B993F82C401CB917F0C6FB48
:100F1800204610BD4FF0FF30FBE700BF4809002115
:100F2800074B93F82D2010B532B993F82C401CB913
:100F380017F0A6FB204610BD4FF0FF30FBE700BFBF
:100F480048090021074B93F82D2010B532B993F8C2
:100F58002C401CB922F083FD204610BD4FF0FF3015
:100F6800FBE700BF48090021074B93F82D2010B577
:100F780032B993F82C401CB922F074FD204610BDFC
:100F88004FF0FF30FBE700BF48090021074B93F8FB
:100F98002D2010B532B993F82C401CB922F065FD0C
:100FA800204610BD4FF0FF30FBE700BF4809002185
:100FB800074B93F82D2010B532B993F82C401CB983
:100FC80022F055FD204610BD4FF0FF30FBE700BF73
:100FD8004809002137B5114C256801A801F070FBBC
:100FE800034618B1052816D035210BE0019A022ACC
:100FF80005D0032AF1D1226852B92D2102E02268D6
:101008001AB928210420FFF78DFD2360A847E4E7DB
:1010180001202360FAE703B030BD00BF7809002142
:1010280007C8024B83E80700002070477C090021AD
:10103800054B9B6810B51BB992210420FFF772FD80
:10104800BDE81040184700BF78090021054BDB6850
:1010580010B51BB998210420FFF764FDBDE81040C6
:10106800184700BF78090021044B586828B19868D0
:1010780018B1D868003818BF0120704778090021D6
:1010880038B505460C4600F09DF870B13E2D0CD1E0
:10109800122C05D1054B1A78022A01D0587820B1B4
:1010A8002046BDE8384000F0C5B838BD88090021A1
:1010B800014B5870704700BF88090021F7B5354DBE
:1010C800031D04462F4647F8043F95F80C3173B1C9
:1010D80095F80E2105F20D112046042602321DF066
:1010E80073FC002385F80C31304603B0F0BD384658
:1010F80005F004F90228064604D1274920461FF0C6
:10110800FAF8F1E704283DD12B790A2B0AD0262BCF
:101118001BD0394620461FF09BF9B0F5817F28D3B4
:10112800C7210FE005213E20FFF7AAFF0028F0D1D4
:101138002B8901A96846ADF800301FF04CFE002845
:10114800C3D0A8210820FFF7EDFC1A213E20FFF7A5
:1011580097FF0028DDD16B89694601A8ADF80430F6
:1011680011238DF806301FF06EFE0028ADD0BA218D
:10117800E8E70028A9D0A1782078FFF781FF0028A8
:10118800B2D1A2E70828AFD1034920461FF0EBF8F7
:10119800AAE700BF880900218C090021074B4FF0FE
:1011A800FF3141F6FF72C3E9001205490022C1E987
:1011B80000221F21C3E90212704700BF000000216E
:1011C800980B00213F280CD801380B4BC0F3421272
:1011D80000F01F0053F8223023FA00F000F001005D
:1011E8007047FF2806D04038044BC0F3421200F085
:1011F8001F00EFE70120704700000021980B002135
:10120800074B0146006849681A4603C240F48C221D
:101218001A6041F0107242F4FF625A60704700BFD2
:10122800000000210246024B0068516803C3704762
:10123800080000210138064BC0F3421200F01F00DD
:1012480003EB82039B6823FA00F000F0010070476B
:1012580000000021014B1860704700BFA00B00215F
:1012680010B5FFF79BFF0020FFF722FF21F070FD6C
:10127800034B04461B6803B19847204610BD00BFC6
:10128800A00B002138B5274B0446D3F8A022D3F889
:10129800A412013106D1D3F8A8324FF6FF719BB2E0
:1012A8008B423DD0D3073BD51E4DD5F8A422D5F8A7
:1012B800A832C4F80120A4F80530C3F3072363F06B
:1012C8003F03A371D5F89032013323D0D5F8943277
:1012D80001331FD0D5F8983201331BD0D5F89C3292
:1012E800013317D0002001F033FB98B9D5F89002EC
:1012F800D5F89412D5F89822D5F89C32C4F807008E
:10130800C4F80B10C4F80F20C4F8133001230020D0
:10131800237038BD10220021E01D1DF0CBFBF5E73E
:101328000023F4E70000FF0170B5274D10220021CB
:101338000446D5F8A0621DF0BDFB10220021A018BC
:101348001DF0B8FBD5F8803201330BD1D5F88432C3
:10135800013307D1D5F88832013303D1D5F88C325F
:1013680001330BD0D5F88002D5F88412D5F888223D
:10137800D5F88C3220616161A261E361002001F03F
:10138800E7FA08B9F3071CD40F4BD3F890220132BF
:101398000BD1D3F89422013207D1D3F89822013225
:1013A80003D1D3F89C2201320BD0D3F89002D3F8A2
:1013B8009412D3F89822D3F89C3220606160A2601E
:1013C800E360002070BD00BF0000FF0180B588B059
:1013D80000AF786039603B681B88BB83BB8BC3F365
:1013E8000E037B837B68DB7C18461FF036FD0346C3
:1013F8003B837B681A883B8B1344FB827B681833DA
:101408003B617B8B3A691344FB603B8BFA6812881B
:1014180092B21A44FB8A13445A1EFB8A92FBF3F3D6
:101428009BB2FA8A02FB03F37B817A8B7B89134494
:10143800FB837B685B88FA8B9A420AD2B7F91C2037
:101448000A4B13401AB2B7F91E3013431BB2FB8381
:1014580005E0BB8BDB439AB2044B1340FB833B682C
:10146800FA8B1A8000BF2037BD4680BD0080FFFF81
:1014780090B589B000AFB9607B600346FB73134633
:10148800BB73BB689B79082B03D9DB211720FFF7B7
:1014980049FBFB7B484A52F82330002B03D0DC2160
:1014A8001720FFF73FFBBB68DB79002B7FD07B68F9
:1014B8001C68BB68DB79184620F0F9FA0346234418
:1014C800BB61BB689B79022B38BF0223DBB21A468B
:1014D800BB6913445A1EBB689B79022B38BF022391
:1014E800DBB25B421340BB61BB689B881A46BB6892
:1014F8009B7913445A1EBB689B795B4213407B61FE
:101508007B694FF6FE72934203D9E7211720FFF754
:1015180009FB97F8303083F00103DBB2002B3BD096
:10152800BB68DB79184620F0C2FA03465B42BA6909
:1015380013443B61FB7B20493A6941F823207B69CE
:101548009AB23B691A80BB68DA793B699A703B6941
:101558000122DA703B69BA7B1A71BB681B681B0CE5
:101568009AB23B69DA80BB681B689AB23B691A81F8
:101578000023FB610AE03A69FB6904335B0013440A
:101588004FF6F0725A80FB690133FB61BB68DB7967
:101598001A46FB699342EED3BB68DB791A467B692E
:1015A80002FB03F3BA691A447B681A6000E000BFC3
:1015B8002437BD4690BD00BFA40B002180B5AAB05A
:1015C80002AF786039603B689B781A463B685B7865
:1015D8001344FF2B04D94FF482711720FFF7A2FAA6
:1015E8003B681A783B685B789A4204D94FF4847157
:1015F8001720FFF797FA7B68C7F898307B68002BAD
:101608000CBF0123002387F89F307B6803F0070392
:10161800002B04D040F219111720FFF783FA00239A
:1016280087F89E302C220021CA481DF043FA3B68F7
:10163800597807F18C0300221A605A609A60C64BE9
:10164800C7F88C304FF46273A7F89030082387F8F6
:1016580092300B4687F8933007F1980097F89E2050
:1016680007F18C0197F89F30009303460020FFF79D
:10167800FFFE3B685A7897F89E30134487F89E30EF
:101688003B68997807F18C0300221A605A609A60C7
:10169800B24BC7F88C304FF48363A7F89030082317
:1016A80087F892300B4687F8933007F1980097F83F
:1016B8009E2007F18C0197F89F3000930346012084
:1016C800FFF7D6FE3B689A7897F89E30134487F860
:1016D8009E303B68D97807F18C0300221A605A6063
:1016E8009A609F4BC7F88C304FF4B073A7F89030CE
:1016F800082387F892300B4687F8933007F1980251
:1017080007F18C0197F89F300093134600220220BE
:10171800FFF7AEFE3B68197907F18C0300221A60C7
:101728005A609A608F4BC7F88C309023A7F8903096
:10173800082387F892300B4687F8933007F1980210
:1017480007F18C0197F89F3000931346002203207D
:10175800FFF78EFE3B68597907F18C0300221A6067
:101768005A609A60804BC7F88C30A823A7F890304D
:10177800082387F892300B4687F8933007F19802D0
:1017880007F18C0197F89F3000931346002204203C
:10179800FFF76EFE3B68997907F18C0300221A6007
:1017A8005A609A60714BC7F88C30082387F89230DA
:1017B8000B4687F893303B689B79002B04D017F0D1
:1017C800BDF80346A7F8903007F1980207F18C019D
:1017D80097F89F300093134600220520FFF748FE34
:1017E8003B68D97907F18C0300221A605A609A6025
:1017F8005F4BC7F88C308023A7F89030082387F810
:1018080092300B4687F8933007F1980207F18C0164
:1018180097F89F300093134600220620FFF728FE12
:101828003B68197A07F18C0300221A605A609A60A3
:10183800504BC7F88C307023A7F89030082387F8EE
:1018480092300B4687F8933007F1980207F18C0124
:1018580097F89F300093134600220720FFF708FEF1
:101868003B68597A07F18C0300221A605A609A6023
:10187800414BC7F88C304FF4B073A7F89030082369
:1018880087F892300B4687F8933007F1980097F85D
:101898009E2007F18C0197F89F300093034608209B
:1018A800FFF7E6FD3B685A7A97F89E30134487F8AD
:1018B8009E303B68997A07F18C0300221A605A60BF
:1018C8009A602E4BC7F88C30E823A7F8903008238D
:1018D80087F892300B4687F8933007F1980207F1A2
:1018E8008C0197F89F300093134600220920FFF7D8
:1018F800BFFD3B68D97A07F18C0300221A605A6051
:101908009A601F4BC7F88C309823A7F890300823AB
:1019180087F892300B4687F8933007F1980097F8CC
:101928009E2007F18C0197F89F30009303460A2008
:10193800FFF79EFD3B68DA7A97F89E30134487F8E4
:101948009E30D7F898207B68D31A1846A037BD4632
:1019580080BD00BFA40B00213D66010179E90001AB
:1019680031A700019D3C020169890101573D02012F
:10197800673D0201556D0101D96C0101217001011A
:101988005D70010180B485B000AF0346FB71FB793F
:10199800074A52F82330FB60FB68002B01D1002373
:1019A80001E0FB689B7818461437BD4680BC704739
:1019B800A40B002180B586B000AF78600B46FB70A1
:1019C8007B684FF6FF721A80FB78224A52F8233060
:1019D8007B617B69002B01D1002336E07B699B7812
:1019E8003B617B691B793A69B3FBF2F2396901FB08
:1019F80002F29B1AFB73FB7B1A464FF6F07178696B
:101A08001FF0FCFF0346BB73BB7BFF2B01D10023F8
:101A18001BE07B691B799AB2FB7B3969C91ABB7BCE
:101A28000B443969B3FBF1F1386900FB01F15B1A2A
:101A38009BB213449AB27B681A807B681B88BA7B76
:101A48001946786920F058F8034618461837BD46F5
:101A580080BD00BFA40B002180B584B000AF034651
:101A68000A46FB8013467B717B79264A52F823305D
:101A7800FB60FB68002B01D100233EE0FB88B3F537
:101A8800706F04D340F225211720FFF74BF8FB882D
:101A98001946F8681FF0DBFF0346FB72FB7AFF2B41
:101AA80006D0FB7A1946F86820F00EF8034624E0C1
:101AB800FB88FA68927893FBF2F101FB02F29B1A19
:101AC800BB72BB7A1A464FF6F071F8681FF096FFA2
:101AD8000346FB72FB7AFF2B01D100230DE0FA7A53
:101AE800BB7A9A4202D0FB680022DA70FA7AFB8845
:101AF8001946F86820F000F8034618461037BD4626
:101B080080BD00BFA40B002180B584B000AF0346A0
:101B18000A46FB8013467B717B790D4A52F82330C5
:101B2800FB60FB881946F8681FF091FF0346FB72BB
:101B3800FB7AFF2B01D1002305E0FB7A1946F868F0
:101B48001FF0C2FF034618461037BD4680BD00BFD0
:101B5800A40B002180B586B000AF03460A46FB807F
:101B680013467B717B79174A52F823307B61FB88D7
:101B7800194678691FF06BFF0346FB74FB7CFF2B4B
:101B880002D143F2020319E07B69DB881B047A69FE
:101B980012891343FB60FB7C194678691FF094FF98
:101BA8000146FA88FB6810469847FB7C7A6904333B
:101BB8005B0013444FF6F0725A800023184618371A
:101BC800BD4680BDA40B002180B584B000AF78600D
:101BD8007B689B791A461C4B53F82230FB60FB68E4
:101BE800002B26D105232BE07B68DB79FB727B6811
:101BF800DB790133DAB27B68DA71FB7AFA6804338D
:101C08005B0013445B884FF6F072934211D0FB7A65
:101C1800FA6804335B0013445A887B689A80FB7A1D
:101C28001946F8681FF050FF02467B681A600023C7
:101C380006E07B68DA79FB689B789A42D4D305235F
:101C480018461037BD4680BDA40B002180B483B070
:101C580000AF0023FB710023FB710DE00C4B1B68E8
:101C68005A68FB799B0013441B68002B01D00023A2
:101C780009E0FB790133FB71054B1B681B7AFA7984
:101C88009A42EBD3012318460C37BD4680BC7047F7
:101C9800D00B002180B586B000AFF8600B467A60A3
:101CA800FB7200237B61FB68002B0CBF0123002320
:101CB800FB74FB6803F00303002B03D08621182074
:101CC800FEF730FFFB7A002B36D0796800201FF032
:101CD800C5FD78617B690C337B61FB7A9B007A696F
:101CE80013447B61FB7C83F00103DBB2002B23D020
:101CF800144AFB681360134B1B68FA7A1A72114B6B
:101D08001B68FA680C325A600E4B1B685968FB7ADC
:101D18009A000C4B1B680A441A600A4B1B685868E7
:101D2800FB7A9B001A4600211CF0C4FE054B1B6879
:101D3800796818461FF092FD7B6918461837BD462A
:101D480080BD00BFD00B002190B589B002AF04461A
:101D5800084611461A462346FB800346BB800B46BD
:101D68007B8013463B80344B1B68002B03D1A52195
:101D78001820FEF7D7FE304B1B681B7A9BB2FA88F7
:101D88009A4208D22C4B1B685A68FB889B00134464
:101D98001B68002B02D043F2020348E03A88BB8854
:101DA800114618461FF0FCFF0346FB823A8D7B88DC
:101DB8001146184620F00CF80346BB82FB8ABA8A03
:101DC8001146184620F01CF803467B821A4B1B6804
:101DD8001B687A8A114618461FF095FDF860FB6863
:101DE800002B01D1042322E0BA8A7B8A1946F868BD
:101DF8001FF0AAFFF8681FF0BAFF7A88B98A3B8DEE
:101E0800009309231FF0BAFEF8681FF0BBFFBA88D9
:101E1800F98A3B8800930A231FF03AFF064B1B6898
:101E28005A68FB889B001344FA681A600023184616
:101E38001C37BD4690BD00BFD00B002180B584B0D3
:101E480000AF0346FB80224B1B68002B03D1C62141
:101E58001820FEF767FE1E4B1B681B7A9BB2FA8898
:101E68009A4208D21A4B1B685A68FB889B00134495
:101E78001B68002B02D143F2020324E0144B1B68B9
:101E88005A68FB889B0013441B68FB60104B1B6857
:101E98005A68FB889B00134400221A600C4B1B688D
:101EA8001868FB685B881A46F9681FF08EFDFFF713
:101EB800CDFE0346002B05D0054B1B681B68184652
:101EC8001FF001FD002318461037BD4680BD00BF36
:101ED800D00B002180B582B000AF0C4B1B68002BE3
:101EE80010D00023FB7107E0FB799BB21846FFF77F
:101EF800A5FFFB790133FB71044B1B681B7AFA7948
:101F08009A42F1D300BF0837BD4680BDD00B0021EF
:101F180080B584B000AF0346FB800023FB60144B00
:101F28001B68002B03D1EC211820FEF7FBFD104B9A
:101F38001B681B7A9BB2FA889A4213D20C4B1B6817
:101F48005A68FB889B0013441B68002B0AD0084B77
:101F58001B685A68FB889B0013441B6818461FF0CF
:101F680006FFF860FB6818461037BD4680BD00BF05
:101F7800D00B002180B584B000AF0346FB8000235E
:101F8800FB60144B1B68002B03D1FA211820FEF7C5
:101F9800C9FD104B1B681B7A9BB2FA889A4213D270
:101FA8000C4B1B685A68FB889B0013441B68002B6A
:101FB8000AD0084B1B685A68FB889B0013441B68AF
:101FC80018461FF0DFFEF860FB6818461037BD465C
:101FD80080BD00BFD00B002180B586B000AF78600F
:101FE800084611461A460346FB700B46BB7013465B
:101FF8003B807B68002B0CBF012300233B7400232C
:102008007B61FA78BB781344DAB23F4B1A707B686D
:1020180003F00303002B03D04E210920FEF782FDB5
:102028003B881F2B03D83B889B007B821CE03B88A6
:10203800FF2B0FD93B8803F1FF023B885B009A42D4
:1020480003DA3B88FF339BB202E03B885B009BB21C
:102058007B8209E03B885B007C2B03DD3B885B00CF
:102068009BB200E07C237B827B8A03339BB223F004
:102078000303FB813B7C83F00103DBB2002B05D01B
:10208800224A7B681360224AFB8913801E4B1B7807
:102098001A4613469B001344DB001A467B69134417
:1020A8007B6100237B7422E03B7C83F00103DBB27D
:1020B800002B15D0154B19687A7C13469B001344E6
:1020C800DB000B4401221A70104B19687A7C134606
:1020D8009B001344DB000B4479687A690A445A6010
:1020E800FB897A6913447B617B7C01337B74064BE3
:1020F8001B787A7C9A42D7D37B69073323F007038E
:1021080018461837BD4680BDD40B0021D80B0021D6
:10211800DC0B002180B588B000AF78600B46FB70FF
:102128007B685B687B61FB78002B30D07B68012281
:102138005A70404B1B8818461FF0A5FF0346FB81C9
:102148000023FB611FE07B68FA690C32002123F849
:1021580012107B68FA691032F98923F81210FB898A
:10216800FA6902FB03F37A691A447968FB699B00F0
:102178000B445A607A68FB691344143300221A70BE
:10218800FB690133FB61FB69032BDCD94DE07B68FC
:1021980000225A700023BB611AE07B68BA690C32CE
:1021A800002123F812107B68BA691032002123F845
:1021B80012107A68BB699B00134400225A607A683F
:1021C800BB691344143300221A70BB690133BB6125
:1021D800BB69032BE1D9174B1B8818461FF060FF1A
:1021E80003467B82134B1B8818461FF06CFF03467F
:1021F8003B827B687A695A607B683A8A1A843B8A90
:102208007A691A447B689A607B687A8A5A847B6800
:102218007A69DA607B683A8A9A843B8A7A691A44CE
:102228007B681A617B687A8ADA8400BF2037BD46EA
:1022380080BD00BFDC0B002180B584B000AF002357
:10224800FB600023FB7217E01D4B1968FA7A1346EE
:102258009B001344DB000B441B78002B09D0184B60
:102268001968FA7A13469B001344DB000B44FB60A1
:1022780007E0FB7A0133FB72124B1B78FA7A9A4219
:10228800E2D3FB68002B03D1A9210920FEF74AFC01
:10229800FB68002B0ED0FB6802337B6000BF7B68B5
:1022A80000221A7000BF0121F868FFF733FFFB68AE
:1022B80000221A70FB6818461037BD4680BD00BF63
:1022C800D80B0021D40B002180B582B000AF0C4B95
:1022D8001B8818461FF0D7FE0346FB80084B1B8857
:1022E80018461FF0F0FE0346BB80FA88BB8893426D
:1022F80038BF13469BB218460837BD4680BD00BF9D
:10230800DC0B002180B586B002AF78600B46FB700D
:102318001346BB702E23FB73BB789BB2FA7892B23C
:10232800F97B18461FF08CFC0346BB817B68002BA9
:1023380013D0BB789AB2FB789BB2F87BB98900932B
:10234800034678681FF034FC064A7B681360064A27
:10235800FB781370054ABB781370BB891846103791
:10236800BD4680BDE00B0021E40B0021E50B0021F8
:1023780080B500AF054B1B68054A1178054A1278ED
:102388001846FFF7BFFF00BF80BD00BFE00B00216C
:10239800E40B0021E50B002180B400AF024B1B6861
:1023A8001846BD4680BC7047E00B002180B400AFE2
:1023B800024B1B781846BD4680BC7047E50B0021D0
:1023C80080B586B002AF78600B46FB701346BB70D1
:1023D800BB789BB21A460521F7201FF0A1FC0346E3
:1023E80003339BB223F00303BB817B68002B2BD004
:1023F8007B6803F00303002B03D095211920FEF717
:1024080091FB154A7B681360134ABB8993800023AC
:10241800FB8114E0104B1B68FA890F49898801FB7E
:1024280002F21344BB60BB789BB2B98900930523C1
:10243800F722B8681FF046FCFB890133FB81FB7863
:102448009BB2FA899A42E5D3FB78BA8902FB03F377
:1024580018461037BD4680BD000C002180B584B0F9
:1024680000AF3A601A460346FB710B46BB71134630
:102478007B713B6803F00703002B04D03B6803F033
:102488000303002B03D01F214C20FEF74BFBFB79E5
:102498009BB24FF48872194600201FF093FDF86034
:1024A8007B79002B01D0002300E03B46BA79F9681C
:1024B80001FB02F2114618461FF0D0F9B8607B798B
:1024C80083F00103DBB2002B05D0054AFB791370BA
:1024D8003B68044A1360BB6818461037BD4680BD88
:1024E8000C0C0021080C002180B584B000AF786086
:1024F8000A4B1B789BB24FF48872194600201FF0D4
:1025080061FDF860064B1B68FA68796818461FF089
:102518005CFA00BF1037BD4680BD00BF0C0C00211F
:10252800080C00210122104B4FF0FF3000215A60A7
:10253800C3F8080303F580539A60C3F80012C3F880
:102548000803C3F80015C3F804259A60C3F8080304
:10255800C3F80015C3F8042503F5805341F6F87253
:10256800C3F80825704700BF00D000410A4B4FF45C
:102578000052C3F88020BFF34F8FBFF36F8FC3F8AB
:1025880080214FF48042C3F88020BFF34F8FBFF300
:102598006F8FC3F88021704700E100E008B5FFF7AE
:1025A800C1FFFFF7E3FF00F01BF8054B41F6F87297
:1025B800C3F8082500F0AAF8BDE8084000F0AEB856
:1025C80000F0004108B5FFF7ADFFFFF7CFFF034B61
:1025D80041F6F872C3F8082508BD00BF00F00041B5
:1025E80010B5054C204621F01DFC18B130211D20E6
:1025F800FEF798FA607010BD0D0C00212DE9F04728
:1026080007462B4E2B4C2A4821F010FC054608B1F2
:10261800FF2373704FF001080023DFF89C90C4F883
:102628000480C4F80031C4F80431C4F80475C4F84F
:102638000080D4F8003113B9D4F80431E3B1D4F8E8
:102648000431002BE8D1A5B996F8018003237570F1
:102658004FF400523046C4F80833184BC4F80451FC
:10266800C4F80051C3F8802121F0EFFBB8F1000F46
:10267800C9D10020BDE8F087D9F81030DB06D8D5DD
:102688000E4B4FF40052C3F88021EFF3108A72B654
:102698000323C4F80433D4F8003123B9D4F804313F
:1026A8000BB921F0DDFBBAF1000FC2D162B6C0E769
:1026B8000D0C002100D0004100ED00E000E100E039
:1026C800114B1A6870B5E2B15A6809210125013227
:1026D8001E68092A28BF002205FA02F426420DD0F6
:1026E8005A60EFF3108172B61A6822EA04021A607F
:1026F80001B962B65B680360002070BD0139E6D19C
:102708005A600520F9E700BF100C0021024B002297
:102718001A605A60704700BF100C0021014B00225C
:102728001A707047180C0021084B10B51C784CB96A
:102738001BF0D6FF064BFF28187005D173211F2008
:10274800FEF7F0F90F2010BD2046FCE7180C002119
:102758001000002110B5044C2078FF2803D01BF08E
:10276800DBFFFF23237010BD10000021044B4FF640
:10277800FF7200219A86DA8683F832101A8770472A
:10278800640C0021044B4FF6FF7200219A86DA860A
:1027980083F832101A877047640C0021054B9A8E13
:1027A800824205D100214FF6FF7283F832109A86D3
:1027B800704700BF640C0021014BD886704700BFEA
:1027C800640C00210A4A4FF6FF710346B2F834C080
:1027D8008C4503D0002210461A60704792F83210D8
:1027E800012902D001201A6070470020704700BFFD
:1027F800640C0021064B93F83220012A06D00122EE
:10280800D98E104683F83220998670470020704789
:10281800640C0021014B1887704700BF640C00212D
:10282800074B0246B3F834C0198F8C4501D00020FD
:10283800704793F832000028FAD0012013607047DF
:10284800640C0021094B998E1A8F914201D0002007
:1028580070474FF6FF7193F832209986002AF6D018
:102868000022012083F83220704700BF640C002149
:10287800064B998E1A8F914201D00120704793F828
:102888003200B0FA80F04009704700BF640C0021A4
:10289800704700BF034648B9094B4FF0010C086860
:1028A8008A88586003F804CB9A807047012800D0C2
:1028B8007047034A086889889372D060118270470C
:1028C800A00C002140B90C4A13781BB1506812893A
:1028D80008608A8018467047012809D1064A937A09
:1028E800002BF7D0D068128A086018468A80704793
:1028F80000231846704700BFA00C002100B580EAED
:10290800020C1A78087891F805E050404A7860443B
:1029180093F801C082EA0C0291F802C00244987848
:102928008CEA000CC8789444DA7850400A7900EBB5
:102938000C0193F804C0587982EA0C038EEA00026D
:102948000B44DA420CBF012000205DF804FB00BFF5
:1029580010B9054B18787047012802D1024B987AB4
:1029680070470020704700BFA00C002130B5034617
:102978008DB0CA780D46002400685968EC468DF879
:102988001F209A68DB6806948DF81C40CDE9044442
:10299800ACE80F002B7968468DF81E306B798DF8FE
:1029A8001D301FF070FE2A789DF82F309A4202D011
:1029B80020460DB030BD6A789DF82E309A42F7D186
:1029C800AC789DF82D00201AB0FA80F040090DB0BF
:1029D80030BD00BF30B50C46032105468DB06018E8
:1029E80052B3FEF725FB6379EC4603F03F0343F04F
:1029F800400363718DF81D300023286806938DF815
:102A08001C306968AA68CDE90433E3788DF81F3073
:102A180023798DF81E30EB68ACE80F0068461FF08C
:102A280032FE9DF82F109DF82E209DF82D30217034
:102A38006270A3700DB030BDFEF708FBD3E700BF8E
:102A480010B5044639B10621FEF7F2FA637903F0AE
:102A58003F03637110BD0621FEF7F8FA637903F0AE
:102A68003F03637110BD00BF10B40B46074C312201
:102A780023F8042BD4F80E00D4F81210D4F816203A
:102A8800648B07C31C8010BC704700BFB80C0021C2
:102A980070B5224D296BEC6A0B78A83403F0030358
:102AA800032B1AD1EB8E0120AA8E0343207442F423
:102AB8000062EB86AB6BAA869847296B237E013BA5
:102AC80018BF012323764B7833B1D4E92032013380
:102AD80042F10002C4E9203270BD002BEED04B78E1
:102AE800002BEBD0AA8E42F40062AA86EA6B002A79
:102AF800F2D0FB2B08D895F8403063B1AB6B0021BE
:102B08002020BDE87040184795F8413043F0100385
:102B180085F8413070BD01230370CFE7B80C002160
:102B280070B57E4C002382B0E56A8DF8053095F8C3
:102B3800CB2005F1A80694F876300AB10433DBB24D
:102B4800FF2B11D180B995F86F3095F86E108B4234
:102B580002D0FF2016F09AFAB37D032B00F2D98039
:102B6800DFE803F0051F7F6F95F86E10F1E794F822
:102B780077306B48ADF80630A5F85430FFF750FEB3
:102B8800002840F09D800DF105020DF10601E06F6F
:102B98001EF0E4FAA06720B196F85D30002B00F033
:102BA800A280604B1846A367F37DDB0003F00802A0
:102BB800037803F0F3031343327E920002F0040219
:102BC800134303F0EF0203F00303032B027002D157
:102BD800C378022B11D0E06F1EF0EBFB48B9A06F51
:102BE800027802F00303032B07D0FFF741FE002809
:102BF80076D1A06F027842F01002027096F8223067
:102C080013B14378002B46D116F094FC16F062F805
:102C18006A6941F64B539A4236D8012195F86F20DC
:102C2800084616F04FFDA26F01233F49108892789D
:102C380084F8B030A4F8B40084F8B7308A7002B0D1
:102C480070BD3748FFF7ECFD00285DD0A06FC37852
:102C58001B2BA9D1012105F1100016F049FAA06F2C
:102C6800A2E7B5F854300DF105020DF10601E06F49
:102C7800ADF806301EF072FAA067002894D140F231
:102C8800E5212720FDF74EFF95F86F200121002050
:102C980016F018FDC7E7D4F8800016F04BFC94F83E
:102CA8002810D4F88000D6E91E23B1FA81F6A16F66
:102CB8007609C4E9262384F8A06015F0B1FFA7E7D8
:102CC800E38E8020A16F43F08003A26BE3869047D8
:102CD8000121A06F7174C3781B2B7FF465AFBAE72D
:102CE800A06F027889E79DF805302BB1BDF8061072
:102CF80003F03CF9A06F57E7038001218370A06FB0
:102D080002F066FFA06FF1E740F2EE212720FDF701
:102D180009FF40F2FB212720FDF704FFB80C002132
:102D2800300D0021FC0C00216C0D002110B5134C56
:102D380016F0D2FA15F0CEFF0021A36BA08E9847AB
:102D4800237F53B9D4F8BC3094F8411094F8B800F4
:102D58009847002384F8B73010BD234607CB1B885B
:102D6800C4F80E0004F11D00C4F81210C4F81620AF
:102D780002220349638303F05BFCE3E7B80C0021FC
:102D8800712A0001034B93F8B73003B97047FFF776
:102D9800CDBF00BFB80C0021174A92F828307BB18C
:102DA80080B992F8B410C9060ED503B30021D38EAA
:102DB8009B0714D5936FDB78981E18BF01207047C6
:102DC8000128EED000207047D2F8C010D06B0978E7
:102DD800C1F30011C1F1010120B1002BE7D131B1DC
:102DE80001207047B2F8C4000028F9D1F5E7D08E69
:102DF800003818BF01207047B80C002108B5094BEE
:102E080093F8B720022A07D11A7B42F001021A73FD
:102E1800BDE80840FFF78ABF40F249212720FDF7A7
:102E280081FE00BFB80C0021F8B52C4C0646E56AB7
:102E3800D4F8C03095F8CB2005F1A80794F87600AF
:102E480023630AB1031DD8B2FF2895F86F1004D187
:102E58001EB995F86E30994203D016F017F997F815
:102E680023205AB3D4F8800016F064FB94F8283075
:102E7800D4F88010003B206B18BF012384F8A030E1
:102E8800D7E92023C4E9262315F0CAFE3EB995F8F0
:102E98006F0010F00C0018BF282016F0ABFB6A6911
:102EA80041F64B539A420FD895F86E200021012025
:102EB80016F008FC022384F8B730F8BD206B16F032
:102EC80039FB15F007FFE1E7002195F86E20084669
:102ED80016F0F8FB022384F8B730F8BDB80C0021CF
:102EE8002DE9F041444C82B006460F4694F8B720CD
:102EF800E56A012A5FFA82F805F1A80577D12B7CEB
:102F08006BB1E38E0021042043F004032974E386A7
:102F1800A36B984794F828300BB185F81280A16FFD
:102F28000A7802F00302032A44D04B78EBB102235B
:102F3800AB7595F8233023B3E36A93F86F1094F8D0
:102F480028300139003B18BF012384F8A030D5E9A7
:102F58002023C4E9262394F87620072942D8DFE8FD
:102F680001F03E0941074141413B0123AB75E0E7D0
:102F78004FF0030800214346012000911F4915F036
:102F8800EBFD012F11D186B9D4F8C83030469847E7
:102F980058B194F8413043B93046FFF7FDFE20B9E7
:102FA80002B0BDE8F041FFF73FBF02B0BDE8F04115
:102FB800FFF7BCBEAB7D63B9E38E022043F002038A
:102FC800E386A36B9847A16F0B7803F00303032BE9
:102FD800ABD10323AB75ACE74FF00208CAE74FF05B
:102FE8000008C7E740F221410620FDF79BFD40F2AB
:102FF8006B412720FDF796FDB80C0021400D0021FC
:1030080070B50B4C94F8B73073B906460D4603F00B
:10301800FF02012104F14400227702F0D9FDC4F82F
:10302800C060C4F8805070BDD0212720FDF77AFD1C
:10303800B80C0021044A92F8B73003F0FF000BB92E
:10304800107770470C207047B80C0021024B012202
:1030580083F84020704700BFB80C00212DE9F043E9
:1030680085B0BF4C02AD85E8030094F8B7100C9802
:10307800002940F0F081002B18BF002A00F0EB81F6
:10308800002800F0E88101F0FF06C4F8C830C4F851
:10309800BC0004F12803A26384F8406084F841600E
:1030A80084F8CC6084F8B86084F8B060E686A686B8
:1030B80095E8030083E80300E56A16F06DF815F05B
:1030C80009FE95F9720005F1A80716F0E7F8286AD5
:1030D80016F014FAA86916F0E7F897F8330016F016
:1030E800EDF894F82830002B00F0B28004201BF093
:1030F800C1FD6A6941F64B539A4200F2C68001202D
:1031080016F0DAFA4D2015F07BFF95F86F100120C4
:1031180017F004F8002800F0B180924816F0F4F98E
:103128002888FEF727FFE0672888FEF7F1FE95F864
:103138007B30C4F8D0001BB9696F002940F0D480F7
:10314800D7F89430DFF820C2D7F88800D7F88C1069
:10315800D7F89020ACE80F00D7F89830C4F8A13021
:10316800D7F89C30CCF80D3094F82830002B40F07C
:103178009080E36A93F8C520263A012A40F2DB8062
:1031880093F8C620262A00F0D68093F86E100429FA
:1031980000F0188111F00C0FA88F18BF4FF42960A8
:1031A80001F054FB2B8F95F86F10834297F823900A
:1031B800B5F8408028BF034611F00C0F0CBFB5F8D6
:1031C80042004FF42960082984F8773008BF0421A9
:1031D80001F03CFBB9F1000F01D1043080B2404549
:1031E80028BF40465FFA80F884F8D48003F00CFDCD
:1031F80020B1B8F12B0F38BF4FF02B0894F82810E6
:1032080084F87680002940F0D28097F82230002B8D
:1032180000F0B480012395F86E6084F8A030013E78
:103228006869D7E91E23C4E9262341F64B5398421F
:1032380094BF04200020072E00F2E480DFE816F097
:103248009700F900E2009600E200E200E200FB00CD
:1032580003201BF00FFD6A6941F64B539A4210D8C0
:10326800012016F029FA4D2015F0CAFE95F86E10C7
:10327800002016F053FF00287FF44FAF05B0BDE8DB
:10328800F083962015F0BCFEF0E7962015F0B8FE06
:103298003BE7E26A92F8C530A3F12601012934D947
:1032A80092F8C600262830D0A3F12101134601293F
:1032B80000F2C780242840F0AA8092F8671092F89C
:1032C8006E310B4092F86E105A077BD413F001024E
:1032D80074D19B077FF55EAF042973D0082971D09C
:1032E800012918BF022124E0B7F84A20BB8A93427B
:1032F8007FF426AFB5F8782013440122A7F84A30A6
:1033080095F87A0018F064F91AE792F8E63392F81B
:103318006E10002B3FF43EAF082953D0042951D03A
:10332800082B4FD0042B4DD0012901D0012B15D1EA
:103338000121A88F34E793F8422393F86E10002AEE
:103348003FF428AF08293DD004293BD0082A39D0BA
:10335800042A37D00129EBD0012AE9D00221E8E775
:10336800B80C002110D50201400D002103210022D4
:103378000B463E490092FB2215F0EEFB0120FFF7B9
:10338800CFFB3B4BD3F8503523F00803032B67D012
:10339800002397F83320C4E90033A360A381298868
:1033A800BB8A21802271638005B0BDE8F08397F85D
:1033B80023305BB90120FFF737FDE2E7042901D08C
:1033C800082946D108214FF42960E9E695F86F30BD
:1033D8000122D7E92001013B84F8A020C4E9260195
:1033E800072B0FD8DFE803F005290E040E0E0E2B6D
:1033F8000326002133464246012000911B4915F05F
:10340800ABFBD7E740F221410620FDF78BFB92F892
:103418006E3192F86E105A07D4D413F0010214D109
:1034280098077FF5B7AE0829CCD004297FF458AFA8
:10343800C8E701219BE7022199E70126D9E702267F
:10344800D7E724287FF4A1AE37E70829BAD00429A2
:10345800B8D011466DE740F245112720FDF762FB11
:1034680040F202212720FDF75DFB00BF400D00213F
:103478000080004110B5174C94F8B730DBB194F8D0
:1034880028307BB194F8B730022B1ED1E36AD3F809
:10349800200316F085F8E36A93F87B200AB9596F80
:1034A80061B910BD94F8B730012BF4D040F21A215D
:1034B8002720FDF737FBFFF739FCECE7114693F8B7
:1034C8007A00BDE8104018F083B840F21E2127208A
:1034D800FDF728FBB80C0021FFF728BC014B187733
:1034E800704700BFB80C0021014B93F8B00070473B
:1034F800B80C0021024B988EC0F38020704700BFA3
:10350800B80C0021014B93F8CC007047B80C00218F
:103518002DE9F0411E4F820782B00546FC6A0E462F
:1035280004F1A80411D4EB070CD5217ED4E920328C
:10353800013342F100020129C4E920320CBF002303
:103548000123237602B0BDE8F081FB6BDBB1B7F84D
:10355800C4201846396B033291F801801BF034FA05
:103568000DF1020201A93863D7F8D0001EF0EFF878
:1035780001981EF0B0F8012230604146D7F8D0001B
:103588001DF0D9FFCFE740F25C412720FDF7CAFACA
:10359800B80C00212DE9F047002386B0A54C06465B
:1035A8008DF80F300F46E56ACDE9043394F8B7304B
:1035B800A835022B5FFA83F840F08981A38E13F0B7
:1035C800400106D1A36B40209847A38E43F04003E7
:1035D800A386002E61D095F82330002B40F00A8195
:1035E800236B597889B2A4F8C410002940F01681D9
:1035F8000022E2631A78E87DA38EC2F3800143F4C7
:1036080080738842A38600F0DF80E16A94F828007E
:1036180001F1A80999F81610D9B1022900F03E81E4
:10362800002189F8161020B199F81230002B40F0CB
:103638002B8199F81130002B40F0028199F817304E
:10364800012B0CBF0023012389F81730236B1A784C
:10365800A38E43F480634FF00009A386C2F3C0022F
:103668002B7E934228D103F0CFFA002800F0BD80CA
:10367800226B137803F00303013B012B00F2B580A2
:10368800527894F8D4309A4240F2AF8094F841309E
:1036980043F0100384F841300EE095F82320002A07
:1036A80040F0C38043F400734FF00009A38694F8F8
:1036B800CC30013384F8CC3095F822303BB394F801
:1036C800283041F64B52B3FA83F35B0984F8A030F3
:1036D800E36A586993F86E10904294BF0420002062
:1036E8000139D5E91E23C4E92623072900F2C4803D
:1036F800DFE801F07804C275C2C2C2064FF00108C3
:10370800002243464C490092FB2215F025FA002F6F
:1037180045D194F8CC30012B41D8D4F8C8300120D9
:10372800984700283BD094F84130002B37D101202E
:10373800FFF732FB0746002831D1FFF7F1F99DF872
:103748000F30002B32D1B9F1000F06D094F8283091
:10375800002B3BD163890133638166B3E388002280
:10376800013384F8CC20E380344804F027F8049827
:1037780040B11DF0B0FFE16A002308220130037256
:1037880002F036FF059B33B1E16A0020102218725F
:10379800059802F02DFF97B906B0BDE8F08715F03F
:1037A800F5FF9DF80F300127002BCCD005A902208A
:1037B800FFF7AEFEC7E7238901332381D4E7FFF77C
:1037C800B5FA06B0BDE8F087B14647E7E388218936
:1037D800AA8A0B4313439BB2002BBED0BAE74FF023
:1037E80003088DE74FF000088AE70DF10F00FFF797
:1037F8004FF961E715F0B2FA15F094FA236B59788E
:1038080000287FF4EFAE00293BD01B782A7EC3F353
:10381800C0039A4255D089B2A4F8C410D4F8D00095
:103828001DF014FE236BE063E4E615F0D1FAA38ED5
:1038380038E700BFB80C0021400D0021E00C002142
:103848004FF0000A89F811A0FEF7FCFF002848D0C5
:10385800E38E5146082043F00803E386A36B98479C
:10386800D9F878300133C9F87830D9F87C3043F189
:103878000003C9F87C30E1E640F221410620FDF75B
:1038880051F9A4F8C410B3E6E38E102089F8121099
:1038980043F01003E386A36B9847CAE604A9E06FD8
:1038A8001DF0AFFCC0B1D9F8783094F82800013386
:1038B800C9F87830D9F87C3043F10003C9F87C3076
:1038C800AEE6012384F8B830FFF730FA64E740F237
:1038D800DF412720FDF726F940F2DA312720FDF7EE
:1038E80021F940F2F1312720FDF71CF9044B5A78F1
:1038F800824203D9184490F842017047002070476B
:10390800900D002108B5084B4FF4C57200211846E8
:103918001BF0D0F800224FF4617180F88A2180F8FA
:103928008B21A0F88C1108BD900D0021014B83F864
:103938008B017047900D0021014B93F88B01704764
:10394800900D0021D54B2DE9F04393F80080B8F194
:10395800000F00F03A8191F800C04F7893F8544175
:1039680093F853517C4093F855918CEA050591F8EA
:1039780004E02C4493F8525145402C448D7885EA54
:10398800090909EB0406CC7893F8569184EA0909E9
:10399800B1444E7993F857118EEA0101894493F89E
:1039A8005811714011EB090100F01381B8F1010FB2
:1039B80000F00B8193F85A1193F85B918CEA01019E
:1039C80087EA0909494493F8599180EA0909494461
:1039D80093F85C9185EA0909894493F85D1161407F
:1039E800894493F85E118EEA0101494493F85F9186
:1039F80086EA090919EB010F00F0EA80B8F1020F15
:103A080000F0E38093F8611193F862918CEA010168
:103A180087EA0909494493F8609180EA0909494409
:103A280093F8639185EA0909894493F86411614020
:103A3800894493F865118EEA0101494493F8669127
:103A480086EA090919EB010F00F00881B8F1030FA4
:103A580000F0BB8093F8681193F869918CEA010132
:103A680087EA0909494493F8679180EA09094944B2
:103A780093F86A9185EA0909894493F86B116140C2
:103A8800894493F86C118EEA0101494493F86D91C9
:103A980086EA090919EB010F00F0E280B8F1040F7A
:103AA80000F0938093F86F1193F870918CEA0101FC
:103AB80087EA0909494493F86E9180EA090949445B
:103AC80093F8719185EA0909894493F87211614064
:103AD800894493F873118EEA0101494493F874916B
:103AE80086EA090919EB010F00F0BF80B8F1050F4C
:103AF8006BD093F8761193F877918CEA010187EAF5
:103B08000909494493F8759180EA0909494493F8E9
:103B1800789185EA0909894493F8791161408944C3
:103B280093F87A118EEA0101494493F87B9186EA69
:103B3800090919EB010F00F09D80B8F1060F44D078
:103B480093F87D1193F87E918CEA010187EA0909BF
:103B5800494493F87C9180EA0909494493F87F9194
:103B680085EA0909894493F880116140894493F8EA
:103B780081118EEA0101494493F8829186EA090984
:103B880019EB010F7BD0B8F1070F1ED093F8841101
:103B98008CEA010C93F885114F4093F88311BC44CB
:103BA800484093F8861160444D4093F887112844A3
:103BB8004C4093F8881120448EEA010E93F889113D
:103BC80086444E4016EB0E0F46D00120BDE8F08328
:103BD800012158780028F8D093F802418C4241D04E
:103BE8000128F2D093F803418C4240D00228ECD04F
:103BF80093F804418C423FD00328E6D093F805415E
:103C08008C423ED00428E0D093F806418C423BD049
:103C18000528DAD093F807418C4238D00628D4D04A
:103C280093F808418C4235D00728CED093F8090183
:103C38008842CAD1072108461AB110705A788242C0
:103C4800C3D90B4493F83A2193F84A01012A08BFD3
:103C580040F00100BDE8F0830721BAE70221B8E788
:103C68000321B6E700210846E6E70421B1E7012170
:103C78000846E1E70521ACE702210846DCE7062112
:103C8800A7E703210846D7E704210846D4E705211A
:103C98000846D1E706210846CEE700BF900D00216F
:103CA800014BB3F88C017047900D0021C74B2DE9EB
:103CB800F0431F78002F00F0338191F800C04E7850
:103CC80093F8542193F8534172408D788CEA040498
:103CD80093F8559193F85681224493F8524185EA16
:103CE800090991F804E044402244CC7849794A44CF
:103CF80084EA080808EB020993F857818EEA08025B
:103D080002EB090893F858214A4012EB080200F028
:103D18000A81012F00F0048193F85B2193F85A81FE
:103D280072408CEA0808424493F8598180EA0808EE
:103D3800424493F85C8185EA0808904493F85D2131
:103D48006240904493F85E218EEA0202424493F85E
:103D58005F8181EA080818EB020F00F01C81022F2E
:103D680000F0DE8093F8612193F862818CEA020208
:103D780086EA0808424493F8608180EA08084244C9
:103D880093F8638185EA0808904493F864216240B7
:103D9800904493F865218EEA0202424493F86681C2
:103DA80081EA080818EB020F00F0F780032F00F0F3
:103DB800B78093F8682193F869818CEA020286EA51
:103DC8000808424493F8678180EA0808424493F857
:103DD8006A8185EA0808904493F86B216240904410
:103DE80093F86C218EEA0202424493F86D8181EACD
:103DF800080818EB020F00F0D480042F00F0908020
:103E080093F86F2193F870818CEA020286EA080819
:103E1800424493F86E8180EA0808424493F871811D
:103E280085EA0808904493F872216240904493F818
:103E380073218EEA0202424493F8748181EA0808E9
:103E480018EB020F00F0B180052F69D093F87621A6
:103E580093F877818CEA020286EA0808424493F8CC
:103E6800758180EA0808424493F8788185EA080851
:103E7800904493F879216240904493F87A218EEA2D
:103E88000202424493F87B8181EA080818EB020F8A
:103E980000F08F80062F43D093F87D2193F87E8120
:103EA8008CEA020286EA0808424493F87C8180EA98
:103EB8000808424493F87F8185EA0808904493F8FB
:103EC80080216240904493F881218EEA02024244A4
:103ED80093F8828181EA080818EB020F6DD0072F4A
:103EE8001ED093F884218CEA020C93F88521564061
:103EF80093F88321B444504093F886216044554098
:103F080093F887212844544093F8882120448EEA66
:103F1800020E93F889218644514011EB0E0F38D0D8
:103F28000820BDE8F08310465A78002AF8D093F8A4
:103F38000211814233D0012AF2D093F80311814251
:103F480031D0022AECD093F8041181422FD0032AF1
:103F5800E6D093F8051181422DD0042AE0D093F8D9
:103F6800061181422BD0052ADAD093F80711814235
:103F780027D0062AD4D093F80811814223D0072AE3
:103F8800CED093F80931834214BF08200720BDE83A
:103F9800F0830720C8E70120C6E70220C4E7002015
:103FA800BFE70320C0E70120BBE70420BCE70220ED
:103FB800B7E70520B8E70320B3E70620B4E70420F5
:103FC800AFE70520ADE70620ABE700BF900D002165
:103FD800044B5A78824203D903EB001082307047B1
:103FE80000207047900D0021044B5A78824203D973
:103FF80003EB00100230704700207047900D00213D
:1040080010B40D4C6378834202D8002010BC70476E
:10401800204490F80231C3EBC303E01803F25313B2
:1040280090F852010870E118E358012010BC1360A1
:104038008B889380704700BF900D002170B50646AD
:104048000D4615F01FFB14F0F3FC0A4B93F88A4158
:1040580014B1597811B90C46204670BD981C8233AA
:104068003246002D08BF184614F0AEFC14F006FDC9
:10407800204670BD900D002108B514F015FD08B953
:10408800FF2008BDBDE8084014F044BD14F00CBD85
:104098008C460246012108B5054B03EB0C1303F1CE
:1040A800820014F091FCBDE8084014F0E7BC00BFA2
:1040B800900D0021074B10B593F88A4114B1597837
:1040C80011B90C46204610BD0246981C14F07CFC21
:1040D800204610BD900D0021F8B5114D6E7856B1EF
:1040E800002407462346E91891F8421121B101340A
:1040F800E3B2B342F7D3F8BD03EB4301013405EB58
:1041080003133A4605EB410103F1820001F585717D
:10411800FEF760FC6E78E3B2B342E4D3F8BD00BFAB
:10412800900D002100487047200F0021084B5A7855
:1041380082420AD91A1892F8422132B900EB40009B
:1041480003EB400000F5857070470020704700BF02
:10415800900D002101EB4101044B0268490001F573
:1041680085715A50194483888B807047900D0021BF
:10417800064B5A78824206D9184490F83A01B0FAA8
:1041880080F0400970470020704700BF900D002163
:1041980070B50D4600210646FDF7B6FC686018B1FB
:1041A800002318462B7070BD044601213046FDF7E8
:1041B800ABFC686018B1012320462B7070BD02204B
:1041C80070BD00BF38B504460D4631B1012965D030
:1041D80002292CD003295AD038BD4FF483621AF033
:1041E80069FC49230122042184F817316FF03B034D
:1041F80084F8CD20072284F81931FE232B2084F877
:10420800181184F81A217F21414A84F84E3120235D
:1042180084F81B5184F81C5184F81D5184F8160148
:1042280084F8C110C4F8B02084F8943338BD002352
:10423800D0F8EC23416942F21075B0F8F203A4F803
:10424800F630B4F8FA3001FB03F3B3FBF2F3A4F849
:10425800FA30531E05FB0030B0FBF2F0A4F8F8006A
:10426800D4F8E80000FB01F1B1FBF2F1C4F8E81062
:104278002849B1FBF2F10131A4F8FE10B4F8F010AE
:1042880005FB0133B3FBF2F3C4F8EC3038BD00F1A1
:10429800CE01CD30BDE8384000F0B0BD43690025FF
:1042A8001D49B0F8FA00D4F8E820194403FB00F0DF
:1042B80003FB02F2A4F8265384F81B53A4F8F65023
:1042C800B1FBF3F1B0FBF3F0B2FBF3F2C4F8EC107E
:1042D80040F6B831A4F8FA00581EC4F8E820A4F84B
:1042E800F01042F21071E28B01FB0200094A04F15E
:1042F800CE01B2FBF3F2B0FBF3F3013204F1CD00CF
:10430800A4F8F830A4F8FE20BDE8384000F076BDE7
:1043180000E0FCFF005A62027FC3C90138B50446B9
:104328000D4631B1012965D002292CD003295AD074
:1043380038BD4FF462721AF0BDFB492301220421F3
:1043480084F817316FF03B0384F8CD20072284F8F6
:104358001931FE232B2084F8181184F81A217F21A3
:104368003F4A84F84E31202384F81B5184F81C51AD
:1043780084F81D5184F8160184F8C110C4F8B020DF
:1043880084F8293338BD0023D0F85023416942F21C
:104398001075B0F85603A4F8F630B4F8FA3001FBFB
:1043A80003F3B3FBF2F3A4F8FA30531E05FB003015
:1043B800B0FBF2F0A4F8F800D4F8E80000FB01F133
:1043C800B1FBF2F1C4F8E8102649B1FBF2F1013172
:1043D800A4F8FE10B4F8F01005FB0133B3FBF2F3B8
:1043E800C4F8EC3038BD00F1CE01CD30BDE838401E
:1043F80000F004BD436942F210751B4AB0F8FA0098
:104408001A44D4F8E81003FB00F003FB01F1B2FBF7
:10441800F3F2B0FBF3F0C4F8EC2040F6B832A4F89D
:10442800FA00581EA4F8F020E28B05FB02000D4AA2
:10443800B1FBF3F1B2FBF3F2B0FBF3F30132A4F8F2
:10444800F8300023C4F8E81004F1CD0004F1CE01DF
:10445800A4F8FE20A4F8F630BDE8384000F0CEBC41
:1044680000E0FCFF005A62027FC3C90170B50479FD
:1044780034F01F040ED1451E061D15F8010F02F079
:10448800FBFC0444B542E4B2F7D1012C94BF0020F0
:10449800012070BD002070BD002964D04B1E062B82
:1044A80000B562D98B0800F1040E02464FF0000CEB
:1044B800013BDBB20EEB830E52F8043B724543EA34
:1044C8000C0CF9D1CCF30723CCF307424CEA0303D5
:1044D800134301F0FC0243EA1C6331F0FC0CDBB22D
:1044E8003CD010F802C043EA0C0302F1010C5FFA59
:1044F8008CFC614532D910F80CC043EA0C0302F178
:10450800020C5FFA8CFCDBB2614527D910F80CC0AD
:1045180043EA0C0302F1030C5FFA8CFC61451DD9D8
:1045280010F80CC043EA0C0302F1040C5FFA8CFC8F
:10453800614513D910F80CC043EA0C0302F1050CCD
:104548005FFA8CFC614509D9063210F80CC0D2B26A
:1045580043EA0C03914201D9825C1343B3FA83F016
:1045680040095DF804FB0120704700221346B8E7B4
:1045780030B51C468DB0C37B154642788DF80030A7
:10458800837B8DF80E208DF80130437B8DF8023047
:10459800037B8DF80330C37A8DF80430837A8DF865
:1045A8000530437A8DF80630037A8DF80730C379E1
:1045B8008DF8083083798DF8093043798DF80A3001
:1045C80003798DF80B30C3788DF80C3083788DF82B
:1045D8000D30037868468DF80F30CB7B4A788DF81C
:1045E80010308B7B8DF81E208DF811304B7B8DF8A9
:1045F80012300B7B8DF81330CB7A8DF814308B7A10
:104608008DF815304B7A8DF816300B7A8DF81730F7
:10461800CB798DF818308B798DF819304B798DF866
:104628001A300B798DF81B30CB788DF81C308B78CD
:104638008DF81D300B788DF81F301EF024F88DB3DF
:104648009DF82F009DF82E109DF82D209DF82C30F8
:10465800207061709DF82B009DF82A10A270E370FD
:104668009DF829209DF82830207161719DF8270058
:104678009DF82610A271E3719DF825209DF824303D
:10468800207261729DF823009DF82210A272E372D5
:104698009DF821209DF8203020736173A273E37385
:1046A8000DB030BD08AD0FCD20606160A260E36041
:1046B8000DB030BDA0F10B03042B08D9A0F12103E4
:1046C8002F2818BF062B94BF012000207047012017
:1046D800704700BF0D2900F28380DFE801F00D115B
:1046E800171D232939454B51585E67072A3A042A72
:1046F8008CBF002001207047B2FA82F04009704751
:10470800073A012A8CBF0020012070470B3A022A81
:104718008CBF0020012070470E3A012A8CBF002070
:1047280001207047113A0C2A8CBF002001207047E5
:10473800002B41D1A2F11303012B49D990F85E3027
:10474800002B47D0143A082A8CBF0020012070475C
:10475800A2F11103032B3BD990F85E001D2A8CBFF0
:10476800002000F001007047A2F10400B0FA80F0C8
:1047780040097047A2F10100B0FA80F04009704783
:1047880003BBA2F10500B0FA80F0400970471E3A59
:10479800022A8CBF002001207047A2F121002F2A95
:1047A80018BF062894BF012000207047A2F12900F5
:1047B800B0FA80F040097047123A0B2A8CBF0020EB
:1047C80001207047A2F11000B0FA80F0400970474C
:1047D80001207047183A042A8CBF00200120704736
:1047E80000207047F8B504460D46D0E9046717F075
:1047F8005BF908B3DDB1236962699B1B62EB0702B1
:10480800012B72F1000114DB6FF0010000219842C6
:1048180071EB020215DB6A1E1344B3FBF5F303FBCD
:1048280005F5AE191D4647F10007C4E90467284697
:10483800F8BD00252846F8BD4FF404712920FCF77F
:1048480071F940F21A212920FCF76CF911F00C03D8
:104858000CD04B0712D44FF4747340229842194677
:1048680012D9401A90FBF2F080B2704702290DD09D
:10487800702809D97038C0F3CF00704740F20E2372
:10488800102298421946ECD8002070473C28FBD9E2
:104898003C38C0F38F0070470B68C0F86A30704727
:1048A800034610F0010007D19A0704D413F004005E
:1048B80018BF082070470220704700BF2DE9F84F45
:1048C800894607460846924601F0ECFA05464846EE
:1048D80001F0ECFA10F00104064659D1820700F104
:1048E800928010F0040474D1A34615F001084CD14D
:1048F800AB0700F1838015F0040803D04FF0010BDB
:104908004FF0080813F0CCFF0640F6B2002E08BF9F
:10491800002413F0C5FF054097F86E30EDB2002D66
:1049280008BF4FF00008A34226D08AF8004097F845
:104938006F3043452FD044EA0803DBB28AF8018080
:10494800002B4CD0D4B3082C06D05846BDE8F88FBD
:10495800042B01D0082B37D197F86C31012BF4D1F7
:10496800B7F87031012B97F86E3050D0082BECD087
:1049780008238AF80030E8E700238AF8003097F81F
:104988006F20424529D04346D8E74FF0010BB9E7DD
:104998004FF0010BA9E700238AF80130002CD2D18F
:1049A800484601F089FAB7F8BC3047F6FD72DB4398
:1049B80003449BB2934288BF4FF0000B97F86E30C8
:1049C800022BC5D8002BC0D140F2D7210620FCF716
:1049D800A9F84FF0010B082487E78AF80130484608
:1049E80001F06AFAB7F8BC30DB43184447F6FD73A8
:1049F80080B2984288BF4FF0000BA3E74FF0010B3D
:104A08004FF002087EE74FF0010B02246DE7042BFC
:104A1800AED004238AF8003097E700BF012805D0FC
:104A2800022803D010F00C0018BF0420704700BF04
:104A3800C1F3072384B05FFA80FC012B0190C9B24F
:104A4800C0F307201ED101291CD10CEA0000014047
:104A58000B401A46990731D413F0010102D113F023
:104A6800040131D190072DD412F0010303D112F0C3
:104A7800040318BF0823002061F3070063F30F2025
:104A880004B07047022901D1022BDED0042901D1DC
:104A9800042BDAD0BCF1010F01D10128D5D0BCF12B
:104AA800020F01D10228D0D0BCF1040F01D1042893
:104AB800CBD00CEA030300EA0102CBE790074FF0E2
:104AC8000201D1D50223D6E793070DD412F00103D2
:104AD80003D112F0040318BF0823BDF80620012AE9
:104AE80014BF08210421C6E70223F6E7082908BFF6
:104AF800012884460CBF012000200FD0A1F104003A
:104B0800BCF1010FB0FA80F04FEA501008BF002046
:104B180000B9704708211380518070470421138021
:104B280051807047162A01D000207047A0F10C026E
:104B3800032A0CD9212806D00029F5D00A78012AA1
:104B480005D9162AF0D1232201201A7070472A228B
:104B580001201A70704700BF013908B5072914D819
:104B6800DFE801F0071013041313130440F6A660DE
:104B780008BD034640F2E24240F6C410002B08BFCD
:104B8800104608BD40F6C41008BD4FF468712920CE
:104B9800FBF7C8FF80F8721012F05EBA41F270732A
:104BA800A0F57A729A4205D9064BA3FB0030C0F3F0
:104BB8008F207047044BA3FB0030800900F550603C
:104BC80080B270475917B7D1D34D62106FF4506354
:104BD800C318062B04D940F2E24303FB00F07047E8
:104BE8004FF47A73A0F5506003FB00F0704700BFE4
:104BF80041F64B53994208D9C0EB401300EB8300B0
:104C080000EB8000400080B2704700EB800000EBB2
:104C180080008000704700BF41F64B53994205D988
:104C2800054BA3FB0030C0F387207047034BA3FB61
:104C38000030C0F3471070475917B7D11F85EB51A3
:104C480041F64B53994294BF642340F2E24303FB7D
:104C580000F0704741F64B53994205D9054BA3FB29
:104C68000030C0F38F207047034BA3FB0030C0F324
:104C78004F1070475917B7D11F85EB5141F64B5369
:104C8800994209D9094B40F2E242A3FB00139B0A5F
:104C980002FB1303C01A7047054B6422A3FB0013E1
:104CA8005B0902FB1303C01A704700BF5917B7D13D
:104CB8001F85EB5110B46FF4E9742044884294BF07
:104CC800091A491A1868012900EB510494BF0020F9
:104CD80001201C60136810BCA3EB510111607047E0
:104CE800074B93F900301844142804DC10F17F0FA7
:104CF80003DB40B27047142070476FF07E007047A6
:104D0800300F002108B514F0DFFA084B93F9003092
:104D18001844142804DC10F17F0F03DB40B208BDEF
:104D2800142008BD6FF07E0008BD00BF300F0021C1
:104D380000B583B07F230DF107008DF8073014F01C
:104D4800AFFC20B99DF9070003B05DF804FB0A4ADF
:104D58009DF907305078404240B21844142806DCC8
:104D680010F17F0F05DB40B203B05DF804FB14209F
:104D7800EAE76FF07E00E7E7300F0021014B18707B
:104D880059707047300F0021024B00221A705A7078
:104D9800704700BF300F0021014B93F900007047A6
:104DA800300F0021014B93F901007047300F0021AB
:104DB800074B1A7803463AB9064901220868097967
:104DC800186010461971704700221046704700BFDE
:104DD800340F002114000021034606494FF0FF0C50
:104DE800054A00681B7982F800C008600B7100232F
:104DF8001370704714000021340F002170B5441C53
:104E080005468C4204D00B68C0F801300B79237139
:104E18006B790022AE1D03F01F03EA726B7114F860
:104E2800010B02F029F82071B442EB7A1844E872B9
:104E3800F5D170BD81EA1141844689B24A4008B56E
:104E4800D3B293FAA3F3120A92FAA2F2120E1B0E2D
:104E580043EA022303EB03130B449AB2DBB293FA3F
:104E6800A3F3120A92FAA2F2120E1B0E43EA0223CD
:104E780003EB03130B449AB2DBB293FAA3F3120ABF
:104E880092FAA2F2120EA0481B0E43EA022303EB89
:104E980003130B444B409BB2A0FB03201A1A00EBF0
:104EA8005200400900EBC00200EB82000122181AF0
:104EB800C0F3C40100F0070E614402FA0EF249780B
:104EC800114201D0C0B208BD9CF80B1001FB03F3DE
:104ED8009CF806104FEA134E1B140EF10100C2B2E3
:104EE8008A425BD9501AC2B29CF80730934280F0CC
:104EF8009A80D01AC2B29CF808309A4240F2D980FF
:104F0800D01AC2B29CF809309A420AD9D01AC2B251
:104F18009CF80A30934280F013819D214620FBF7CC
:104F280001FE9CF80430D90705D5501E10F0FF0289
:104F380001D1032281E0980705D5501E10F0FF0229
:104F480001D1032238E0590705D5501E10F0FF02A1
:104F580001D103223BE0180705D5501E10F0FF02CF
:104F680001D103223BE0D90605D5501E10F0FF02FF
:104F780001D103223BE0980605D5501E10F0FF0230
:104F880001D103223BE0590600F118811806BFD56C
:104F9800501E10F0FF02BBD1032242E09CF8011022
:104FA800C80703D5002B00F0108172468B0708D57F
:104FB800501E10F0FF0204D1012000EBC200C0B265
:104FC80008BD480705D5501E10F0FF0201D1022088
:104FD800F3E70B0705D5501E10F0FF0201D103209F
:104FE800EBE7C80605D5501E10F0FF0201D10420DA
:104FF800E3E78B0605D5501E10F0FF0201D105200E
:10500800DBE7480605D5501E10F0FF0201D1062047
:10501800D3E70B067FF568AF501E10F0FF027FF450
:1050280063AF0720C9E79CF8023013F0010106D0EE
:10503800501E10F0FF0202D10A460020BDE7980773
:1050480005D5501E10F0FF0201D10122B4E759071F
:1050580005D5501E10F0FF0201D10122B7E718074D
:1050680005D5501E10F0FF0201D10122B7E7D9067D
:1050780005D5501E10F0FF0201D10122B7E79806AE
:1050880005D5501E10F0FF0201D10122B7E75906DD
:1050980005D5501E10F0FF0201D10122B7E718060E
:1050A8007FF529AF501E10F0FF027FF424AF0122D4
:1050B800B7E79CF80330D90705D5501E10F0FF025A
:1050C80001D10222B9E7980705D5501E10F0FF025A
:1050D80001D1022270E7590705D5501E10F0FF02D2
:1050E80001D1022273E7180705D5501E10F0FF0200
:1050F80001D1022273E7D90608D5501E10F0FF022D
:1051080004D1022273E700BF4D91CFBA980605D5A6
:10511800501E10F0FF0201D1022270E7590605D592
:10512800501E10F0FF0201D1022270E718067FF529
:10513800E9AE501E10F0FF027FF4E4AE022270E7E1
:105148009CF80530D90705D5501E10F0FF0201D193
:10515800042272E7980705D5501E10F0FF0201D10E
:10516800042229E7590705D5501E10F0FF0201D186
:1051780004222CE7180705D5501E10F0FF0201D1B4
:1051880004222CE7D90613D4980603D5501E10F034
:10519800FF021CD0590603D5501E10F0FF0218D08C
:1051A8001B067FF5BAAE012A7FF4B7AE042238E7B2
:1051B800501E10F0FF02E7D1042218E7501E10F02D
:1051C800FF027FF4E3AE032221E71A4635E7042203
:1051D80015E704221BE700BF90F830C00CF1FF333D
:1051E800242B14D88AB110B5044690F8250080B154
:1051F800012853D1A28A04F125008969FFF71AFE14
:105208000346002084F8333010BD10467047122042
:10521800704794F8311094F8323002FB0132994B00
:1052280083FB0213012113445B1103EBC30E03EB51
:105238008E03D21AD2B204EBD20384F8322093F848
:1052480026E002F0070301FA03F31EEA030F65D113
:1052580094F82B10B2FBFCF30CFB1322D2B2531CB4
:10526800DBB28B425DD95B1ADBB294F82C209A42F0
:1052780080F093809B1ADBB294F82D20934240F281
:10528800CA809B1ADBB294F82E20934240F2FC802D
:105298009B1ADBB294F82F209A4201D21F2010BD2E
:1052A80094F82A20D10704D5013B13F0FF0300F03E
:1052B8004C81910704D5013B13F0FF0300F04781AF
:1052C800510704D5013B13F0FF0300F04281110799
:1052D80004D5013B13F0FF0300F04581D10604D546
:1052E800013B13F0FF0300F04081910604D5013B18
:1052F80013F0FF0300F03B81510604D5013B13F086
:10530800FF0300F036811206C8D5012BC6D104234D
:10531800072202EBC30384F8333010BD84F833202E
:1053280010BD94F8261011F0010F03D0002A00F0E8
:10533800F38013468A0704D5013B13F0FF0300F0FE
:10534800DA804A0704D5013B13F0FF0300F0D6804A
:105358000A0704D5013B13F0FF0300F0D280CA0608
:1053680004D5013B13F0FF0300F0CE808A0604D574
:10537800013B13F0FF0300F0CA804A0604D5013B45
:1053880013F0FF0300F0C6800A067FF56EAF013BFD
:1053980013F0FF037FF469AFBAE794F8272012F0FF
:1053A800010104D0013B13F0FF0300F0B88091071E
:1053B80004D5013B13F0FF0300F09C80510704D58E
:1053C800013B13F0FF0300F09880110704D5013B5F
:1053D80013F0FF0300F09480D10604D5013B13F0CD
:1053E800FF0300F09080910604D5013B13F0FF0302
:1053F80000F08C80510604D5013B13F0FF0300F048
:10540800888012067FF538AF013B13F0FF037FF465
:1054180033AF01237CE794F82820D10703D5013B5B
:1054280013F0FF037DD0910703D5013B13F0FF0371
:1054380079D0510703D5013B13F0FF0375D011074D
:1054480003D5013B13F0FF0371D0D10603D5013B0F
:1054580013F0FF0371D0910603D5013B13F0FF034E
:105468006DD0510603D5013B13F0FF0379D0120626
:105478007FF509AF013B13F0FF037FF404AF02236C
:1054880046E700BFA7C867DD94F82920D10703D5F0
:10549800013B13F0FF034CD0910703D5013B13F0F8
:1054A800FF0348D0510703D5013B13F0FF0348D051
:1054B800110703D5013B13F0FF0344D0D10603D5F0
:1054C800013B13F0FF0346D0910603D5013B13F0CF
:1054D800FF0342D0510603D5013B13F0FF033ED032
:1054E80012067FF5D7AE013B13F0FF037FF4D2AE6F
:1054F80003230DE7012301220BE70123022208E71A
:105508000123032205E70123042202E701230522E0
:10551800FFE601230622FCE603460022F9E60B46D5
:10552800FBE70223F9E70223E5E70223E6E7022384
:10553800E7E70323F1E70323DDE70223E4E7022398
:10554800E5E70323DAE70323DBE70423E5E704239E
:10555800D1E70423D2E70323D6E70323D7E70323BE
:10556800D8E70223D6E70423CBE70423CCE70423B8
:10557800CDE70423CEE700BF4078704708B503782D
:1055880001F00F0223F00F0313430370082917D803
:10559800DFE801F0080508050813080B10000C23C4
:1055A800437008BD0623437008BD00220123C27062
:1055B800437008BD0E23437008BD2223437008BD05
:1055C800A8212A20FBF7AEFA0B68C0F803308B88B5
:1055D800A0F80730704700BFD0F803300B60B0F870
:1055E80007308B80704700BF0B68C0F809308B8884
:1055F800A0F80D30704700BF8B01017803F040031D
:1056080021F0400119430170704700BF0078C0F3D2
:1056180080107047037803F07F0343EAC1130370D7
:10562800704700BF0078C009704700BF1F2A38B50F
:1056380007D8144605460930063419F0C5F96C70C8
:1056480038BDEE212A20FBF76DFA00BF1F2A38B5B6
:1056580007D8144605460930063419F0B5F96C70B8
:1056680038BD4FF488712A20FBF75CFA02780346AC
:1056780002F00F02032A18D0052A14D190F820C08E
:10568800C27F90F8210042EA0C0293F822C002433C
:1056980093F8230042EA0C0220F01F00024302D0D4
:1056A8005A78222A08D0002070474078A0F10C00D0
:1056B800B0FA80F04009704710B56FF45060B3F845
:1056C8001920B3F8174002EB000C93F816E0BCF170
:1056D800060F8CBF002001F0010088B9911F40F629
:1056E8007A4C89B261450AD80EF1FF31072906D8EC
:1056F800944298BF964534BF0120002000D310BDC6
:10570800B3F81B20B2F5FA7F0AD2B3F81D0040F6B1
:1057180076430A3880B298428CBF0020012010BD21
:10572800002010BD10B5002900F0898014461A46E3
:10573800C37813F03F033CD090F804E01EF0010F4B
:105748003CD0002C6BD01EF0020F41D14FF00B0C57
:10575800012C2ED01EF0040F41D0022C4FD00CF19A
:10576800010C1EF0080F5FFA8CFC3DD0032C46D0CC
:105778000CF1020C1EF0100F5FFA8CFC39D0042CCF
:105788003DD00CF1030C5FFA8CFC1EF0200F40D0CA
:10579800052C34D00CF1120C5FFA8CFC1EF0400F73
:1057A8003AD0062C2BD00CF1010C5FFA8CFC072C9C
:1057B80039D040F225312A20FBF7B4F9002CF8D073
:1057C8001EF0020F18D0012C36D04FF00B0CC1E799
:1057D800012C2DD01EF0040F4FF0110CBDD1022C5E
:1057E800E7D01EF0080FC1D1032CE2D01EF0100F35
:1057F800C5D1042CC9D1DCE74FF0050CA8E7ACF102
:10580800040414443F2C1FDC6044BDE8104019F028
:10581800DBB8052CC2D1CCE7062CC8D1C9E70124D6
:105828004FF0050CEDE7ACF10404A342E9DAC0E758
:1058380007244FF00B0CE4E74FF0050CE1E74FF4B9
:1058480049712A20FBF76EF940F226312A20FBF72E
:1058580069F900BFC378844613F03F005CD09CF818
:105868000430DA072FD5002953D09A0732D40B22F7
:1058780001294CD000B513F0040E32D0022942D0D1
:10588800013213F0080ED2B230D003293BD00232D5
:1058980013F0100ED2B22ED0042934D00332D2B273
:1058A80013F0200E39D005292DD01232D2B213F0C0
:1058B800400335D0062926D00132D2B207291FD09D
:1058C80000205DF804FB11B39A0717D5012920D0F1
:1058D8000B22CFE7012926D0112200B513F0040EC0
:1058E800CCD10229ECD013F0080ECED10329E7D091
:1058F80013F0100ED0D10429D2D1E1E70522B7E781
:10590800131F9842DCDB0CEB02005DF804FB00205F
:10591800704705210CEB010070470529C7D1CFE777
:105928000629CBD1CCE70B21F4E700BFC07800F003
:105938003F007047C37803F03F0343EA8113C37005
:10594800704700BFC1F3801CC1F380036344C1F3F7
:10595800001C0CEB4C0C6344C1F3401C0CEBCC0C4E
:1059680000B503EB4C03C1F3400EC1F3000C134424
:10597800F444C1F3C00E0CEB4C0CF44403EB4C03A1
:1059880013F0FF0319D003F1010E023301715FFA1E
:1059980083FC0EF03F015FFA8EF380F801C090F8A7
:1059A80003C02CF03F0C41EA0C01C1701AB104335A
:1059B800511E9B1AC1545DF804FB19464FF0010CA7
:1059C800EBE700BF70B5C47804F03F041319FE2B51
:1059D80009DC15460646201D013530442C4418F0D4
:1059E800F3FF747070BD40F282312A20FBF79AF8F9
:1059F80003464078DB78013803F03F03C01AC0B291
:105A0800704700BF10B5864690F803C0D8439EF88B
:105A180001400CF03F0C0444A4EB0C04E4B29442A3
:105A280028BF144641B10CF1040C084622469C4498
:105A38000EEB0C0118F0C8FF204610BD00B5C37866
:105A4800017913F03F0318BF012303EA511201EA59
:105A5800030E03EA510C03EAD10002EBC202F4443C
:105A680010440CEB4C0C00EB0C0203EA910003EA27
:105A7800911C03EA1113604403EB4303034403EB53
:105A8800420010F0FF0001D00130C0B25DF804FB05
:105A980038B503780446407803F00F03072B11D874
:105AA800DFE803F0041204101010040A06381F2857
:105AB8008CBF0020012038BD0028FCD0E3789A096B
:105AC800032A07D1002038BDA0F10C00B0FA80F0FD
