:020000040000FA
:10000000D0B90020959B000011F50200699B00000B
:10001000699B0000699B0000699B0000699B0000D0
:1000200000000000000000000000000049930000F4
:10003000699B000000000000ED920000699B000039
:10004000CD930000CD930000CD930000CD93000030
:10005000CD930000CD930000CD930000CD93000020
:10006000CD930000CD930000CD930000CD93000010
:10007000CD930000CD930000CD930000CD93000000
:10008000CD930000CD930000CD930000CD930000F0
:10009000CD930000CD930000CD930000CD930000E0
:1000A000CD930000CD930000CD930000CD930000D0
:1000B000CD930000CD930000CD930000CD930000C0
:1000C000CD930000CD930000CD930000CD930000B0
:1000D000CD930000CD930000CD930000CD930000A0
:1000E000CD930000CD930000CD930000CD93000090
:1000F000CD930000CD930000CD930000CD93000080
:10010000CD930000CD930000CD930000CD9300006F
:10011000CD930000CD930000CD930000CD9300005F
:10012000CD930000CD930000CD930000CD9300004F
:10013000CD930000CD930000CD930000CD9300003F
:10014000CD930000CD930000CD930000CD9300002F
:10015000CD930000FFFFFFFF81F0004102E000BFF0
:1001600083F0004330B54FEA41044FEA430594EA77
:10017000050F08BF90EA020F1FBF54EA000C55EAB2
:10018000020C7FEA645C7FEA655C00F0E2804FEA83
:100190005454D4EB5555B8BF6D420CDD2C4480EA65
:1001A000020281EA030382EA000083EA010180EA95
:1001B000020281EA0303362D88BF30BD11F0004FE3
:1001C0004FEA01314FF4801C4CEA113102D0404219
:1001D00061EB410113F0004F4FEA03334CEA133354
:1001E00002D0524263EB430394EA050F00F0A7806C
:1001F000A4F10104D5F1200E0DDB02FA0EFC22FA67
:1002000005F2801841F1000103FA0EF2801843FA5A
:1002100005F359410EE0A5F120050EF1200E012A4B
:1002200003FA0EFC28BF4CF0020C43FA05F3C01889
:1002300051EBE37101F0004507D54FF0000EDCF102
:10024000000C7EEB00006EEB0101B1F5801F1BD3AB
:10025000B1F5001F0CD349085FEA30004FEA3C0CAF
:1002600004F101044FEA445212F5800F80F09A80A5
:10027000BCF1004F08BF5FEA500C50F1000041EBA9
:10028000045141EA050130BD5FEA4C0C404141EBAD
:100290000101013C28BFB1F5801FE9D291F0000FA8
:1002A00004BF01460020B1FA81F308BF2033A3F157
:1002B0000B03B3F120020CDA0C3208DD02F1140C4E
:1002C000C2F10C0201FA0CF021FA02F10CE002F189
:1002D0001402D8BFC2F1200C01FA02F120FA0CFC82
:1002E000DCBF41EA0C019040E41AA2BF01EB0451CB
:1002F000294330BD6FEA04041F3C1CDA0C340EDCC9
:1003000004F11404C4F1200220FA04F001FA02F30B
:1003100040EA030021FA04F345EA030130BDC4F1C9
:100320000C04C4F1200220FA02F001FA04F340EABE
:100330000300294630BD21FA04F0294630BD94F06F
:10034000000F83F4801306BF81F480110134013D56
:100350004EE77FEA645C18BF7FEA655C29D094EAC7
:10036000050F08BF90EA020F05D054EA000C04BF45
:100370001946104630BD91EA030F1EBF0021002030
:1003800030BD5FEA545C05D14000494128BF41F0CF
:10039000004130BD14F580043CBF01F5801130BD33
:1003A00001F0004545F0FE4141F470014FF00000BE
:1003B00030BD7FEA645C1ABF194610467FEA655C6F
:1003C0001CBF0B46024650EA013406BF52EA033511
:1003D00091EA030F41F4002130BD00BF90F0000FFF
:1003E00004BF0021704730B54FF4806404F132043B
:1003F0004FF000054FF0000150E700BF90F0000FF4
:1004000004BF0021704730B54FF4806404F132041A
:1004100010F0004548BF40424FF000013EE700BFEA
:1004200042004FEAE2014FEA31014FEA02701FBF7A
:1004300012F07F4393F07F4F81F06051704732F0AC
:100440007F4208BF704793F07F4F04BF41F4002103
:10045000704730B54FF4607401F0004521F0004161
:100460001CE700BF50EA010208BF704730B54FF0EB
:1004700000050AE050EA010208BF704730B511F0EC
:10048000004502D5404261EB41014FF4806404F124
:1004900032045FEA915C3FF4D8AE4FF003025FEAAA
:1004A000DC0C18BF03325FEADC0C18BF033202EB2E
:1004B000DC02C2F1200300FA03FC20FA02F001FA88
:1004C00003FE40EA0E0021FA02F11444BDE600BF2B
:1004D00070B54FF0FF0C4CF4E06C1CEA11541DBFDA
:1004E0001CEA135594EA0C0F95EA0C0F00F0DEF8A5
:1004F0002C4481EA030621EA4C5123EA4C5350EA8A
:10050000013518BF52EA033541F4801143F48013DA
:1005100038D0A0FB02CE4FF00005E1FB02E506F06B
:100520000042E0FB03E54FF00006E1FB03569CF0C0
:10053000000F18BF4EF0010EA4F1FF04B6F5007FC6
:1005400064F5407404D25FEA4E0E6D4146EB060638
:1005500042EAC62141EA55514FEAC52040EA5E50C1
:100560004FEACE2EB4F1FD0C88BFBCF5E06F1ED86B
:10057000BEF1004F08BF5FEA500E50F1000041EBA2
:10058000045170BD06F0004646EA010140EA02004F
:1005900081EA0301B4EB5C04C2BFD4EB0C0541EA71
:1005A000045170BD41F480114FF0000E013C00F386
:1005B000AB8014F1360FDEBF002001F0004170BDAA
:1005C000C4F10004203C35DA0C341BDC04F11404C3
:1005D000C4F1200500FA05F320FA04F001FA05F24F
:1005E00040EA020001F0004221F0004110EBD3701C
:1005F00021FA04F642EB06015EEA430E08BF20EA48
:10060000D37070BDC4F10C04C4F1200500FA04F3EA
:1006100020FA05F001FA04F240EA020001F000417C
:1006200010EBD37041F100015EEA430E08BF20EAEF
:10063000D37070BDC4F1200500FA05F24EEA020E37
:1006400020FA04F301FA05F243EA020321FA04F066
:1006500001F0004121FA04F220EA020000EBD3701D
:100660005EEA430E08BF20EAD37070BD94F0000F1D
:100670000FD101F00046400041EB010111F4801F51
:1006800008BF013CF7D041EA060195F0000F18BF02
:10069000704703F00046520043EB030313F4801F3E
:1006A00008BF013DF7D043EA0603704794EA0C0FF8
:1006B0000CEA135518BF95EA0C0F0CD050EA41060E
:1006C00018BF52EA4306D1D181EA030101F000418B
:1006D0004FF0000070BD50EA410606BF10461946B3
:1006E00052EA430619D094EA0C0F02D150EA0136BF
:1006F00013D195EA0C0F05D152EA03361CBF104600
:1007000019460AD181EA030101F0004141F0FE419E
:1007100041F470014FF0000070BD41F0FE4141F422
:10072000780170BD70B54FF0FF0C4CF4E06C1CEA22
:1007300011541DBF1CEA135594EA0C0F95EA0C0FD7
:1007400000F0A7F8A4EB050481EA030E52EA033592
:100750004FEA013100F088804FEA03334FF08055B3
:1007600045EA131343EA12634FEA022245EA1115E0
:1007700045EA10654FEA00260EF000419D4208BF91
:10078000964244F1FD0404F5407402D25B084FEA3E
:100790003202B61A65EB03055B084FEA32024FF4EA
:1007A00080104FF4002CB6EB020E75EB030E22BF47
:1007B000B61A754640EA0C005B084FEA3202B6EB07
:1007C000020E75EB030E22BFB61A754640EA5C00B6
:1007D0005B084FEA3202B6EB020E75EB030E22BF46
:1007E000B61A754640EA9C005B084FEA3202B6EB47
:1007F000020E75EB030E22BFB61A754640EADC0006
:1008000055EA060E18D04FEA051545EA16754FEA67
:1008100006164FEAC30343EA52734FEAC2025FEA85
:100820001C1CC0D111F4801F0BD141EA00014FF014
:1008300000004FF0004CB6E711F4801F04BF0143E5
:100840000020B4F1FD0C88BFBCF5E06F3FF6AFAE01
:10085000B5EB030C04BFB6EB020C5FEA500C50F191
:10086000000041EB045170BD0EF0004E4EEA113114
:1008700014EB5C04C2BFD4EB0C0541EA045170BD1B
:1008800041F480114FF0000E013C90E645EA060E5F
:100890008DE60CEA135594EA0C0F08BF95EA0C0F8D
:1008A0003FF43BAF94EA0C0F0AD150EA01347FF4D5
:1008B00034AF95EA0C0F7FF425AF104619462CE7AC
:1008C00095EA0C0F06D152EA03353FF4FDAE10460F
:1008D000194622E750EA410618BF52EA43067FF460
:1008E000C5AE50EA41047FF40DAF52EA43057FF4F0
:1008F000EBAE12E74FEA410212F5001215D211D504
:100900006FF47873B3EB625212D94FEAC12343F00C
:10091000004343EA505311F0004F23FA02F018BF8E
:10092000404270474FF00000704750EA013005D157
:1009300011F0004008BF6FF0004070474FF000001A
:10094000704700BF80F0004002E000BF81F000412E
:1009500042001FBF5FEA410392EA030F7FEA226C65
:100960007FEA236C6AD04FEA1262D2EB1363C1BFF5
:10097000D218414048404140B8BF5B42192B88BF64
:10098000704710F0004F40F4000020F07F4018BF87
:10099000404211F0004F41F4000121F07F4118BFA7
:1009A000494292EA030F3FD0A2F1010241FA03FC4F
:1009B00010EB0C00C3F1200301FA03F100F0004337
:1009C00002D5494260EB4000B0F5000F13D3B0F1FF
:1009D000807F06D340084FEA310102F10102FE2A6E
:1009E00051D2B1F1004F40EBC25008BF20F00100DE
:1009F00040EA03007047490040EB0000013A28BF7D
:100A0000B0F5000FEDD2B0FA80FCACF1080CB2EBFF
:100A10000C0200FA0CF0AABF00EBC250524218437D
:100A2000BCBFD0401843704792F0000F81F4000122
:100A300006BF80F400000132013BB5E74FEA4103F5
:100A40007FEA226C18BF7FEA236C21D092EA030F61
:100A500004D092F0000F08BF0846704790EA010FDB
:100A60001CBF0020704712F07F4F04D1400028BF08
:100A700040F00040704712F100723CBF00F50000EA
:100A8000704700F0004343F0FE4040F40000704720
:100A90007FEA226216BF08467FEA236301464202CC
:100AA00006BF5FEA412390EA010F40F480007047DF
:100AB0004FF0000304E000BF10F0004348BF404285
:100AC0005FEA000C08BF704743F0964301464FF0C1
:100AD00000001CE050EA010208BF70474FF000031D
:100AE0000AE000BF50EA010208BF704711F000435E
:100AF00002D5404261EB41015FEA010C02BF84462E
:100B00000146002043F0B64308BFA3F18053A3F58C
:100B10000003BCFA8CF2083AA3EBC25310DB01FAD3
:100B200002FC634400FA02FCC2F12002BCF1004F57
:100B300020FA02F243EB020008BF20F001007047E8
:100B400002F1200201FA02FCC2F1200250EA4C003C
:100B500021FA02F243EB020008BF20EADC70704782
:100B60004FF0FF0C1CEAD0521EBF1CEAD15392EA90
:100B70000C0F93EA0C0F6FD01A4480EA010C40026C
:100B800018BF5FEA41211ED04FF0006343EA5010C6
:100B900043EA5111A0FB01310CF00040B1F5000F08
:100BA0003EBF490041EAD3715B0040EA010062F1B7
:100BB0007F02FD2A1DD8B3F1004F40EBC25008BFA1
:100BC00020F00100704790F0000F0CF0004C08BFBF
:100BD00049024CEA502040EA51207F3AC2BFD2F18C
:100BE000FF0340EAC250704740F400004FF000039A
:100BF000013A5DDC12F1190FDCBF00F000407047D4
:100C0000C2F10002410021FA02F1C2F1200200FA11
:100C100002FC5FEA310040F1000053EA4C0308BFD8
:100C200020EADC70704792F0000F00F0004C02BF29
:100C3000400010F4000F013AF9D040EA0C0093F0A4
:100C4000000F01F0004C02BF490011F4000F013BFE
:100C5000F9D041EA0C018FE70CEAD15392EA0C0F6C
:100C600018BF93EA0C0F0AD030F0004C18BF31F0D7
:100C7000004CD8D180EA010000F00040704790F0AD
:100C8000000F17BF90F0004F084691F0000F91F051
:100C9000004F14D092EA0C0F01D142020FD193EA17
:100CA0000C0F03D14B0218BF084608D180EA01009F
:100CB00000F0004040F0FE4040F40000704740F07B
:100CC000FE4040F4400070474FF0FF0C1CEAD05249
:100CD0001EBF1CEAD15392EA0C0F93EA0C0F69D0A5
:100CE000A2EB030280EA010C49024FEA402037D010
:100CF0004FF0805343EA111143EA10130CF0004007
:100D00008B4238BF5B0042F17D024FF4000C8B42F6
:100D100024BF5B1A40EA0C00B3EB510F24BFA3EBD6
:100D2000510340EA5C00B3EB910F24BFA3EB9103A6
:100D300040EA9C00B3EBD10F24BFA3EBD10340EA00
:100D4000DC001B0118BF5FEA1C1CE0D1FD2A3FF646
:100D500050AF8B4240EBC25008BF20F001007047FB
:100D60000CF0004C4CEA50207F32C2BFD2F1FF039E
:100D700040EAC250704740F400004FF00003013ACF
:100D800037E792F0000F00F0004C02BF400010F473
:100D9000000F013AF9D040EA0C0093F0000F01F087
:100DA000004C02BF490011F4000F013BF9D041EAA9
:100DB0000C0195E70CEAD15392EA0C0F08D14202DC
:100DC0007FF47DAF93EA0C0F7FF470AF084676E7AF
:100DD00093EA0C0F04D14B023FF44CAF08466EE788
:100DE00030F0004C18BF31F0004CCAD130F0004256
:100DF0007FF45CAF31F000437FF43CAF5FE700BFAE
:100E00004FF0FF3C06E000BF4FF0010C02E000BFD6
:100E10004FF0010C4DF804CD4FEA40024FEA410378
:100E20007FEA226C18BF7FEA236C11D001B052EA2E
:100E3000530C18BF90EA010F58BFB2EB030088BFF4
:100E4000C81738BF6FEAE17018BF40F00100704763
:100E50007FEA226C02D15FEA402C05D17FEA236C45
:100E6000E4D15FEA412CE1D05DF8040B704700BF8C
:100E7000844608466146FFE70FB5FFF7C9FF002823
:100E800048BF10F1000F0FBD4DF808EDFFF7F4FF5C
:100E90000CBF012000205DF808FB00BF4DF808EDF5
:100EA000FFF7EAFF34BF012000205DF808FB00BF18
:100EB0004DF808EDFFF7E0FF94BF012000205DF83A
:100EC00008FB00BF4DF808EDFFF7D2FF94BF0120EB
:100ED00000205DF808FB00BF4DF808EDFFF7C8FFE4
:100EE00034BF012000205DF808FB00BF4FEA40023C
:100EF000B2F1FE4F0FD34FF09E03B3EB12620DD948
:100F00004FEA002343F0004310F0004F23FA02F0B1
:100F100018BF404270474FF00000704712F1610F58
:100F200001D1420205D110F0004008BF6FF000402F
:100F300070474FF0000070477BB972B90029BEBFFF
:100F400000204FF0004106E008BF00281CBF6FF0F2
:100F500000414FF0FF3000F077B8ADF1080C6DE9BB
:100F600004CE002909DB002B1ADB00F0A2F8DDF823
:100F700004E0DDE9022304B07047404261EB410127
:100F8000002B1BDB00F095F8DDF804E0DDE902231F
:100F900004B0404261EB4101524263EB43037047AE
:100FA000524263EB430300F084F8DDF804E0DDE92E
:100FB000022304B0404261EB41017047524263EBAF
:100FC000430300F076F8DDF804E0DDE9022304B025
:100FD000524263EB4303704753B94AB9002908BF33
:100FE00000281CBF4FF0FF314FF0FF3000F02CB84D
:100FF000ADF1080C6DE904CE00F05BF8DDF804E01B
:10100000DDE9022304B07047D0B5FFF709FA0022EA
:101010000B4B06460F46FFF75BFA00F017F8044645
:10102000FFF7DCF90022074BFFF752FA02460B46A6
:1010300030463946FFF794F800F008F82146D0BD55
:101040000000F03D0000F041704700BF4A0011D29F
:1010500012F5001211D20DD56FF47873B3EB625212
:101060000ED44FEAC12343F0004343EA505323FA1E
:1010700002F070474FF00000704750EA013002D193
:101080004FF0FF3070474FF00000704710B500215F
:101090000446FFF703FF20B92046BDE81040FFF7E4
:1010A000B3BF04F10040FFF7AFFF404261EB4101E5
:1010B00010BD2DE9F04786468C460846089E154629
:1010C00074461946002B40F0C1808542B2FA82F284
:1010D00045D94AB1C2F1200300FA02FC9540944080
:1010E0002EFA03F343EA0C0C4FEA154EA8B2230C78
:1010F000BCFBFEF80EFB18CC08FB00F943EA0C43DE
:10110000994528D9EB1808F1FF3704D2994502D93F
:10111000A8F102072B44A3EB0903A4B2B3FBFEFC26
:101120000EFB1C330CFB00F044EA0344A04214D92C
:101130002C190CF1FF3304D2A04202D9ACF1020306
:101140002C44241A43EA07401EB1D44000233460E3
:101150007360BDE8F0874746DDE76346F1E792BB81
:10116000431B01214FEA154EAFB2200CB3FBFEFC2E
:101170000EFB1C330CFB07F840EA0343984561D98A
:10118000EB180CF1FF3004D2984502D9ACF1020003
:101190002B44A3EB0803A4B2B3FBFEFC0EFB1C33F1
:1011A0000CFB07F744EA0344A7424DD92C190CF174
:1011B000FF3304D2A74202D9ACF102032C44E41B52
:1011C00043EA0040C0E7C2F120039540944020FA72
:1011D00003F12EFA03F34FEA154E9040AFB20343EA
:1011E000B1FBFEFC0EFB1C10190C0CFB07F841EACE
:1011F0000041884522D969180CF1FF3004D2884596
:1012000002D9ACF102002944A1EB08019BB2B1FB69
:10121000FEFC0EFB1C110CFB07F743EA01439F4247
:101220000ED9EB180CF1FF3104D29F4202D9ACF178
:1012300002012B44DB1B41EA004193E76046E3E7F0
:101240006146F7E76046A4E76346B8E7834206D9FC
:1012500016B9002108467CE7C6E900E0F9E7B3FAD1
:1012600083F78FB9834201D3724508D8BEEB0204DD
:1012700060EB030301209C461EB9002169E7384654
:10128000FAE7C6E9004CF8E7C7F1200CBB400EFABC
:1012900007F522FA0CF42EFA0CF1BA401C4320FA9E
:1012A0000CF3B8404FEA144901431FFA84FEB3FB24
:1012B000F9F809FB18300B0C08FB0EFA43EA00435F
:1012C0009A4540D9E31808F1FF3004D29A4502D973
:1012D000A8F102002344A3EB0A0389B2B3FBF9F897
:1012E00009FB183308FB0EFE41EA03418E452CD959
:1012F000611808F1FF3304D28E4502D9A8F1020328
:10130000214443EA0040A1EB0E01A0FB02984145B5
:10131000CE46434602D306D14D4504D20138B9EB3F
:10132000020E68EB0403002EA7D0B5EB0E0261EBB2
:10133000030101FA0CFC22FA07F3F9404CEA03031B
:10134000C6E9003199E74046C5E74346D9E70000C2
:1013500000232DE9F7430446084601A9019390466E
:1013600023F030FD019B06460F463BB1C8F8003024
:101370002046C4E9009503B0BDE8F083FFF7BAFA50
:101380008146FFF73BF802460B4630463946FEF7EA
:10139000E7FE05A3D3E90023FFF79AF8FFF7AAFABF
:1013A0000546E5E7AFF300800000000080842E4191
:1013B00010B5044628B101461148BDE810402AF096
:1013C000A7B910482AF0A4F922F096FC204622F092
:1013D00021FD22F089FE044600F068F8014620460F
:1013E00010F012FF014608B10748E6E72BF039FB81
:1013F00003201CF081FBBDE8104004482AF088B9A6
:101400009C870300BC870300D3870300F687030093
:1014100008B506482AF07CF905480AF0D1FE0146D5
:1014200010B104482AF074F9002008BD08880300B0
:10143000B11300009C87030008B51846084B1288BA
:101440001B889A420BD10368B3F5FA7F07DD23F0BE
:10145000FFFBBDE80840014602482AF059B908BD23
:101460000C2604001988030010B530F099F838B93B
:10147000BDE810404FF4C0320023084827F02EBFCB
:101480000023074A1946074833F093F8014600281D
:10149000EED005482AF03CF9EAE700BF30130020FF
:1014A0000C260400000000202888030010B5064C1C
:1014B0000649204627F08CFE4FF4C0320023204618
:1014C00027F00CFF024810BD301300206914000003
:1014D000886803002DE9F84300AF80460E461546A4
:1014E00000F0C2F8C36804461BB943691A78002AA1
:1014F00059D10023E3606368434556F8232009DB94
:10150000484B6361204600F095F84FF0FF30BD4630
:10151000BDE8F883511C616192F80090B9F12D0F7C
:10152000EED1911C616151782D29A16004D192788E
:101530006AB901336360E3E749B93A4B4946284643
:1015400063612EF047F90028DCD0C4F808902846E3
:10155000A1682EF03FF9A36862693A2B01D01146C9
:1015600030BB127812B96268013262602268AAB197
:101570002A783A2A12D02C48026851070ED06D46BC
:1015800088B06A462949C2E90513032342F8103F8F
:1015900000234FF4C25103F01BFDAD46204600F07E
:1015A00049F83F20B3E75A1C42611B788360CEE7BD
:1015B00040783A280BD000232361137813B963686D
:1015C00001336360204600F035F8A0689FE791F88A
:1015D00000C062681348BCF1000F05D1013290458C
:1015E000626004DD56F82210C4E90410E7E7606188
:1015F0002D783A2D04D1204600F01CF8284686E7C5
:101600002268002ACAD0084802685207C6D06D4630
:1016100088B06A460649C2E90513032342F8103F21
:101620006346B6E776CB0300CC0E0020508803005B
:10163000658803000268074B1A604268064B1A600F
:101640008268064B1A60C268054B1A600269054B36
:101650001A607047FC020020F802002008300020C9
:10166000043000200030002000487047E0020020D5
:101670002DE9F04F91B0009302F004030293C2F3FE
:10168000C2030133840705460E46DDF868800392E5
:10169000059340F0E381041D30B1072909D86FF0AC
:1016A0001B0011B0BDE8F08F01F00706341DC6F134
:1016B0000806009B4FF000094FF0040A591E4FF036
:1016C000FF334F460193CB465346CDF810900DB1F2
:1016D000009A22600598002800F3DA809648009A64
:1016E000824203D395488242C0F0D280039AA4EB91
:1016F000050E92074FEA9E0040F1E1804FF0000C8A
:10170000CFE07A2860D84B280ED847285CD8292803
:101710002FD8252855D057D820287DD02338D0F170
:10172000000B4BEB000B77E0A0F14C0CBCF12E0F43
:101730004AD8DFE80CF071494949494949494949C2
:1017400049494C49494949494949495A494C4C5ADE
:101750005A5A714C6E497149184C18494984814C48
:1017600049494C49810000204FF0000B4FF0040A1A
:1017700039E00122A0F12A0C5FFA8CFC02FA0CFC81
:101780001CEA0E0F48D11CF062502ED11CEA020B4D
:1017900042D0013C5444CAF1000C04EA0C04002D70
:1017A00060D0A3EB050CA444B4453FF678AF002805
:1017B00067D1042B48D158F8043B23600423043438
:1017C0002AE0019A013A01924FF0000B24E011F84F
:1017D000010C6C2835D1002011F8023C83466C2B9B
:1017E000C4D14FF0080A5346D3E708F1070828F0A0
:1017F0000708073424F00704F8E802AB35B106986F
:101800002044B0423FF64BAFC4E900AB4FF0000BB1
:1018100008344FF0080A534611F8010F002800F071
:10182000A980BBF1000F7FF46CAF2528F4D14FF0F5
:10183000010B019B013301934FF0040AEBE758467B
:1018400092E700208346A4E7082B40F08A8008F145
:10185000070828F00708F8E80223C4E90023082352
:101860000834D9E768B9042B02D108F10408A5E7C8
:10187000082B76D108F1070828F0070808F10808B6
:10188000EDE7059A013A059258F8042B00921EE7FD
:10189000039A900744D54FF0010CA4EB050E4FEAD4
:1018A0009E00BEF5007F1BD3254940F27B222548D0
:1018B0002AF066FA40F27B2121482AF05AFA0F2FCB
:1018C00010D8002D40D007F140020DEB020C019A18
:1018D0000CF8200C0CF8102C0498013004901EE039
:1018E0000F2F08D916494FF4207216482AF048FAEB
:1018F0004FF42071E0E7D5B107F140020DEB020E85
:10190000019AC0B20EF8200C0EF8102CBCF1000F9A
:10191000E2D060F07F000EF8200C09F101090137D8
:10192000C5F108024FF6DA7E0434069274E7BCF182
:10193000000F09D00136F2E7985A0300381104006D
:101940008E880300BC880300029802360028E6D186
:101950000098CDE906312DF04BFFDDE90631064454
:10196000DDE7404940F2C5223F482AF009FA40F23B
:10197000C521A1E7631BB3F5806F08D3394940F255
:10198000D12239482AF0FCF940F2D12194E71DB95F
:10199000A6F10804E01884E6029A9B0828602B70E0
:1019A0009DF81030C2B1EB7085F80290B9F1000FCC
:1019B00005D0002208A8C5F1010C97420ED14FF0C6
:1019C000000AC5F101030DF1200801930DF1300B60
:1019D000574512D1601B64E66B70E5E710F8013BD8
:1019E000190608D504EB0C0EB64503F07F033FF64D
:1019F00056AE04F8013B0132DFE7B9F1000F03D026
:101A000098F90020002A17DB029BD3B11AF80B20AB
:101A100004F8012B0022019B98182044B0423FF6A5
:101A20003EAE98F80000009904F8010B204603929E
:101A30002DF034FF039A14440AF1010A08F1010859
:101A4000C6E798F8002055F822300093029B0098D2
:101A500045F822302DF0CCFE421CDCE76FF00D0083
:101A60001FE600BF8E880300BC8803002DE9F04FFD
:101A700095B000AF0446C7E90812D7F878B0BB614B
:101A800050B970494FF465726F482AF079F94FF4F4
:101A900065716C482AF06DF9CBF3C0033B613B6A7A
:101AA00053B903784678807800EB830020443B6A82
:101AB0009E421AD8031B3B6294F802A0E378564674
:101AC0007B61BAF1000F02D01BF0010F17D17B69C7
:101AD0005BBB7B6A1BB12046BA69396A98473D6A8D
:101AE00028465437BD46BDE8F08F451C28462DF0EA
:101AF0007FFE3B6A0130013328443B62D7E76368CD
:101B000094F80080FB617B6A4FEA8802FA6004EB7C
:101B10008808002B40F01781C14600263D6A0AEB79
:101B20000803994553D1D04414E01BF0020FD0D0E4
:101B300094F800804FEA8803FB60636804EB880830
:101B4000FB617B6A002B40F08B803D6ABAF1000F8D
:101B500052D156461BF0050F0CBF022301237B62B6
:101B60007B6908EB430A0BF002033B62D045B7D018
:101B700018F8021B18F8013C54F82390334B994590
:101B800002D3334B99453DD33B69002B47D0F869CD
:101B900029F009FD002842D02E48036813F0060FF3
:101BA00013D0E9468AB06A462B4B5361FB69C2E900
:101BB00006314FF400731384284B42F8103F002382
:101BC0004FF4125103F004FACD46023DCEE719F866
:101BD000012B7B6254F822002DF00AFEFA6F7B6A1B
:101BE00001303AB1D7F8802096423EBFFA6F22F812
:101BF00016000136054494E71BF004061CBF7E6AFC
:101C0000D044A7E73B6923B1F86929F0CCFC002850
:101C1000C2D11BF0010F05D17B6AED1AA6E73B6A22
:101C2000002BA3D048462DF0E3FDFB6F43B1D7F85E
:101C300080309E423FBFFA6F431C22F816300136B7
:101C4000054493E78E880300BC880300985A03007C
:101C500038110400B00E0020D488030004000001F5
:101C6000BAF1000F74D01BF0040674D0D1460026E0
:101C700007F14000524641462DF010FE7B69D044EA
:101C80005B00BB607B6908EB43037B610BF00203E5
:101C90007B607B69984560D123781BF0020F7B61E4
:101CA000637818BF002106EB030208BF4FEA590111
:101CB0001BF0010FD2B240F0CE801BF0040F14BF16
:101CC000484600203B61A37894F803B0FB61627042
:101CD000A070E1702046BA69F9687B6A9847051ED2
:101CE000FFF6FEAE7B69494623703B69BA696370B3
:101CF000FB6984F803B0A37007F140007B6A984742
:101D0000B0F10009C0F2D4803B6A4046A3EB0A015F
:101D1000FB68BA69C91ABB68C91A7B6A9847002868
:101D2000C0F2C8804FF0000B05EB090808EB000576
:101D300007F1300AB345C0F090800021BA69084627
:101D40007B6A9847CCE64FF0000907F1300091E735
:101D50005646D14692E7B14690E718F8021B564B1B
:101D600018F8015C54F825209A4202D3534B9A424A
:101D700014D33B6923B1F86929F015FC002888D1F8
:101D80007B68002B47D00F2E3BD94D494FF4896219
:101D90004C4829F0F5FF4FF489617AE63B692BB195
:101DA000F86929F000FC00287FF473AF1BF0010FE5
:101DB0000AD00F2E25D9424940F23E42414829F02F
:101DC000DFFF40F23E4164E61BF0040F3FF461AFD9
:101DD000B9F10F0F08D93A4940F24142394829F088
:101DE000CFFF40F2414154E609F1280307F12801F1
:101DF00009F1010203EB010909F8105C5FFA82F9AD
:101E000047E706F1280307F12801721C5E1806F85F
:101E1000205CD6B23DE7B9F10F0F08D9284940F24E
:101E20004B42284829F0ACFF40F24B4131E609F122
:101E3000280307F1280009F10102181807F15003DF
:101E400009F1020953FA82F200F8101C5FFA89F9CD
:101E500002F8105C1DE7002034E71BF80A3054F844
:101E6000239087F82F30FB6FFBB133F81B800121E3
:101E7000BA697B6A07F12F00984700281ADB0544EE
:101E8000B8F1000F06D148462DF0B2FC00F1010870
:101E90001FFA88F841464846BA697B6A9847002885
:101EA00008DB05440BF1010B44E7D7F87C80DEE743
:101EB0004D4615E6054613E6985A0300381104000E
:101EC0008E880300BC880300014B1860704700BF78
:101ED0000003002030B5002587B0CDE9030104469A
:101EE000009503A90548059500F0D0FBDDE9043015
:101EF0009842B8BF255407B030BD00BFE7B6020016
:101F000070B589B306680122304629F05DFC0146B0
:101F10000446304629F020FCC30708D41349AF22F9
:101F2000134829F02DFFAF21104829F022FF214648
:101F3000304629F027FC251829460022304629F092
:101F40000BFC2D1AAC4206D00849B722084829F0EC
:101F500017FFB721E8E72146304629F019FC214652
:101F6000BDE8704029F055BD70BD00BF88890300F1
:101F7000BC8803002DE9F8430F4606681446B26892
:101F80004B1EB2F5004F34BF042108213B4010D056
:101F9000C7F1000909EA0709494503F1FF3028BFE5
:101FA000494618420CD11F46BCB900252846BDE859
:101FB000F8838F420FD82146BDE8F84329F06BBD66
:101FC0002C492D484FF4A27229F0DAFE4FF4A27189
:101FD000284829F0CEFE9946E6E7B2EBD40FE4D9C3
:101FE000E319591A104629F0F9FB0146304629F049
:101FF0004FFC80460028D8D0B36809EBC005B3F584
:10200000004F34BF042308231D4435447B1E1D4468
:102010007F423D40A5EB09052946304629F0D4FB17
:102020002C44073424F00704A41B804507464FEADC
:10203000E40408D202464146304629F063FC41469A
:10204000304629F0A4FC3946304629F09BFB384441
:10205000844208D239463046224629F053FC2146B4
:10206000304629F094FC01223946304629F090FB95
:102070009CE700BF88890300BC880300B2F5802F6D
:10208000F8B50CD2042A20D83B494FF4F9723B48EA
:1020900029F076FE4FF4F971374829F06AFE0823DB
:1020A000D21ACC1D114424F0070421F00701091BAA
:1020B00017294FEAD1060AD82F4940F2FB122F48C0
:1020C00029F05EFE40F2FB11E6E70423E8E7002773
:1020D000046031463046A660E76029F088FB0121A4
:1020E00085000246304629F079FB1B35ED0828446F
:1020F000B04234D83B46384604F10C019A4237DAF4
:102100002A462046002129F05BFB002320461A4680
:10211000194629F02CFB771B19462046012229F08D
:1021200037FB3A46294629F04BFB2B46002229462D
:10213000204629F01CFB3146204629F041FB3B4656
:1021400031462046002229F012FB3146204601226A
:1021500029F01EFB2946BDE8F84029F018BC0649C5
:102160004FF40372054829F00BFE4FF4037193E717
:1021700041F8040F0133C1E788890300BC880300DC
:102180002DE9F84F0446A38B08461907164612D4CA
:10219000022803F0070162D1204629F0AEFC88B185
:1021A0000138042800F22181DFE810F059001F01F6
:1021B0007E00C400F10001280CBF43F0100143F081
:1021C0002001A18304F1140025F0BAFF002800F0DB
:1021D000A98086F31188BFF36F8FBDE8F88F03F0F5
:1021E0000702501F01281ED80020062A2768C4E9CC
:1021F000000014D13A4603E0E08B0130E08312681E
:10220000002AF9D123F0070343F002022046A283FB
:1022100029F073FC90B342F02002A2832EE023F059
:1022200007039AB2F2E7042A33D123F007039AB2E4
:102230002046A28329F061FC10B142F02002A28363
:10224000A38B03F00709894540F0D880A18BCA060B
:1022500040F11E8121F01003A38301F00701D4F89F
:102260001880A38BB8F1000FB9DA0022276823F099
:102270000703C4E9002243F00103A383A38B03F007
:102280000709894540F0BB80002FDFD00025AA4612
:102290003EE0844940F21B12834829F071FD40F270
:1022A0001B11804829F065FD41B17E494FF4AB72A6
:1022B0007D4829F065FD4FF4AB71F2E7236843B91F
:1022C000784940F25712784829F05AFD40F25711E8
:1022D000E7E723691D6845B972494FF4AD7272484A
:1022E00029F04EFD4FF4AD71DBE70F4688464FF005
:1022F0000609A38B23F0070343F006039BB2A383D5
:10230000A268002A7DD1002F7ED1002D9ED0BA4632
:1023100043F0080304F1140B5846A38325F010FF83
:10232000002873D16149C2225F4829F029FDC221EA
:102330005E48B7E7022908D05A4940F25D125A4870
:1023400029F01EFD40F25D11ABE7E78B47B155491F
:102350004FF4AF72544829F013FD4FF4AF71A0E76A
:1023600023695D6845B94F4940F261124E4829F032
:1023700007FD40F2611194E7A38BB84623F00703F1
:1023800043F004039BB24FF00409A383B8E701298B
:1023900008D044494FF4B272434829F0F1FC4FF49D
:1023A000B2717EE7236843B93E4940F265123E4868
:1023B00029F0E6FC40F2651173E723699D6845B991
:1023C00038494FF4B472384829F0DAFC4FF4B4714C
:1023D00067E70027A38BB84623F0070343F0050304
:1023E0009BB24FF00509A3838AE72E4940F26B1296
:1023F0002D4829F0C5FC40F26B1152E7002700255B
:102400007EE74FF0010A83E7924681E786F3118861
:10241000BFF36F8FBAF1000F17D14FBB15B1204634
:102420002349A8474FF02003EFF3118683F3128866
:10243000BFF36F8F584625F075FE08BB1B499422E9
:10244000194829F09DFC942172E7A1680029E4D085
:102450000E680029E1D043464A462046D1F804A040
:10246000D0471EB1336831461E46F2E73346FAE7DD
:10247000394643464A4620463F6829F06AFBCCE786
:10248000584625F06BFEA38B23F00803A383DDE6FB
:102490008B067FF597AE21F02003A38301F007019F
:1024A0007AE600BFA9890300BC880300CB8903003A
:1024B000B5240000F8B504460D4600F114064FF0AF
:1024C0002003EFF3118783F31288BFF36F8F304639
:1024D00025F028FE40B90A490A48942229F050FC08
:1024E0009421074829F045FC304625F037FEA561C8
:1024F0003A462046BDE8F8400121FFF741BE00BF43
:10250000CB890300BC8803002DE9F04704460F4641
:1025100029F00FFB051E5CDB04F114094FF02003CA
:10252000EFF3118A83F31288BFF36F8F484625F0CB
:10253000F9FD804638B932499422324829F020FC0E
:1025400094212F483AE0484625F008FE4FF6FF72E6
:10255000E38BA68B934206F007063DD0022E0ED1E8
:1025600035460133E383484625F0EAFD002839D19A
:102570002349C222234829F003FCC221E1E7062EA9
:1025800013D8DFE806F0092C1212090409006FF0D5
:1025900085054FF00008E6E700233B6063687BB9E0
:1025A000C4E900777EB13546F3E7174915484FF483
:1025B000E47229F0E5FB4FF4E471134829F0D9FBEC
:1025C0001F606760EEE7524602212046FFF7D8FD04
:1025D00035462846BDE8F0876FF00A05D9E76FF069
:1025E0000405D6E78AF31188BFF36F8FB8F1000FA7
:1025F000EFD0002332463946204629F0AAFAE8E710
:10260000CB890300BC880300A989030008B5426890
:10261000034602F00302022A81600AD0032A4FF027
:10262000000103D0012A0AD1596006E018685960F8
:1026300008BD186800225A6050B90020F8E7064922
:102640000648452229F09CFB4521034829F091FBCF
:1026500028F030FDF1E700BFF8890300BC880300D3
:1026600010B5094C0A44914200D110BD11F8013B4C
:1026700058400309E35C0001C0B243401809205CE4
:102680001B01DBB25840EEE71B8A03002DE9F04F37
:1026900081468B4617461C46002595B0387808B908
:1026A000284657E37B1C2528039306D05946C84784
:1026B0000028C0F24F830135FBE1182200210EA84B
:1026C0002DF0F7F87B78252B7DD0002398469E4689
:1026D0009C461E46781C014610F8012B2B2A00F060
:1026E000A18000F29880202A00F09F80232A00F029
:1026F0009F802BB19DF8403043F040038DF840306F
:10270000B8F1000F05D09DF8403043F020038DF85C
:102710004030BEF1000F05D09DF8403043F010036B
:102720008DF84030BCF1000F05D09DF8403043F0EB
:1027300008038DF840302EB19DF8403043F004037B
:102740008DF840309DF8403003F04400442803D118
:102750006FF386138DF840309DF840302A2A43F0FD
:1027600080038DF840307FD19DF841204B1C42F012
:1027700001028DF841201A782E2A0CBF0121002178
:102780009DF8412061F341028DF8412078D15A78BB
:102790002A2A6ED000224FF00A0C0133194611F894
:1027A000010BA0F13006092E40F295809DF84010F3
:1027B0001292C1F3400040EAD2700A4660F341022F
:1027C0008DF840205CE0BA1C03928DF843309DF8F0
:1027D0004130DA0740F12E8154F8048BB8F1000F34
:1027E00007DA9DF84020C8F1000842F004028DF895
:1027F00040205E0740F1278154F804ABBAF1000F86
:1028000080F226819DF841306FF341038DF841300D
:102810004FF0FF3A1CE12D2A0DD0302A7FF469AF2A
:10282000012358E74FF0010C55E74FF0010E52E736
:102830004FF001084FE701264DE703460EFB026209
:10284000303A184610F8016BA6F1300CBCF1090FB4
:10285000F3D999428FD09DF840101192D20F62F3B4
:1028600041018DF8401086E70B4600224FF00A0E1A
:10287000E7E79DF84120023342F004028DF8412041
:102880001A786C2A47D02BD8682A31D06A2A4BD0C4
:102890004C2A51D01A4612F8013B782B03928DF83E
:1028A00043309DF8412000F2BE806D2B51D8692B3A
:1028B00000F2B980572B67D8412B03D0453B022B40
:1028C00000F2B18004229DF8423062F302038DF8D9
:1028D0004230012373E00CFB02020B46303A5DE705
:1028E000742A25D07A2AD5D106219DF841200CE002
:1028F0005A78682A9DF8412006D1012161F3C60269
:102900008DF841200233C5E7022161F3C6028DF83C
:1029100041200133BEE75A786C2A9DF8412001D14D
:102920000421EBE70321F0E705219DF84120ECE7C6
:1029300007219DF84120E8E7BDF8402022F4F0424D
:1029400022F0020242F4804242F00202ADF840203E
:10295000DFE76E3BD9B201238B4040F282410B424C
:1029600037D113F0240F51D1D8075CD503219DF83E
:10297000423061F302038DF8423002F07803A3F194
:1029800040014B424B411AE00120A3F15801C9B26A
:1029900000FA01F111F4624F94D140F60106314280
:1029A0001DD111F4043F3ED09DF8423060F3020384
:1029B00002F07802402A8DF8423034D000239DF88E
:1029C0004020C2F340010B4363F341028DF84020E5
:1029D000FDE602219DF8423061F30203E8E70220A0
:1029E0009DF8421002F0780260F30201402A8DF84F
:1029F000421002BF9DF8401041F001018DF84010D7
:102A0000632BDBD1131E18BF0123D8E703219DF8E8
:102A1000423012F0780F61F302038DF8423014BF98
:102A200001230023CBE79DF8403043F001038DF8EC
:102A30004030C3E79DF94020002AACBF4FF0FF387B
:102A4000DDF84480D5E698077FF5E2AEDDF848A0D2
:102A50000023CDE911339DF842309DF8411003F079
:102A60000703012BC1F3C30133D1CB1E042B04D8C0
:102A7000DFE803F0214646212100236801294FEABF
:102A8000E372CDE90E321CD19DF93830DA17CDE969
:102A90000E3204349DF8403013F0030650D03A460D
:102AA00059464846039B29F0EAF80028C0F25281B3
:102AB0000544039FF2E554F8043BDA17CDE90E32E2
:102AC000E8E70229E5D11AB243F3C033CDE90E237A
:102AD000DFE7022B24D1CB1E042B04D8DFE803F060
:102AE00018101018180001294FF0000254F8043B88
:102AF00014D00229CDE90E32CCD19BB20E93C9E796
:102B0000073424F00704F4E80223CDE90E23C1E7DB
:102B100054F8043B0E9300230F93BBE7DBB2CDE7E1
:102B2000042B08D1073424F00704D4E90023083427
:102B3000CDE90E23AEE7032BACD154F8043BDDE71F
:102B40009DF843007828B4D862281CD825283FF483
:102B5000ADAD5828ADD1DDE90E010DF1360300937E
:102B600010AA08AB29F045F8BAF1000F074680F229
:102B70009980002F9DD00DF13603D81B002E00F058
:102B8000C0800130BDE06338152892D801A252F808
:102B900020F000BF692C00007B2C0000B32A00004D
:102BA000B32A0000B32A0000B32A00007B2C0000E7
:102BB000B32A0000B32A0000B32A0000B32A0000A1
:102BC000072D00009F2C0000C52C0000B32A000038
:102BD000B32A0000ED2B0000B32A00009F2C000058
:102BE000B32A0000B32A00009F2C0000BAF1000FA6
:102BF0000E9F35DB514638462CF001FE07EB000AEC
:102C0000002F3FF456AF00269DF8423013F010021B
:102C1000059200F0928002305B06119A48BF129B29
:102C2000104448BFC018B8F1000F049240F39F80D1
:102C30009DF84020A8EB0008C2F3800350070693DC
:102C400000F19580510640F188803EB159463046EA
:102C5000C84700287EDB069B01351E4630227DE0FA
:102C600038462CF0C5FDC9E70E9B002601208DF8E3
:102C7000203008AF0DF1210AC6E719075ABFC3F388
:102C800000135E012B26DDE90E23002BBFF663AF98
:102C9000524263EB43032D26CDE90E235BE700266A
:102CA00059E700269DF840200DF13603DB1B6FF33A
:102CB00086129A458DF840207FF65BAFAAEB03039E
:102CC000119356E70E9890B30DF13603009300214F
:102CD00008AB10AA28F08DFFBDF84230BAF1000F02
:102CE00003F0EF0343F4F04343F010030746ADF85D
:102CF0004230D6DA00283FF4DCAE00260DF1360370
:102D0000181A9A4680E70E9B07293FF6D2AEDFE8F5
:102D100001F00C04060C08080C0C1D70C9E61D809F
:102D2000C7E6EA17C3E90052C3E61D60C1E62F4FAC
:102D3000064607F1050A052066E71A0748BF013075
:102D40006AE71046079306925946C847DDE906230D
:102D5000002804DA15B0BDE8F08F2022434619465A
:102D6000002903F1FF33ECDC454498466D1A2EB17F
:102D700059463046C8470028ECDB01359DF8423003
:102D8000DA0601D41B0705D559463020C84700286C
:102D9000E0DB0135059B33B159469DF84300C84738
:102DA0000028D7DB0135049E2E4405E0594630202B
:102DB000C8470028CEDB0135731B002BF6DC5346D9
:102DC0003A465946484628F05AFF0028C2DB0544D7
:102DD000A844A8EB0503002B7FF76BAE59462020D3
:102DE000C8470028B6DB0135F3E700BF2B8A030094
:102DF0002DE9F34180460E46154600272A4601A9D3
:102E0000404628F053FF04460246314601982CF014
:102E100045FD2D1B2744264401D0002CEED1394618
:102E2000404628F060FF40B106490748492228F093
:102E3000A7FF4921034828F09CFF384602B0BDE8AF
:102E4000F08100BF318A0300BC8803002DE9F34103
:102E500080460D46164600273246404601A928F016
:102E600057FF04462DB10246019928462CF016FD65
:102E70002544361B274401D0002CEDD1394640466D
:102E800028F062FF40B1064906488E2228F078FFFC
:102E90008E21034828F06DFF384602B0BDE8F0816E
:102EA000318A0300BC88030038B50D460446202251
:102EB00000212CF0FEFC0022EB68E361AB68A3610B
:102EC0002B6823626B68A26263622A6923B1591E70
:102ED000194208BF42F0010222610122002104F1DF
:102EE0002C0032F023FC40B1044905482E2228F082
:102EF00047FF2E21014828F03CFF38BD598A0300C6
:102F0000BC8803002DE9F04F002689B0CDE90123EC
:102F1000436A04468B428846B2460596079650D3CC
:102F200000F114074FF02003EFF3118B83F31288A5
:102F3000BFF36F8F3846D94625F0F4F840B94549BC
:102F40009422454828F01CFF9421424828F011FFA4
:102F5000384625F003F9079A2AB13146204628F071
:102F6000F0FF0023079306A9204628F016FF0699D4
:102F7000054641452ED32268236A204613F82210C5
:102F800003EB820A21F0030103F822102168424674
:102F900028F027FFE3682060984216D000253846C5
:102FA00025F0CEF840B389F31188BFF36F8F0599F0
:102FB00029B1A2690AB12046904700230593002D4C
:102FC000B0D1504609B0BDE8F08F236943F0080343
:102FD0002361E3E718B1204628F01DFFDFE7DDE9B4
:102FE000013213432ED0039132F03DFB039948BBCD
:102FF000384625F0A5F830B91649C222164828F0FF
:10300000BFFEC221A1E78BF31188BFF36F8F04F1DC
:103010002C00DDE9012325F0F7FC05464FF02003E5
:10302000EFF3118983F31288BFF36F8F384625F0D1
:1030300079F8002883D0B5FA85F5384625F08EF862
:103040006D09ACE7204607AB05AA266828F002FF09
:103050000546A4E7CB890300BC8803002DE9F041B5
:103060000446C36908460D46984704F1140607460E
:103070004FF02003EFF3118883F31288BFF36F8FB3
:10308000304625F04FF840B914499422144828F0EE
:1030900077FE9421114828F06CFE304625F05EF84A
:1030A0002B783A4643F001032B706168204628F0E4
:1030B00098FE6060204628F05FFF304625F040F81B
:1030C00030B90649C222064828F05AFEC221E1E77B
:1030D00088F31188BFF36F8FBDE8F081CB890300BF
:1030E000BC8803002DE9F843044600F114074FF0B3
:1030F0002003EFF3118883F31288BFF36F8F3846F4
:1031000025F010F8054640B92F4994222F4828F0A1
:1031100037FE94212C4828F02CFE384625F01EF866
:103120002369A26813F0080F02D163689A4200D99C
:10313000636A9B1A002B38D0216A11F8223001EB08
:10314000820913F0030033D0022803D151F8226022
:10315000B60805D1D80718D44846E369984706460B
:10316000A1683246204628F03CFE3146A060204649
:1031700028F045FE384624F0E3FFD8B91249C222B0
:10318000124828F0FDFDC221C4E743F0020301F814
:103190002230E3694846A5689847294602462046FA
:1031A00028F01FFE0025A060E4E71D46A946E1E7E0
:1031B0000546FBE788F31188BFF36F8F002D96D18A
:1031C0004846BDE8F88300BFCB890300BC880300F4
:1031D0002DE9F0410446C36908460D46984704F1BD
:1031E000140706464FF02003EFF3118883F312888B
:1031F000BFF36F8F384624F095FF40B921499422E0
:10320000214828F0BDFD94211E4828F0B2FD384623
:1032100024F0A4FF2B786FF300032B7023699B0726
:1032200005D5E268236A03EB82039D421BD12B780C
:103230006FF341032B70D4E90231994204D1324635
:10324000204628F0CEFDA0603146204628F0D7FD6C
:10325000384624F075FF58B90A49C2220A4828F0B6
:103260008FFDC221D0E72B6866F39F032B60EFE749
:1032700088F31188BFF36F8F04F12C00BDE8F04193
:1032800025F086BBCB890300BC880300044608B543
:103290004FF02002EFF3118382F31288BFF36F8F98
:1032A00020F03EFA204606F0ABFC034828F030FA46
:1032B00005F0EEFEFCE700BF7F8A030008B5430976
:1032C0000CD0012B1BD01249124840F2472228F0A3
:1032D00057FD40F247210E4828F04BFD4FF0FF33D9
:1032E000C340DA07EFD50C4B03EB8003D3F8002281
:1032F00022F0E04242EA0171C3F8001208BD4FF625
:10330000FF7300F01F00C340DB07DCD5034BEBE786
:10331000A88A0300BC88030000258450002884503C
:1033200070B54FF02003EFF3118683F31288BFF3DB
:103330006F8F0124154B164DC3F80045022303215E
:10334000C5F8D0360020FFF7B9FF20460321FFF76C
:10335000B5FFC5F804472146C5F804492120C5F842
:10336000004BFFF7ABFF21462020FFF7A7FF2146C8
:103370002520FFF7A3FF21462420FFF79FFF86F3B8
:103380001188BFF36F8F002070BD00BF0010005088
:1033900000400050052370B5144D154E2C780134B3
:1033A000B4FBF3F303EB8303E41A30F0BBFC114AE4
:1033B000137823B156F82430C01A072814D94FF0D7
:1033C0005023D3F8141141B10021C3F81411D3F8DC
:1033D00014312C700CB9012313702C7830F0A2FC3E
:1033E00046F82400012070BD0020FCE7D36F0020C8
:1033F0000C300020D26F002048B1054B054A1B68F5
:10340000B3FBF2F35843044B43F0010318477047F2
:103410004009002040420F0070640300062807D1D5
:103420000122044BC3F80025BFF34F8F20BFFDE7F7
:10343000704700BF00400050F0B583B000AF381DAA
:1034400022F056FD354B984264D120F0F1F8041E6D
:1034500016DA387922F052FD314803685B0755D0FF
:103460006D4688B06A462F4BC2E90534032342F803
:10347000103F00234FF4C25101F0AAFDAD4645E0D4
:1034800040F60703284D7C71AE68FB8074687B684A
:1034900014B96FF05704DFE708212846234AA047F4
:1034A000041ED9DB3369002BF3D001220821284602
:1034B0009847041ED0DB01233D791D4AAB40C2F87A
:1034C0000435FB7978790F2B0AD91A491A4840F24A
:1034D000E71228F055FC40F2E711164828F049FCA5
:1034E0009E001FF0E1FE48B91449134840F24E22F5
:1034F00028F046FC40F24E211048EFE7104B45F013
:103500000045C0F880509D51002CA5D120460C37B5
:10351000BD46F0BD6FF012049EE700BF0000AD0B8A
:10352000100F0020498B0300E85B0300E135000029
:1035300000700150DF8A0300BC880300118B030078
:1035400080A1025070B5049EC6F30744F5B2C6F3DD
:10355000072630461FF092FE0F2C0AD919491A4847
:1035600040F2E11228F00CFC40F2E111154828F07D
:1035700000FCA400E4B248B9144913484FF4177290
:1035800028F0FEFB4FF417711048F0E70022104BB3
:10359000C0F880201A5101230E4AAB40C2F808350A
:1035A000304620F063F8284622F0A8FC0A4B9842E7
:1035B00007D00A490448742228F0E2FB7421074826
:1035C000D5E770BDDF8A0300BC880300118B0300C0
:1035D00080A00250007001500000AD0B718B030001
:1035E0002DE9F341144683681B6943B932493348D6
:1035F000CA2228F0C5FBCA212F4828F0BAFB0022B6
:10360000984705460028F1D1C4F3072840461FF02B
:1036100063FEB4F1805F07464FEA146609D3284978
:1036200040F2E712254828F0ABFB40F2E7112448AE
:10363000E3E74046B6001FF037FE48B9214940F2A3
:1036400063221E4828F09CFB40F263211D48D4E70A
:103650001D4BC0F880509D514046C4F307461FF0F3
:103660000DFE0F2E08D9164940F2E112134828F03A
:1036700087FB40F2E111DAE7144AB600E3B2F6B292
:1036800043F00043935140B90E494FF412720B4876
:1036900028F076FB4FF41271D8E7C0F880300C4B5D
:1036A00007F13202009340462B46019452001FF06E
:1036B000D7FE02B0BDE8F081718B0300BC88030027
:1036C000DF8A0300118B030080A1025080A002500A
:1036D0004535000022F0F0B82DE9F7430F460646C5
:1036E0000821C06A28F02DFD80463C68DFF848902C
:1036F000241A3C6004EA0905AC4203D8002003B058
:10370000BDE8F08308236A462146304628F06BFC6A
:103710000028F4D16946304628F01DFD40B1BDF8BF
:103720000230BDF8042005EA090513441D443C603D
:10373000A4EB0804E0E700BF0000FFFF2DE9F04F15
:103740008FB0044600AF00F11408404631F0B5FFD9
:10375000A06A8368DB689847E062A8B9AA48036852
:103760005D0706D16FF0150528463C37BD46BDE81C
:10377000F08FA64B7B6302234FF482513B6307F12A
:10378000300228F0DBFCEDE7A06A8368DB6898472D
:103790000368013B1F2B05D99B4803685C07E1D0F8
:1037A0009B4BE7E7A06A216807F114022FF040FF66
:1037B00028B1954803685907D4D0964BDAE7A58914
:1037C0002DB1BB69B5FBF3F203FB12552DB18E4849
:1037D00003685A07C6D0904BCCE7E389012B05D884
:1037E000894803685B07BDD08C4BC3E7E36A3D6043
:1037F00093F804A04FF0FF334FF0FF32404624F01F
:10380000BDFE0821E06A28F09CFCA9460646E38933
:103810001FFA85FB5B451BD8E3894B4500F070819F
:103820005B450BD13968082352462046891B28F096
:103830001FFC18B93946204628F0E3FB39462046DC
:10384000FFF74AFF054608B3404624F04DFF8BE7DB
:10385000A1892B04891B13FA81F1524608232046C3
:10386000396028F005FC78B13946204628F0C9FBBC
:1038700009F1010908235246204639681FFA89F9DF
:1038800028F0F6FB0028C7D00135C0E73B684FEAB7
:1038900013494FEA09496360C4F80890D4E9011359
:1038A00099420FD3082320463A1D28F09CFB054679
:1038B0000028C9D13B1D13F8012B924545D1013594
:1038C000082DF8D1636839461B0C1B0420463B6069
:1038D00028F097FB52462046A389396828F0C8FB98
:1038E000051EB1DB636800F0AF804FF6FF7A06EB90
:1038F0000309A3891FFA89F29B1B9A42C7F800901B
:103900003DD300224048036803F00703002A50D04B
:10391000022B09D9424B4FF486517B63022307F1F6
:1039200030023B6328F00AFC636839461B0C2046D2
:103930001B043B6028F065FB2046396828F0BDFB7E
:103940000546002D00F09E807EE72046391D28F0B8
:1039500002FC626810B9921B62609FE73D89F9889A
:10396000E06AC4F80890294428F0EBFB48449042F0
:10397000A060F0D1002DEED06FF01C05BBE0082355
:103980004946204607F10C0228F02DFB0546002889
:103990007FF45AAF204607F10C0128F0DCFB20B180
:1039A000BB89534501D13B8A0BB1B144A1E7012248
:1039B000A8E7022B09D91B4B4FF486517B630223E6
:1039C00007F130023B6328F0B9FB2046616828F01C
:1039D00074FB054600287FF437AF6368124AA1895B
:1039E00013400B44A3EB46031A40A260636004F14A
:1039F0002C0204F50B7142F8043F9142FBD12046A2
:103A000028F097FC9CE700BFC80E0020C58B030080
:103A1000E78B0300048C03001C8C0300308C030034
:103A2000538C0300688C03000000FFFF52462046C1
:103A30005B1A28F01DFB051EFFF606AF08D0E26AF0
:103A4000A36812681344A360D4E901318B42EDD816
:103A50006168A38901EB46029A427FF472AFDFF8F6
:103A60004491A36801EA090293423FF46AAF2046F9
:103A700028F023FB054600287FF4E6AE636803EADE
:103A80000903A3604FF6FF794FF40072FF2104F1A0
:103A900030002BF00EFF6368FB60204607F1200228
:103AA00007F10C01D7F80CA028F08DFB0546002883
:103AB0007FF4CAAE388C28F02AFB3B8C4B450CD0E7
:103AC00004EB80052B6B013307D1204607F1200161
:103AD00028F041FB08B1C5F830A06368FA6893424A
:103AE000DBD1A2899BB2A2EB460293420BD12046C6
:103AF00028F00AFC0546404624F0F6FD35B133E6D1
:103B00006FF02C05A0E6404624F0EEFD0123DFF81F
:103B100098802374D8F8003003F00703022B3FD9B4
:103B20006D4688B06A46E189A38904261F48D3619F
:103B3000C2E905014FF40351404642F8106F28F0E6
:103B4000FDFAD8F80030AD4603F00703022B27D961
:103B500088B06A466368164940465161190C9BB2A9
:103B60009161D3614FF4035142F8106F28F0E6FAE7
:103B7000D8F80030AD4603F00703022B10D988B007
:103B8000A3686A460B4940465161190C9BB291618A
:103B9000D3614FF4035142F8106F28F0CFFAAD46CD
:103BA0000025E1E50000FFFFC80E00208F8C030018
:103BB000A68C0300B88C03002DE9F04F1E46037C51
:103BC0000446884691468DB09BB9724803685B07EE
:103BD00005D16FF00C0528460DB0BDE8F08F6E4B97
:103BE0004FF482510B9302230AAA0A9328F0A6FAF3
:103BF000EFE7C26A0821104628F0A3FA8246314650
:103C0000104628F09EFAA3890746A3EB8A03B34225
:103C1000C0F0BC8056B9404628F079FA0C3054F810
:103C20002030039301334CD10025D4E7B9F1000FC4
:103C300000F0AC80404628F06AFA0C3054F820308E
:103C4000039301333DD1002F6DD104F1140A4FF0DD
:103C5000FF334FF0FF32504624F090FC0023DFF892
:103C60003CB1E289934200F08E80D4E901217818BA
:103C700082425BD3FF2306A8ADF81A108DF81E30E0
:103C8000ADF81880ADF81C6028F04FFA3346A168F3
:103C90004A46204628F0E1FA31460546E06A28F017
:103CA00050FAA3680344A3603DB9204606A928F052
:103CB0000EFB002814BF05463546504624F014FD7F
:103CC00089E7204604AA03A9DDF80CB028F07BFAA6
:103CD000054600287FF47FAFBDF81030434506D07D
:103CE0006268039B9A42ECD1002E9DD0ABE7204640
:103CF00004A928F030FA0028F2D0BDF81200BDF86F
:103D000014306EB1B3429ED14FEA1B410904014405
:103D100033464A46204628F081F9051E93DC5AE7CF
:103D2000002B90D180E75744BFB28EE70821E06AAC
:103D3000019328F006FA4FF6FF71ADF81810002134
:103D4000ADF81C101118ADF81A10A18902EA0B0287
:103D50000A44101A606006A828F0E7F906A9204670
:103D600028F0B5FA2046211D28F04BF9626820465C
:103D700002EA0B02A26028F0DCFA054600289CD17A
:103D8000019B01336DE76FF01B0596E76FF015059A
:103D900021E700BFC80E0020B18B03000000FFFF29
:103DA0002DE9F0471F46037C88B004460E46904636
:103DB000BDF8409093B9354803685B0704D16FF0B4
:103DC0000C0008B0BDE8F087314B4FF482510793E7
:103DD000022306AA069328F0B1F9F0E70821C06A89
:103DE00028F0AFF9A389A3EB4003BB424AD3304686
:103DF00028F08DF90C3054F820A0BAF1FF3FCDF82F
:103E000004A01AD16FF00100DBE7204602AA01A945
:103E100028F0D9F90028D4D1BDF80830B34206D132
:103E2000204602A928F097F908B10135ADB26268C1
:103E3000019B9A4202D1514608E000254D4551466A
:103E4000DDF804A0E1D96368534503D1BDF808301B
:103E5000B342D7D1BDF80C30002BD3D04D45D1D3D0
:103E6000BDF80A00090CBB424FEA014128BF3B469E
:103E700001444246204628F0B6F80028A1D1BDF8FA
:103E80000C009EE76FF015009BE700BFC80E0020F6
:103E9000B18B03007FB590B9164803685A0704D167
:103EA0006FF0150007B05DF804FB134B4FF482511F
:103EB0000593022304AA049328F01EFBF0E783680D
:103EC00083B90C4803685B0702D16FF00400E9E78F
:103ED0000A4B4FF482510593022304AA049328F05D
:103EE0000BFBF2E71B681BB107B05DF804EB18474A
:103EF0001846D7E7D00E0020D08C0300E18C0300D9
:103F000030B587B008B101B18AB9174803685A07BC
:103F100003D16FF0150007B030BD144B4FF4825140
:103F20000593022304AA049328F0E6FAF1E78468D3
:103F30000CB1E56885B90C4803685B0702D16FF0E6
:103F40000400E8E70A4B4FF482510593022304AAC8
:103F5000049328F0D1FAF2E741F8040BE36807B0C4
:103F6000BDE83040184700BFD00E0020FF8C030092
:103F7000E18C030030B51346044687B088B9204869
:103F80000368590703D16FF0150007B030BD1D4B12
:103F90004FF482510593022304AA049328F0ACFA4B
:103FA000F1E7006880B9164803685A0702D16FF03C
:103FB0000100EAE7144B4FF482510593022304AA4F
:103FC000049328F099FAF2E782680AB1956885B9F6
:103FD0000B4803685B0702D16FF00400D5E70B4B79
:103FE0004FF482510593022304AA049328F084FA23
:103FF000F2E70A46AC46616807B0BDE8304060476A
:10400000D00E00202B8D03003C8D0300E18C0300BB
:1040100008B50422002102482BF04BFC002008BD0B
:104020000000072030B50C460E4985B00291D0F84B
:10403000AC110546CDE9003100F1E0014FF0FF334E
:10404000204623F065F950B9012384F86430D5F88F
:10405000A83123B1204605B0BDE83040184705B06F
:1040600030BD00BFEFC5020038B50C46114605460D
:1040700028F0BFFA034638B92846044928F0B9FAAF
:1040800003460020236038BD0120FBE776CB030008
:104090002DE9F04F012381460569466885B005F595
:1040A0006777D7E8EF2F002A03D1C7E8E13F00295F
:1040B000F7D140F0B880B368B26A043B2632B3EB64
:1040C000420F4FEA420126BFB3FBF1F3B3FA83F389
:1040D00000234FF0010428BFC3F12003013B9C40A3
:1040E00005F5E47800F099801022082170689A4064
:1040F00002EB4402043099400932C5F860020631EF
:1041000022F003020A44B16A01FA03FC510001EBF8
:104110004C01C5F86412B16A994000EB4103C5F83F
:1041200058320333134423F00303C5F85432736841
:10413000C5F85C42C5F850323C4B4046C5E9A9631E
:10414000316800F01DFA044630BBD9F804A0D9F854
:104150001090DAE9073409F5307B012B584608BF87
:10416000103C24F049FF0023DAF8240030494FF4D2
:10417000806201EB802100935846234624F052FFD1
:1041800009F52C702B4924F097FEDAF814008368A7
:104190005C681CB96FF05704002137E04B46264A93
:1041A000DAF81810A04704460028F5D1DAF8140010
:1041B00083681B69002BEDD00122DAF818109847AC
:1041C00004460028E8D11D4B2846C5F8A8311C4BF1
:1041D000C5F8AC311B4B0393D5F810320293D5F8D8
:1041E0000832CDE90083D5F86832B26AD5F8981361
:1041F00000F08EF904460028CED105F1E00023F04E
:1042000021FA0028C5F8A0030ADB0221384628F06D
:1042100025FA204605B0BDE8F08F6FF00B04BBE730
:104220006FF01504B8E76FF07704F2E745C60200B7
:10423000487300202BC602001FC602000D43000079
:10424000FDC602008DC602002DE9F84306464FF078
:1042500001090569D0F8048005F56777D7E8EF3FD5
:10426000022B03D1C7E8E29F002AF7D149D12648A3
:1042700005F140012BF0CCFA20B16FF00F0420467D
:10428000BDE8F883204805F1B0012BF0C1FA002801
:10429000F3D12846D5F8981328F063FA044670BB8A
:1042A00071683669486983681B6933B32246896936
:1042B0009847044618BB06F530764946304624F048
:1042C00011FF304605F5E47605F0E4FC3046D8F8F9
:1042D000001028F083FA044688B90146E8223046E7
:1042E0002BF0E7FA21464FF4E27228462BF0E1FA70
:1042F0002146384628F0B2F9C1E76FF05704022191
:10430000F7E76FF07704BAE776CB030013B50446FE
:1043100040B100230122CDE90032074BD0E9091258
:1043200022F0AAFFA36E1B6823B1E06E02B0BDE8C5
:104330001040184702B010BD76CB030013B50446F9
:104340000846216901F56771D1E8AF1F022910D134
:1043500093B1A0B10121CDE900311346D0E9091292
:1043600022F08AFF074B984208BF6FF00B0002B0A3
:1043700010BD6FF00F00FAE76FF04C00F7E76FF039
:104380000100F4E72EF8FFFF2DE9F74388461546B4
:10439000066906F56773D3E8AF3F022B5FD1136858
:1043A00023B96FF0150003B0BDE8F0831B78002B34
:1043B000F7D0D6F89893B9F1000F33D106F5D87736
:1043C0004FF0FF324FF0FF33384624F0D7F8304635
:1043D0002A6801A9FFF748FE019C1CB9384628F05D
:1043E0003BF9DEE705F10803A3666B6984F8649086
:1043F000E366E46360B1384628F02EF92146304682
:10440000236E2A68FFF70EFE0020C8F80040CAE7B6
:104410002022296804F140002BF0C8F9384628F022
:104420001BF9F1E730460F4928F0E3F8044600286D
:10443000B7D005F1080383666B69C063C3660023C8
:1044400080F864302022296840302BF0AFF92246F2
:104450000121304600F03EF80028D5D0A1E76FF0EA
:104460000F00A0E776CB03002DE9F04F05460E467E
:1044700090460027D0F8B0A085B0AAF5AE742146CA
:1044800030462BF0C5F9E0B9114BA4F1400B029373
:10449000DAF810303246CDE9008329464FF0FF3379
:1044A0005846AAF5CE7922F033FF60B97023012275
:1044B00003FB079383F86420DAF80C300BB15846FD
:1044C0009847703417B105B0BDE8F08F0127D6E7E3
:1044D0005FC702001FB5144690B18AB1012912D1FD
:1044E0000A4B00F1E0010293D0F8AC314032019365
:1044F0004FF0FF332046009322F00AFF04B010BDB6
:104500006FF01500FAE70020F8E700BF5FC7020070
:104510002DE9F04387B00E46DDE90E811446DDE952
:1045200010251F4630B329B3DFF850C000F1E00971
:10453000002D08BF65469EB9CDE9034400F5CE7451
:104540002046059631F025F803ABCDE900432A4615
:104550003B464146484623F09BF807B0BDE8F08350
:10456000002241460E9248462A4607B0BDE8F04375
:1045700023F0B8B96FF01500EFE700BF6944000001
:10458000F0B50E46044689B000286FD001230246DC
:10459000C3630023D0F89810364F403040F80C7CAD
:1045A00042F8301FCDE901334FF0FF330093C36D64
:1045B00030F058FB304A06AB92E8030083E8030072
:1045C000184622F079FD0546D8B904F1340022F0EE
:1045D00053FD0546A8B93946284805AA30F01AFB0C
:1045E000054670B9059B9A6872B10C33D4F89400F3
:1045F000C4F8A03028F0E4F8C4F8D40030B96FF063
:104600000B05284609B0F0BD0346EFE7D4F8940047
:1046100028F0D6F8C4F8D8000028F0D0D4F88C30B0
:10462000D4F8A010C4F8A8300423C4F8AC30C4F8FF
:10463000C4300223A362124BB4F89420D4F8D4708F
:10464000C4F8B810C4F8D010D4F89010236204F164
:10465000A403A4F8B020C4F8A470C4F8C010A4F84F
:10466000C820C4F8BC00A661E362CAE76FF0150574
:10467000C7E700BF668D030080630300708D0300F1
:10468000E068030030B5002289B00F490F4831F0CF
:1046900023F9002200230024CDE906230E230C4D2C
:1046A000CDE903344FF400622846CDE90144094BBB
:1046B0000949009423F07AFE0849284623F0D4FCE7
:1046C000204609B030BD00BF0D480000C81B0020C7
:1046D00008170020E94A000048770020C092030034
:1046E0002DE9F047044607464FF00109DFF85080F6
:1046F00014B93846BDE8F08794FAA4F5B5FA85F503
:1047000009FA05F32E0108EB05156FEA030A24EAFE
:1047100003042B7B002BEBD058F806301B694BB9F8
:104720004644736804222846196807EA0A0700F01D
:10473000DBFBDDE7284698470028D9D1F0E700BF2A
:10474000546103002DE9F047DFF8AC902B4C804614
:10475000A9EB04039F2B0F460AD929494FF48C7209
:10476000284827F00DFB4FF48C71254827F001FBFA
:10477000254828F077F8064640B300252846BDE8CE
:10478000F087237B73B12368DB680BB12046984721
:1047900023681B6993B9636804222046196800F0F6
:1047A000A3FB013610344C4514D9154940F22512AB
:1047B000144827F0E5FA40F22511D6E7204698473D
:1047C0000028E8D00AFA06F31D43EAE705464FF051
:1047D000010AE8E7D5D3B8F1000FCFD0002DCCD037
:1047E0002846FFF77DFF0546002FF7D000214FF444
:1047F000A47025F071FDF1E76461030054610300CA
:10480000788D0300BC88030034300020014824F078
:10481000BFB800BF4C10002008B5034608462BB1B6
:10482000044A136000F0D6FE002008BD6FF01500AA
:10483000FBE700BF3003002010B5044C237813B908
:10484000034824F0A5F80123237010BDD46F002085
:104850004C10002010B50446064828F003F83CB17F
:10486000054BD3E8EF1F0139C3E8E21F002AF8D156
:1048700010BD00BF2C300020303000200020014649
:10488000034BD3E8EF0FC3E8E21F002AF9D17047CA
:104890002C30002070B5FFF7F1FF05460D4C0E4E91
:1048A000B44215D90D490E484FF4E87227F068FA62
:1048B0004FF4E871094827F05CFA63685B792BB123
:1048C00023685B6813B12946204698471034E7E710
:1048D000F3D370BD5461030064610300788D03005D
:1048E000BC88030010B5044C04492046FEF7DCFAEE
:1048F000034B1C6010BD00BFAC0D00200469030019
:104900002430002008B50023084A4FF400411370FA
:10491000074A08481360084A1360FFF77DFFFFF756
:10492000E1FFBDE8084000F01FBA00BFD56F0020CE
:104930002C30002061C802003030002001460022E7
:1049400000230148FEF7DEBAAC0D00200148FEF757
:10495000C9BB00BFAC0D0020024B01461868FEF732
:1049600037BC00BF24300020014827F012BB00BF35
:10497000AC0D00202DE9F041394B187800286DD09E
:10498000FFF7E4FF044600283DD0364BD3E8EF1F85
:104990000139C3E8E21F002AF8D1334D334E344FBA
:1049A000B5422CD9334934484FF4E27227F0E8F984
:1049B0004FF4E2712F4827F0DCF96B685B793BB16B
:1049C00021784B0706D52B68214628461B68984757
:1049D0001035E5E72388626813F4E07FC3F382189B
:1049E000C1F3C201EFD0002AEDD0D21B012328462B
:1049F00042F38F0200F0BCFA4045E9D3E3E7DCD391
:104A00002046FFF7A9FF1D4B1D4C1B68002B19DD2D
:104A100030F03AFF4FF47A72A0FB020302FB01313F
:104A2000C30B43EA4143D4E900209B1A40F2E93228
:104A30004FEAD13161EB0001934271F1000101D3E2
:104A4000FFF728FFD4E9003213F57A7342F1000230
:104A5000C4E90032BDE8F041FFF786BFBDE8F08150
:104A6000D46F0020303000205461030064610300E3
:104A7000F40D0020788D0300BC8803002C3000204A
:104A8000C01B002070B5134D297809BB0120FFF72A
:104A900059FE114C114EB44213D91149114840F23C
:104AA000871227F06DF940F287110D4827F061F960
:104AB00063685B791BB1236820469B689847103474
:104AC000E9E7F5D3FFF756FF0028FBD101232B7050
:104AD00070BD00BFD56F0020546103006461030006
:104AE000788D0300BC8803002DE9F0472C4B2D4F37
:104AF000FB1A1B090AD12C4940F25B322B4827F0E4
:104B00003FF940F25B31284827F033F9002108468D
:104B1000FFF718FE044640B340F267684FF0000903
:104B200025F006FC224B186030B1224B1B68092B84
:104B300002DD214823F02CFF0025DFF87CA044B1E2
:104B40002046FFF7CDFD044618B94FF0FF384FF06F
:104B5000FF39FFF70FFF064628B95DB942464B46BD
:104B6000504623F051FF3546E9E74FF0FF384FF04C
:104B7000FF39D5E70A4D08E0F0D22B689B691BB1DD
:104B800000222846114698471035BD42F4D90649FF
:104B900040F24F32054827F0F3F840F24F31B2E7C8
:104BA0005461030064610300788D0300BC88030036
:104BB00028300020303000204C10002013B526484B
:104BC00027F050FE254B1B7853B34FF02003EFF333
:104BD000118483F31288BFF36F8F214823F0A2FA68
:104BE00040B920499422204827F0CAF894211D4852
:104BF00027F0BFF81A4823F0B1FAFFF7BBFE1848B8
:104C000023F09EFA30B91749C222174827F0B8F8A6
:104C1000C221ECE784F31188BFF36F8F02B010BD9F
:104C2000124B1B68002BF9D050B90022002310480A
:104C3000CDE900234FF40042002325F0D1FFEDE73A
:104C40000A28EBD10A4830F053FE0A4802B0BDE80A
:104C5000104023F09DBE00BF30300020D56F0020F3
:104C600020300020CB890300BC88030028300020BE
:104C7000C81B00204C10002010B5064B04461B68D2
:104C800098472146A0600448FEF7E8F9BDE81040C7
:104C9000FFF794BF30030020AC0D00200A4608B592
:104CA000014650B90C4940F235320C4827F068F8FB
:104CB00040F23531084827F05CF842B9064940F225
:104CC0003632064827F05CF840F23631F2E7044805
:104CD00027F06CF9002008BD788D0300BC88030024
:104CE000AC0D0020014608B550B90849084840F20B
:104CF000433227F045F840F24331044827F039F8B1
:104D00000448BDE8084027F05CB900BF788D030077
:104D1000BC880300AC0D0020054C06482146EC225F
:104D200008B527F02DF8EC21204627F022F800BF27
:104D3000D68D0300BC880300024B0348C01AC0088C
:104D4000704700BF0C5F030054610300044A054B29
:104D50009B1AB1EBD30F34BF52F8310000207047DB
:104D60000C5F03005461030000210B480B4B30B56E
:104D70001B1A0B4CDB080430994200D130BD10F8EF
:104D80003120256802F0070225F007052A4344F880
:104D9000042B0131F0E700BF0C5F030054610300F6
:104DA000F40D0020F8B5064600240A4F0A4DED1B0D
:104DB000ED08AC4202D14FF0FF3409E057F834005F
:104DC00008B90134F5E731462AF022FD0028F8D170
:104DD0002046F8BD0C5F0300546103002DE9F84341
:104DE00015461E462D4A2E4B8846D21AB5EBD20FD9
:104DF0000AD32C4940F2A5122B4826F0C1FF40F2FD
:104E0000A511284826F0B5FFE8B90446274FDFF87A
:104E1000A09009E0384633462A464146FFF7DEFFB8
:104E2000844238BF044610374F4508D91D4940F227
:104E3000AB121D4826F0A4FF40F2AB11E1E7E9D325
:104E40002046BDE8F88303EBC5031C7914B1B442D6
:104E500028BF344607214368164E1A7956F8253084
:104E600002EB4202914023EA010304F0070101FA38
:104E700002F213430021032223FA02F000F007009C
:104E8000814202F1030238BF01461E2AF4D123F009
:104E900007030B4346F82530D2E700BF54610300F7
:104EA0000C5F0300A98D0300BC880300546103005C
:104EB00064610300F40D0020F8B506460F46002497
:104EC000074D084BED1AED08AC4200D3F8BD0021A8
:104ED00022B23B4630460134FFF780FFA4B2F3E72D
:104EE000546103000C5F030038B5104B0D46C31A24
:104EF0001B11013304461146DBB240B90C490D4881
:104F0000DE2226F03DFFDE21094826F032FF42680E
:104F1000137143689971FFF7CFFF012263681D6029
:104F200063685A71BDE83840FFF786BC54610300DE
:104F3000D68D0300BC88030010B5044650B90A4959
:104F40000A484FF4997226F01BFF4FF499710648F6
:104F500026F00FFF43685B7913B10021FFF7ACFF28
:104F6000002263685A7110BDD68D0300BC8803000F
:104F700010B51249124C641AB2EBD40F0AD311497E
:104F8000114840F21E2226F0FBFE40F21E210D4881
:104F900026F0EFFE73B10D4B53F8223008B9FFF73E
:104FA000BBFE4268127902EB420223FA02F000F0E3
:104FB000070010BD01EBC2010879FAE70C5F03009E
:104FC00054610300A98D0300BC880300F40D002088
:104FD0002DE9F04F8FB0C1F34A2804AF0D4691463A
:104FE000B8607B600C0DB8F1000F69D000264FF05F
:104FF000040B4FF00A0A07F11403C7F80C80C7E945
:1050000007667E620193CDF808B0CDF800A007F1E5
:105010001C0332464846F968FCF728FDB0F5006FDE
:10502000034620D32F48036813F0060F17D06C46B1
:105030008AB0D9F8041004AB2B4D1A46C3E90551C8
:1050400040F2FF71D9614FF400711984274B42F887
:10505000103F4FF412513346FFF7BAFFA5462C37E5
:10506000BD46BDE8F08FC0F30A0804F117001844EC
:1050700020F0070080083B60FFF760FC68F35325D1
:10508000044628B33B6800F11001C7E9083607F170
:105090001403F961CDE900A3CDF808B04846144ADD
:1050A000F96807F11C03FCF7E1FC002810DA11494C
:1050B0001148562226F064FE56210E4826F059FE6D
:1050C00004F1170020F007008008FFF737FC0446C2
:1050D00068F353252A4620467B68B96827F0F4FB1D
:1050E000BDE700BFD40E0020178E030004000001AE
:1050F0009DC80200568E0300BC8803002DE9F04FC6
:1051000087B00446DDE9105ADDE912690F4693467F
:105110009846A6B11021334652460020CDF80090A3
:10512000CDF81490FCF7A4FA011E09DA1E49752285
:105130001E4826F025FE75211B4826F01AFE314632
:1051400005F1170008441A4B04F007040BF0070B95
:10515000E40020F0070003EA412344EA8B148008AE
:105160001C430391FFF7EAFB44EA0554054688B166
:1051700086B1334652460399CDF800901030FCF7C3
:1051800077FA002806DA08498F22084826F0F8FD49
:105190008F21D1E7434622463946284607B0BDE86D
:1051A000F04F27F091BB00BF568E0300BC88030070
:1051B00000FE0F000EB403B503AB53F8042B0146F9
:1051C0000448019327F0A6FB02B05DF804EB03B09E
:1051D000704700BFF5510000CA0605D48B064CBFCE
:1051E00002490349FFF7E6BF704700BF85940300FB
:1051F0002A91030038B54B6805461A68CB680C46FF
:105200009A4202D1084627F08CFB6368D3E8EF2F5F
:10521000511CC3E8E01F0028F8D1A3689D546368BF
:105220001A68E3689A4208D9054906487A2226F0A6
:10523000A7FD7A21024826F09CFD002038BD00BF62
:10524000828E0300BC8803002DE9F04F89B09B4695
:10525000DDE915769DF8483004460493DDE91393A3
:105260000593049B0D460692002B00F0878006F004
:105270000803079327F010FB06F0020A02460028F5
:105280004BD020468C49FFF795FF8046BAF1000FBE
:1052900008D016F0440F42D12A4620468749FFF72E
:1052A00089FF804406F001035BB1854B049A2046D8
:1052B00053F82220834B8449002A08BF1A46FFF77F
:1052C00079FF06F00803002B55D0804B049A204646
:1052D00053F822207E49FFF76DFF0546069B2BB150
:1052E0001A4620467B49FFF765FF0544BBF1000FD6
:1052F00005D05A4620467849FFF75CFF05444544EF
:10530000B9F1000F4AD1002F60D1F30700F1CE8030
:1053100031462046FFF760FFC2E08046B6E76F4B9C
:1053200018680028BDD06E4B4FF47A7E1B684FF48E
:105330006162B5FBF3F5B5FBF0F300FB13550EFB13
:1053400005F5B3FBF2FAB5FBF0FC3C2102FB1A3287
:1053500000FB1C55B2FBF1F30EFB05F5B5FBF0F5B8
:1053600001FB132220460092CDE901C552465D495A
:10537000FFF720FF95E706F00805AFE7BBF1010F47
:1053800007D1B9F1000F1CD1002F00F08980002552
:105390001CE0B9F1000FF7D0534813E053484B46D7
:1053A0002246534926F0CEF800280DDA51495248DA
:1053B0004FF4027226F0E4FC4FF402714D4826F0DF
:1053C000D8FC4A48049DEAE7002F65D0DFF82C910D
:1053D000DFF82CA1102F31462046B8464FF0000BC5
:1053E00028BF4FF01008FFF7F7FE5D4542DC059B34
:1053F000514620461A78FFF7DDFE4FF0010B1BF0F7
:10540000070F03D149462046FFF7D4FED84538D9C7
:10541000059B5146204613F80B20FFF7CBFE0BF1FE
:10542000010BBBF1100FEAD14FF0000B20463549BC
:10543000FFF7C0FE5A46059B20469A5CA2F1200168
:105440005F2928BF2E223049FFF7B4FE0BF1010B74
:10545000BBF1100F1AD01BF0070F03D149462046AD
:10546000FFF7A8FED8455A46E5D849462046FFF73B
:10547000A1FEEBE749462046FFF79CFE0BF1010B2E
:10548000B3E720462149FFF795FEC8E7059BB7EB38
:105490000807434405939DD1049B002B7FF435AF4F
:1054A000204609B0BDE8F04F27F03BBA2046054A38
:1054B0000549FFF77FFE2BE7B68E0300BA8E030087
:1054C00018690300B18E0300149703002C690300D0
:1054D000DF8E0300E58E0300E98E03003C300020E0
:1054E00038300020C38E03003DC90200F551000092
:1054F00015C90200828E0300BC880300C80D040099
:10550000EE8E0300F48E030062880300C60D0400D3
:105510002DE9F0410F884B6805460C4690468E6891
:1055200086B0C7F382175BB1134A9B1A43F38F010E
:1055300000291FDB2078C0F3C200FFF707FC0346F9
:10554000214651F8102B6088C2F34A22002A01EB51
:10555000020408BF0021C0F30B10CDE90308CDE918
:1055600001140022314628460097FFF76DFE06B071
:10557000BDE8F0810023E3E7F40D002042F20F7351
:1055800073B58B4228BF0B46056804460521684663
:105590000D4A26F0CAF806466368284604225B686E
:1055A0000A4927F0AAF963683246694628465B68CB
:1055B00027F0A3F96368172228465B68044927F09F
:1055C0009CF902B070BD00BF69E103000E8F0300BB
:1055D000F68E030000210123064A904206D8064AAF
:1055E00001B901231360054B186070470121400881
:1055F0005B00F2E740420F00383000203C300020D2
:1056000000230428CB604B6098BF044B044A98BF2A
:1056100053F820308A600B60704700BF886A03002F
:10562000746303000023084A0B60CB604B608A6000
:10563000064B074AD21AB0EB121F3EBF03EB001312
:105640009B680B60704700BF0C6A03005461030045
:10565000646103000023064A10B50C46CB604B6022
:105660008A6001461846FFF771FB206010BD00BF3D
:105670007463030008B550B9074908484FF49272A3
:1056800026F07EFB4FF49271034826F072FB002255
:1056900043685A7108BD00BFD68D0300BC88030063
:1056A00008B550B90849094840F2171226F068FBBE
:1056B00040F21711044826F05CFB01224368196090
:1056C00043685A7108BD00BFD68D0300BC88030033
:1056D0002DE9F74F044600200D46FFF72DFB074646
:1056E00055B9254925484FF4997226F049FB4FF4E6
:1056F0009971214826F03DFB6B685B7923B9032142
:1057000020461F4A27F01CFC082120461D4B1E4A3C
:1057100027F016FC082120461C4A27F011FC4FF008
:105720000008DFF86CA00FFA88F6BE4208F1010805
:1057300003D3002003B0BDE8F08F324601230021DF
:105740002846FFF715FC00233246194681462846B5
:10575000FFF70EFC834631460020FFF7F7FA5AF8B0
:105760002B20034601925AF8292008210092204656
:10577000084A27F0E5FBD6E7D68D0300BC88030076
:10578000338F0300458F0300518F03006F8F030099
:105790009C6A0300AC8F03002DE9F84F52F8048C8B
:1057A000064640469B468A4617462AF021F881461F
:1057B000144D154B9D421AD9144915482E2226F036
:1057C000DFFA2E21114826F0D4FA4A464046A9684D
:1057D0002AF02AF80C4B044638B93B465246294673
:1057E0003046D8472046BDE8F88F1035E2E7ECD3C5
:1057F000434601213046074A27F0A2FB6FF0070419
:10580000F0E700BF5461030064610300C08F030030
:10581000BC880300ED8F030008B5024BFFF7BCFF07
:10582000002008BDD1560000014BFFF7B5BF00BFF7
:1058300059C90200014BFFF7AFBF00BF65C90200A5
:10584000014BFFF7A9BF00BF4D5A0000014BFFF706
:10585000A3BF00BFB7C902001FB5044602A901A833
:10586000FFF71CFA002808DA20460121154A27F024
:1058700067FB6FF0070004B010BD08212046124AF4
:1058800027F05EFB08212046019B104A27F058FBB9
:1058900008212046029B0E4A27F052FB03A8FFF77F
:1058A00021FA002806DA082120460A4A27F048FB98
:1058B0000020E0E708212046039B074A27F040FB31
:1058C000F6E700BF02900300339003005B900300F3
:1058D000709003008D900300C590030010B5C3695C
:1058E0009B681C792CB90121034A27F029FB20462B
:1058F00010BD0120FCE700BFDF9003002DE9F3415C
:105900000546144C144E154FDFF85480B4421BD991
:105910001449154840F2571226F032FA40F2571156
:10592000104826F026FA6368284659791B79002921
:105930000CBF3A464246CDE900230821A3680B4A32
:1059400027F0FEFA1034E1E7EDD3002002B0BDE805
:10595000F08100BF54610300646103000391030000
:105960006ADE0300C08F0300BC8803000C910300B3
:105970002DE9F04F074689469846154685B0B2BBDB
:105980001046FFF7D9F90646D9F804305B7923B9F8
:1059900003213846294A27F0D3FA0024DFF8A0B0C3
:1059A000B44221DA3DB358F8243000200293FFF7C7
:1059B000C3F9002382469A450CD019460020039370
:1059C000FFF7C4F94022029929F02EFF039B80B90A
:1059D000002B2CDA58F8243001213846194A0134BA
:1059E00027F0AEFAA642DEDC05B0BDE8F08F164621
:1059F000CAE70133DFE7A24600210E9B22B24846E8
:105A0000FFF7ECF90E9B044683420DD095B9514641
:105A10002846FFF79BF903465BF8242003210092F8
:105A20003846094A27F08CFA0AF10104B8E7A24681
:105A30001C46E1E758F82A30EEE700BF2D9103003D
:105A40009C6A030058910300429103002DE9F74F2F
:105A50000646884691461D460027D3F804A0DFF885
:105A600044B0042250465BF8041B29F0DDFE0446D6
:105A700058B10137052FF4D1012130466B680A4A2D
:105A800027F05EFA6FF0070408E0414630460097C1
:105A900005F10803A9F10202FFF76AFF204603B0EF
:105AA000BDE8F08F9C6A0300729103002DE9F84372
:105AB00005464FF02003EFF3118683F31288BFF3FE
:105AC0006F8F1B4822F02EFB40B91A4994221A48C6
:105AD00026F056F99421174826F04BF94FF00C099F
