:020000040100F9
:1000000088A70021816702019DC602015567020190
:1000100055670201556702015567020100000000A3
:100020000000000000000000000000004964020120
:100030005567020100000000F163020155670201EB
:10004000C9640201C9640201C9640201C9640201F0
:10005000C9640201C9640201C9640201C9640201E0
:1000600025CD0201C9640201C9640201C96402010B
:10007000DBCC0201C9640201C9640201C964020146
:10008000C96402010FCD0201C9640201C964020101
:10009000C9640201C9640201C9640201C9640201A0
:1000A000C9640201C9640201C9640201C964020190
:1000B000C9640201C964020153B94AB9002908BFE1
:1000C00000281CBF4FF0FF314FF0FF3000F00CB89C
:1000D000ADF1080C6DE904CE20F036FEDDF804E049
:1000E000DDE9022304B07047704700BF2DE9F00737
:1000F00091E8F807B2E802105B1854EB0C04B2E880
:1001000002104D4156EB0C06B2E802104F4158EB7D
:100110000C08B2E8021059EB01095AEB0C0A80E80E
:10012000F80780410130BDE8F00770472DE9F0077E
:1001300091E8F807B2E802105B1A74EB0C04B2E81D
:1001400002108D4176EB0C06B2E802108F4178EB7D
:100150000C08B2E8021079EB01097AEB0C0A80E88E
:10016000F80780414042BDE8F00770472DE9F007ED
:10017000524290E87800B1E880071740DB1918EA8E
:10018000020854EB080419EA020955EB09051AEABA
:10019000020A56EB0A0678C090E87800B1E88007BA
:1001A00017407B4118EA020854EB080419EA0209D7
:1001B00055EB09051AEA020A56EB0A0678C0804197
:1001C0000130BDE8F00770472DE9F007524290E892
:1001D0007800B1E880071740DB1B18EA020874EBCF
:1001E000080419EA020975EB09051AEA020A76EB16
:1001F0000A0678C090E87800B1E880071740BB4154
:1002000018EA020874EB080419EA020975EB0905FB
:100210001AEA020A76EB0A0678C080414042BDE83D
:10022000F00770472DE9F00152424FF0040890E8C2
:10023000300091E8C000A31B1340E41AF618EB1B32
:100240001340ED1AFF1830C0C0C1B8F10108EED15B
:10025000BDE8F001704700BF00B592E8DC072DE96A
:10026000DC07B1E8805702B4A7FB02510A95A8FB4E
:10027000020B09180020E7FB03105BEB000B0020CA
:100280004041E9FB02B00B91A8FB0351401800214B
:100290004941EAFB02011BEB050B0025E7FB04B516
:1002A00068410025E7FB0605694100256D41E8FB33
:1002B0000615CDF830B0A9FB03B689190026EAFB74
:1002C0000316754100267641ECFB035610EB0B003C
:1002D0005FF0000BE8FB040B51EB0B015FF0000B30
:1002E000E9FB041B55EB0B055FF0000BEAFB045B1D
:1002F00056EB0B065FF0000B5BEB0B0BECFB046BA0
:100300000D90ACFB0230059C2D180020EEFB025036
:1003100046410020E9FB04605BEB000B00204041FC
:10032000EAFB04B05B180021E7FB04314D410021DA
:10033000E8FB0451069C4E410021E8FB04615BEBA5
:10034000010B0021E9FB04B1484100214941EAFBCE
:1003500004010E93A7FB0432079CB6180022E7FBAA
:1003600004625BEB020B0022E8FB04B25041002266
:10037000E9FB0402514100225241EAFB0412049CB1
:10038000ED180023E9FB04535E410023EAFB0463FC
:10039000089C5BEB030B0023E7FB04B358410023ED
:1003A000E8FB040359410023E9FB04135A410023ED
:1003B0005B41EAFB04230F955DF8049B99E8000676
:1003C000DDF80080A9FB08541BEB040B0024EAFBBA
:1003D00008B4DDF8108060410024ECFB08046141A2
:1003E0000024EEFB081462410024E9FB0824634169
:1003F00000246441EAFB0834DDF804807619002506
:10040000EEFB08655BEB050B0025E9FB08B56841D1
:100410000025EAFB0805DDF8148069410025ECFBA6
:1004200008156A410025EEFB08256B410025E9FB14
:1004300008356C4100256D41EAFB08450F96DDF853
:100440000880AEFB087680190026E9FB080671419A
:100450000026EAFB0816DDF8188072410026ECFB46
:10046000082673410026EEFB083674410026E9FB9E
:100470000846754100267641EAFB0856DDF80C80F7
:100480001BEB070B0027ECFB08B778410027EEFBBE
:10049000080779410027E9FB08177A410027EAFBA2
:1004A0000827DDF81C807B410027ECFB08377C41E6
:1004B0000027EEFB08477D410027E9FB08577E41F6
:1004C00000277F41EAFB086708B000BD2DE9F14F26
:1004D00087B0FFF7C1FEDDF81C8008F1200888E82E
:1004E000FF00FFBC87E87F08BDE8F08F00B591E80A
:1004F0004C57A2FB02410194A2FB034524190020A2
:10050000E2FB06506D417F41641802940021E2FB3A
:100510000801A3FB034B654103950024E3FB06049C
:1005200040417F41091900246441E2FB0914FF079F
:1005300050EB0B0004900025E2FB0A455FF0000B36
:10054000E3FB081B49415FEA370714EB0B045FF03C
:10055000000BE3FB094B55EB0B055FF0000B5BEB6E
:100560000B0BE2FB0C5BFF0F0020E2FB0EB0002246
:100570005141E6FB061205910021E6FB084164416A
:100580007F416D180021E3FB0A515BEB010B002159
:10059000E3FB0CB1484100214941E3FB0E0100237C
:1005A000E6FB09531BEB030B0023E6FB0AB35841A0
:1005B0000023E6FB0C03594100235B41E6FB0E13CD
:1005C000FF07544106946D417F41A8FB0826554121
:1005D00007950022E8FB09B25BEB0B0B7F4180180B
:1005E0000022E8FB0A0251410022E8FB0C125A41AA
:1005F00000235B41E8FB0E230024E9FB0E340025B9
:10060000E9FB0A1552190025E9FB0C256B41002571
:10061000EAFB0C356C4100256D41EAFB0E45FF07F6
:100620005BEB060B0026ECFB0E5640414941524164
:100630005B4164416D417641AEFB0EE848F1000834
:100640007F00A9FB0979784151EB0901AAFB0A7ADD
:100650007A4153EB0A03ACFB0C7C7C4155EB0C0557
:1006600056EB0E0648F1000700BD00BF2DE9F14F23
:1006700087B0FFF73BFFDDF81C8008F1200888E811
:10068000FF00FFBC87E87F08BDE8F08F30B44FF073
:10069000000310F8014B11F8015B013A84EA0504EC
:1006A00043EA0403F5D1A3F101034FEAD37030BC50
:1006B000704700BF4FF0000310F8012B013943EAE7
:1006C0000203F9D1A3F101034FEAD370704700BFD1
:1006D00030B411F8014B12F8015B6C4000F8014B8B
:1006E000013BF6D130BC70472DE9F00791E8F807DF
:1006F000B2E802105B1854EB0C04B2E802104D4152
:1007000056EB0C06B2E802104F4158EB0C08B2E869
:10071000021059EB01095AEB0C0A8941B3F1FF337E
:1007200074F1FF3475F1FF3576F1000677F10007BB
:1007300078F1000879F101097AF1FF3A51F10001ED
:100740005B184C414D4156F1000657F1000758F136
:10075000000859EBD1795AEB010A80E8F807BDE8A7
:10076000F00770472DE9F00791E8F807B2E80210AA
:100770005B1A74EB0C04B2E802108D4176EB0C06A8
:10078000B2E802108F4178EB0C08B2E8021079EB66
:1007900001097AEB0C0A89415B184C414D4156F135
:1007A000000657F1000758F1000859EBD1795AEBD0
:1007B000010A80E8F807BDE8F007704718EB040865
:1007C00059EB05095AEB060A5BEB070B5FF0000CCF
:1007D0004CF1000C18EB050859EB06095AEB070A17
:1007E0005BEB070B50EB0C005FF0000C51EB0C01C6
:1007F00052EB0C0263414CF1000CB8EB070879F1A5
:1008000000097AF1000A7BEB040BA841B141A24137
:10081000B3416CF1000CBBEB050BB041B941AA41EF
:10082000BB416CF1000C4CF001068CF0020718EB98
:10083000060859EB6C095AEB6C0A7BEB6C0B70EBFE
:100840006C0471EB6C0572EB670653EB6C076CEB99
:100850006C0C18EB0C0059EB0C015AEB0C025BF121
:10086000000354F1000455F1000556EBDC7657EB1C
:100870000C0770472DE9F14F87B0FFF7EDFCDDF86D
:100880001080DDF81490DDF818A0FFF797FFBDE8A1
:10089000000FFFF793FF03B05DF8048B88E8FF00BB
:1008A000BDE8F08F2DE9F14F87B0FFF71FFEDDF8AF
:1008B0001080DDF81490DDF818A0FFF77FFFBDE889
:1008C000000FFFF77BFF03B05DF8048B88E8FF00A3
:1008D000BDE8F08F2DE9F047904D86B00023C41D90
:1008E000EA7D07460E4624F00704CDE903332B7852
:1008F0008DF812206A7F8DF80D308DF814206B78FA
:10090000AA7F8DF80E308DF81520AB78EA7F8DF830
:100910000F308DF81620EB7895F820208DF81030E8
:100920008DF817202B7995F824208DF811300AB115
:100930008DF81330002E03A94FF000080CBF20469D
:10094000002000F047FE95F800906B780444C24602
:1009500099445FFA89F95FFA88F34B45C0F0C58086
:100960000334002E4946524624F0030414BF0020ED
:10097000204601F09BF9A978044471B1E01CEB78A2
:10098000EA7D002E20F003041A4414BF0020204604
:100990006B8AD2B201F02CFB044495F825308BB160
:1009A000297C79B195F82630E01C002B20F0030457
:1009B00014BFFF222522002E0CBF2046002001F08C
:1009C000ADFC0444297D81B1AB7823B995F825307D
:1009D0005BB12B7C4BB1E01D002E20F0070414BF4F
:1009E0000020204607F076FE04444D4B1B685BB1A7
:1009F000297949B1E01C002E6A7D20F0030414BF60
:100A00000020204698470444464B1B6853B1A97DFB
:100A100041B1E01C002E20F0030414BF002020464A
:100A200098470444404BD3F80080B8F1000F0ED033
:100A3000E97D61B1E01C002EAB7E20F003042A7E2C
:100A4000009314BF002020466B7EC047044495F8F5
:100A5000243063B1297951B1E01C002E2A7F20F0A7
:100A6000030414BF0020204601F0B6FC044495F8AE
:100A70002130002B45D0E01D20F00704002E3ED190
:100A800020461AF033FC20464FF4887295F8211066
:100A900022F045F9044495F82210002937D0E01DD2
:100AA000002E4FF0FF0220F0070814BF0020404640
:100AB00022F035F908EB00043346A97F0334012006
:100AC00024F0070444F00404224601F0D3FC04445B
:100AD0003EB940461AF020FCFB2195F822001AF09E
:100AE00021FCE01B06B0BDE8F0872B7A08F1010875
:100AF000EA79A979687922F042F882442BE700204C
:100B0000C2E7002EC7D130461AF0F0FBC3E7002E33
:100B1000E7D130461AF000FCE3E700BF48090021A6
:100B2000440000214C000021480000218FB572B61E
:100B30001A4B9D6AE5B9BFF34F8F1949194BCA6823
:100B400002F4E0621343CB60BFF34F8F00BFFDE7B9
:100B5000B4FBF6F4D3B20132002CF9D103F1100248
:100B60006A4402F80C4C0A2433B901A8A847E2E70A
:100B7000044600220A26EDE7013BDBB203F1100236
:100B80000DEB0206C2B2B2FBF4F704FB17223032BF
:100B9000B0FBF4F006F80C2CE6E700BF4809002192
:100BA00000ED00E00400FA051FB51A4C02A8237AF4
:100BB0008DF80930E3798DF80830A379ADF80C3061
:100BC0006379ADF80A3018F0C3FB18B1AD210320EA
:100BD000FFF7ACFFE36801A8019318F0CFFB08B161
:100BE000B121F4E7012368468DF8003023F086FE3A
:100BF00008B1B521EBE7A07E18F0D2FB08B1BE2109
:100C0000E5E7607E18F0C6FB08B1BF21DFE704B05E
:100C100010BD00BF4809002138B50546002840D066
:100C20001EF0B0FB10B94FF0FF3038BD1EF052F887
:100C3000B0F5FA7FF7D81C4C1C48A56200F016FBF3
:100C40001B4902201B4A00231B4D44F6011C84F85B
:100C50002C3084F82D3084F8253084F8263084F840
:100C600024302362C4E9001241F64C52C4E9020266
:100C70004FF40272C4E904520122C4E906C2EFF340
:100C8000108472B601F096FC0C4801F059FD18B1C1
:100C9000CB210320FFF74AFF002CC6D162B62046C5
:100CA000C3E76FF01500C0E748090021A90B000158
:100CB00001010100001B1B0303001F00DD0F0001E9
:100CC00010B5002840F08880464C94F82C30002B5A
:100CD0007FD181B1002A6AD001390F297CD8DFE8A1
:100CE00001F0081518282B525A73315D606E373D9C
:100CF000494E1378237001210020FFF7EBFDB0F57A
:100D0000803F6CDA012384F82D3010BD13786370B6
:100D1000F1E79378002B4AD0D378002B47D0137893
:100D20001A2B44D953781A2B41D91068C4F80500FE
:100D3000E1E71368E360DEE71378E278934236D3A5
:100D4000A370D8E71378A278934230D8E370D2E743
:100D50001378A27893422AD8E375CCE7137833B39B
:100D60005378013BDBB2F82B21D8136823831B0C8B
:100D7000A376C0E71078E07618F082FCBBE7137822
:100D8000ABB12377B7E7137894F825200AB1012B8C
:100D90000DD92374AFE713886382ACE7137823710E
:100DA000A9E794F82410137821B9012B04D86FF027
:100DB0001500AAE7002BFAD0137863759BE7137828
:100DC000082BF4D8A37596E71388FF2BEFD823756B
:100DD00091E74FF0FF3098E76FF02C0095E76FF048
:100DE0000B0092E74809002170B50D460646F0B1A8
:100DF000E9B111F007041AD100F03AF9D0B1304648
:100E00000E4E1EF003FB214686F82E002846FFF703
:100E100061FD18F059FC96F82E00214618F076FB7B
:100E2000FFF7C2FE0123204686F82C3070BD6FF01C
:100E30001500FBE74FF0FF30F8E700BF480900213D
:100E400010B5094C94F82C302BB118F07BFB94F8BA
:100E50002E001EF0F7FA01F0C1FB01F087FC002024
:100E600084F82C0010BD00BF4809002150B1074B89
:100E700003F1140253F8041B934240F8041BF9D108
:100E8000002070476FF01500704700BFF9EF0201B6
:100E9000074B93F82D2010B532B993F82C401CB9AC
:100EA00018F0E2FA204610BD4FF0FF30FBE700BF1C
:100EB00048090021074B93F82D2010B532B993F85B
:100EC0002C401CB918F0E4FA204610BD4FF0FF305A
:100ED000FBE700BF4809002138B5094D95F82D30D2
:100EE0005BB995F82C4044B918F0F4FA0123204678
:100EF00085F8253085F8263038BD4FF0FF30FBE708
:100F000048090021074B93F82D2010B532B993F80A
:100F10002C401CB918F058FA204610BD4FF0FF3095
:100F2000FBE700BF48090021074B93F82D2010B5BF
:100F300032B993F82C401CB918F038FA204610BD8D
:100F40004FF0FF30FBE700BF48090021074B93F843
:100F50002D2010B532B993F82C401CB923F018FDA0
:100F6000204610BD4FF0FF30FBE700BF48090021CD
:100F7000074B93F82D2010B532B993F82C401CB9CB
:100F800023F009FD204610BD4FF0FF30FBE700BF06
:100F900048090021074B93F82D2010B532B993F87A
:100FA0002C401CB923F0FAFC204610BD4FF0FF3056
:100FB000FBE700BF48090021074B93F82D2010B52F
:100FC00032B993F82C401CB923F0EAFC204610BD3E
:100FD0004FF0FF30FBE700BF4809002137B5114C47
:100FE000256801A801F078FB034618B1052816D042
:100FF00035210BE0019A022A05D0032AF1D122689B
:1010000052B92D2102E022681AB928210420FFF7E5
:101010008DFD2360A847E4E701202360FAE703B0D1
:1010200030BD00BF7809002107C8024B83E80700E4
:10103000002070477C090021054B9B6810B51BB947
:1010400092210420FFF772FDBDE81040184700BF51
:1010500078090021054BDB6810B51BB998210420E5
:10106000FFF764FDBDE81040184700BF7809002174
:10107000044B586828B1986818B1D868003818BF70
:10108000012070477809002138B505460C4600F06C
:101090009DF870B13E2D0CD1122C05D1054B1A785C
:1010A000022A01D0587820B12046BDE8384000F02F
:1010B000CDB838BD88090021014B5870704700BF7A
:1010C00088090021F7B5354D031D04462F4647F822
:1010D000043F95F80C3173B195F80E2105F20D110E
:1010E0002046042602321EF005FB002385F80C3151
:1010F000304603B0F0BD384605F08CFF02280646A6
:1011000004D1274920461FF08CFFF1E704283DD188
:101110002B790A2B0AD0262B1BD03946204620F0EB
:101120002DF8B0F5817F28D3C7210FE005213E209F
:10113000FFF7AAFF0028F0D12B8901A96846ADF876
:10114000003020F0E7FC0028C3D0A8210820FFF7DA
:10115000EDFC1A213E20FFF797FF0028DDD16B89B7
:10116000694601A8ADF8043011238DF8063020F04F
:1011700017FD0028ADD0BA21E8E70028A9D0A17852
:101180002078FFF781FF0028B2D1A2E70828AFD16D
:10119000034920461FF07DFFAAE700BF8809002110
:1011A0008C090021074B4FF0FF3141F6FF72C3E974
:1011B000001205490022C1E900221F21C3E90212E1
:1011C000704700BF00000021980B00213F280CD879
:1011D00001380B4BC0F3421200F01F0053F82230CD
:1011E00023FA00F000F001007047FF2806D04038D5
:1011F000044BC0F3421200F01F00EFE701207047DC
:1012000000000021980B0021074B01460068496847
:101210001A4603C240F48C221A6041F0107242F464
:10122000FF625A60704700BF000000210246024B77
:101230000068516803C37047980B00210246024BB7
:101240000068516803C37047080000210138064B4D
:10125000C0F3421200F01F0003EB82039B6823FAE5
:1012600000F000F00100704700000021014B186001
:10127000704700BFA00B002110B5FFF793FF0020BF
:10128000FFF71AFF22F044FC034B04461B6803B12E
:101290009847204610BD00BFA00B002138B5274B52
:1012A0000446D3F8A022D3F8A412013106D1D3F812
:1012B000A8324FF6FF719BB28B423DD0D3073BD58E
:1012C0001E4DD5F8A422D5F8A832C4F80120A4F800
:1012D0000530C3F3072363F03F03A371D5F89032C1
:1012E000013323D0D5F8943201331FD0D5F898328A
:1012F00001331BD0D5F89C32013317D0002001F008
:1013000033FB98B9D5F89002D5F89412D5F8982205
:10131000D5F89C32C4F80700C4F80B10C4F80F20AD
:10132000C4F8133001230020237038BD102200219F
:10133000E01D1EF055FAF5E70023F4E70000FF0179
:1013400070B5274D102200210446D5F8A0621EF08A
:1013500047FA10220021A0181EF042FAD5F8803278
:1013600001330BD1D5F88432013307D1D5F8883257
:10137000013303D1D5F88C3201330BD0D5F880027C
:10138000D5F88412D5F88822D5F88C3220616161B5
:10139000A261E361002001F0E7FA08B9F3071CD469
:1013A0000F4BD3F8902201320BD1D3F894220132A3
:1013B00007D1D3F89822013203D1D3F89C2201320D
:1013C0000BD0D3F89002D3F89412D3F89822D3F824
:1013D0009C3220606160A260E360002070BD00BFAD
:1013E0000000FF0180B588B000AF786039603B68CD
:1013F0001B88BB83BB8BC3F30E037B837B68DB7CC7
:10140000184620F0D7FB03463B837B681A883B8B4A
:101410001344FB827B6818333B617B8B3A6913442E
:10142000FB603B8BFA68128892B21A44FB8A134421
:101430005A1EFB8A92FBF3F39BB2FA8A02FB03F378
:101440007B817A8B7B891344FB837B685B88FA8B77
:101450009A420AD2B7F91C200A4B13401AB2B7F9C4
:101460001E3013431BB2FB8305E0BB8BDB439AB2F8
:10147000044B1340FB833B68FA8B1A8000BF203774
:10148000BD4680BD0080FFFF90B589B000AFB96058
:101490007B600346FB731346BB73BB689B79082BC9
:1014A00003D9DB211720FFF741FBFB7B484A52F8A9
:1014B0002330002B03D0DC211720FFF737FBBB685C
:1014C000DB79002B7FD07B681C68BB68DB79184612
:1014D00021F09AF903462344BB61BB689B79022B38
:1014E00038BF0223DBB21A46BB6913445A1EBB68DD
:1014F0009B79022B38BF0223DBB25B421340BB61F6
:10150000BB689B881A46BB689B7913445A1EBB680C
:101510009B795B4213407B617B694FF6FE7293427D
:1015200003D9E7211720FFF701FB97F8303083F04C
:101530000103DBB2002B3BD0BB68DB79184621F0FE
:1015400063F903465B42BA6913443B61FB7B204964
:101550003A6941F823207B699AB23B691A80BB68DB
:10156000DA793B699A703B690122DA703B69BA7B90
:101570001A71BB681B681B0C9AB23B69DA80BB68A6
:101580001B689AB23B691A810023FB610AE03A6941
:10159000FB6904335B0013444FF6F0725A80FB6919
:1015A0000133FB61BB68DB791A46FB699342EED3DA
:1015B000BB68DB791A467B6902FB03F3BA691A44FC
:1015C0007B681A6000E000BF2437BD4690BD00BFB5
:1015D000A40B002180B5AAB002AF786039603B68E7
:1015E0009B781A463B685B781344FF2B04D94FF471
:1015F00082711720FFF79AFA3B681A783B685B788C
:101600009A4204D94FF484711720FFF78FFA7B6850
:10161000C7F898307B68002B0CBF0123002387F8A4
:101620009F307B6803F00703002B04D040F21911B0
:101630001720FFF77BFA002387F89E302C22002129
:10164000CA481EF0CDF83B68597807F18C03002298
:101650001A605A609A60C64BC7F88C304FF46273B8
:10166000A7F89030082387F892300B4687F893301C
:1016700007F1980097F89E2007F18C0197F89F30AA
:10168000009303460020FFF7FFFE3B685A7897F867
:101690009E30134487F89E303B68997807F18C039D
:1016A00000221A605A609A60B24BC7F88C304FF42F
:1016B0008363A7F89030082387F892300B4687F8A9
:1016C000933007F1980097F89E2007F18C0197F866
:1016D0009F30009303460120FFF7D6FE3B689A78BF
:1016E00097F89E30134487F89E303B68D97807F10D
:1016F0008C0300221A605A609A609F4BC7F88C30A6
:101700004FF4B073A7F89030082387F892300B4657
:1017100087F8933007F1980207F18C0197F89F3012
:101720000093134600220220FFF7AEFE3B681979B2
:1017300007F18C0300221A605A609A608F4BC7F839
:101740008C309023A7F89030082387F892300B460E
:1017500087F8933007F1980207F18C0197F89F30D2
:101760000093134600220320FFF78EFE3B68597951
:1017700007F18C0300221A605A609A60804BC7F808
:101780008C30A823A7F89030082387F892300B46B6
:1017900087F8933007F1980207F18C0197F89F3092
:1017A0000093134600220420FFF76EFE3B689979F0
:1017B00007F18C0300221A605A609A60714BC7F8D7
:1017C0008C30082387F892300B4687F893303B68BB
:1017D0009B79002B04D017F047FF0346A7F8903001
:1017E00007F1980207F18C0197F89F300093134698
:1017F00000220520FFF748FE3B68D97907F18C03EA
:1018000000221A605A609A605F4BC7F88C308023C0
:10181000A7F89030082387F892300B4687F893306A
:1018200007F1980207F18C0197F89F300093134657
:1018300000220620FFF728FE3B68197A07F18C0387
:1018400000221A605A609A60504BC7F88C3070239F
:10185000A7F89030082387F892300B4687F893302A
:1018600007F1980207F18C0197F89F300093134617
:1018700000220720FFF708FE3B68597A07F18C0326
:1018800000221A605A609A60414BC7F88C304FF4BE
:10189000B073A7F89030082387F892300B4687F88A
:1018A000933007F1980097F89E2007F18C0197F884
:1018B0009F30009303460820FFF7E6FD3B685A7A05
:1018C00097F89E30134487F89E303B68997A07F169
:1018D0008C0300221A605A609A602E4BC7F88C3035
:1018E000E823A7F89030082387F892300B4687F852
:1018F000933007F1980207F18C0197F89F3000931D
:10190000134600220920FFF7BFFD3B68D97A07F193
:101910008C0300221A605A609A601F4BC7F88C3003
:101920009823A7F89030082387F892300B4687F861
:10193000933007F1980097F89E2007F18C0197F8F3
:101940009F30009303460A20FFF79EFD3B68DA7A3A
:1019500097F89E30134487F89E30D7F898207B681C
:10196000D31A1846A037BD4680BD00BFA40B002186
:101970006173010189F6000141B40001C74B020106
:101980008D960101814C0201914C0201797A01018D
:10199000FD790101457D0101817D010180B485B0A2
:1019A00000AF0346FB71FB79074A52F82330FB6016
:1019B000FB68002B01D1002301E0FB689B781846EF
:1019C0001437BD4680BC7047A40B002180B586B09B
:1019D00000AF78600B46FB707B684FF6FF721A8091
:1019E000FB78224A52F823307B617B69002B01D1BE
:1019F000002336E07B699B783B617B691B793A6900
:101A0000B3FBF2F2396901FB02F29B1AFB73FB7B19
:101A10001A464FF6F071786920F09DFE0346BB73BD
:101A2000BB7BFF2B01D100231BE07B691B799AB2A2
:101A3000FB7B3969C91ABB7B0B443969B3FBF1F1F4
:101A4000386900FB01F15B1A9BB213449AB27B68C0
:101A50001A807B681B88BA7B1946786920F0F9FEEA
:101A6000034618461837BD4680BD00BFA40B0021B1
:101A700080B584B000AF03460A46FB8013467B71F5
:101A80007B79264A52F82330FB60FB68002B01D19A
:101A900000233EE0FB88B3F5706F04D340F22521AC
:101AA0001720FFF743F8FB881946F86820F07CFE02
:101AB0000346FB72FB7AFF2B06D0FB7A1946F868C7
:101AC00020F0AFFE034624E0FB88FA68927893FB8F
:101AD000F2F101FB02F29B1ABB72BB7A1A464FF677
:101AE000F071F86820F037FE0346FB72FB7AFF2B9B
:101AF00001D100230DE0FA7ABB7A9A4202D0FB684A
:101B00000022DA70FA7AFB881946F86820F0A1FE04
:101B1000034618461037BD4680BD00BFA40B002108
:101B200080B584B000AF03460A46FB8013467B7144
:101B30007B790D4A52F82330FB60FB881946F86820
:101B400020F032FE0346FB72FB7AFF2B01D100230B
:101B500005E0FB7A1946F86820F063FE0346184654
:101B60001037BD4680BD00BFA40B002180B586B0F4
:101B700000AF03460A46FB8013467B717B79174A08
:101B800052F823307B61FB881946786920F00CFEFF
:101B90000346FB74FB7CFF2B02D143F2020319E0E6
:101BA0007B69DB881B047A6912891343FB60FB7C29
:101BB0001946786920F035FE0146FA88FB68104620
:101BC0009847FB7C7A6904335B0013444FF6F0724C
:101BD0005A80002318461837BD4680BDA40B00214B
:101BE00080B584B000AF78607B689B791A461C4B47
:101BF00053F82230FB60FB68002B26D105232BE035
:101C00007B68DB79FB727B68DB790133DAB27B6856
:101C1000DA71FB7AFA6804335B0013445B884FF691
:101C2000F072934211D0FB7AFA6804335B001344DC
:101C30005A887B689A80FB7A1946F86820F0F1FD93
:101C400002467B681A60002306E07B68DA79FB684D
:101C50009B789A42D4D3052318461037BD4680BDE1
:101C6000A40B002180B483B000AF0023FB710023DC
:101C7000FB710DE00C4B1B685A68FB799B00134409
:101C80001B68002B01D0002309E0FB790133FB71B5
:101C9000054B1B681B7AFA799A42EBD3012318464D
:101CA0000C37BD4680BC7047D00B002180B586B094
:101CB00000AFF8600B467A60FB7200237B61FB6823
:101CC000002B0CBF01230023FB74FB6803F003030C
:101CD000002B03D086211820FEF728FFFB7A002B6B
:101CE00036D07968002020F066FC78617B690C337F
:101CF0007B61FB7A9B007A6913447B61FB7C83F0F8
:101D00000103DBB2002B23D0144AFB681360134B92
:101D10001B68FA7A1A72114B1B68FA680C325A6007
:101D20000E4B1B685968FB7A9A000C4B1B680A44DF
:101D30001A600A4B1B685868FB7A9B001A46002100
:101D40001DF04EFD054B1B687968184620F033FCEA
:101D50007B6918461837BD4680BD00BFD00B0021F7
:101D600090B589B002AF0446084611461A4623468C
:101D7000FB800346BB800B467B8013463B80344B85
:101D80001B68002B03D1A5211820FEF7CFFE304B96
:101D90001B681B7A9BB2FA889A4208D22C4B1B68AC
:101DA0005A68FB889B0013441B68002B02D043F247
:101DB000020348E03A88BB881146184620F09DFE91
:101DC0000346FB823A8D7B881146184620F0ADFE13
:101DD0000346BB82FB8ABA8A1146184620F0BDFE34
:101DE00003467B821A4B1B681B687A8A1146184689
:101DF00020F036FCF860FB68002B01D1042322E0C0
:101E0000BA8A7B8A1946F86820F04BFEF86820F001
:101E10005BFE7A88B98A3B8D0093092320F05BFD35
:101E2000F86820F05CFEBA88F98A3B8800930A23A0
:101E300020F0DBFD064B1B685A68FB889B001344AF
:101E4000FA681A60002318461C37BD4690BD00BFD3
:101E5000D00B002180B584B000AF0346FB80224B3D
:101E60001B68002B03D1C6211820FEF75FFE1E4B16
:101E70001B681B7A9BB2FA889A4208D21A4B1B68DD
:101E80005A68FB889B0013441B68002B02D143F265
:101E9000020324E0144B1B685A68FB889B00134420
:101EA0001B68FB60104B1B685A68FB889B0013443F
:101EB00000221A600C4B1B681868FB685B881A4686
:101EC000F96820F02FFCFFF7CDFE0346002B05D06C
:101ED000054B1B681B68184620F0A2FB0023184620
:101EE0001037BD4680BD00BFD00B002180B582B049
:101EF00000AF0C4B1B68002B10D00023FB7107E0D8
:101F0000FB799BB21846FFF7A5FFFB790133FB7104
:101F1000044B1B681B7AFA799A42F1D300BF083749
:101F2000BD4680BDD00B002180B584B000AF034614
:101F3000FB800023FB60144B1B68002B03D1EC21BA
:101F40001820FEF7F3FD104B1B681B7A9BB2FA8832
:101F50009A4213D20C4B1B685A68FB889B001344AF
:101F60001B68002B0AD0084B1B685A68FB889B0033
:101F700013441B68184620F0A7FDF860FB6818465C
:101F80001037BD4680BD00BFD00B002180B584B0A6
:101F900000AF0346FB800023FB60144B1B68002B43
:101FA00003D1FA211820FEF7C1FD104B1B681B7AE4
:101FB0009BB2FA889A4213D20C4B1B685A68FB8872
:101FC0009B0013441B68002B0AD0084B1B685A68FF
:101FD000FB889B0013441B68184620F080FDF860C6
:101FE000FB6818461037BD4680BD00BFD00B0021EE
:101FF00080B586B000AF7860084611461A460346A1
:10200000FB700B46BB7013463B807B68002B0CBFFC
:10201000012300233B7400237B61FA78BB781344CF
:10202000DAB23F4B1A707B6803F00303002B03D036
:102030004E210920FEF77AFD3B881F2B03D83B88F1
:102040009B007B821CE03B88FF2B0FD93B8803F170
:10205000FF023B885B009A4203DA3B88FF339BB266
:1020600002E03B885B009BB27B8209E03B885B001F
:102070007C2B03DD3B885B009BB200E07C237B82F2
:102080007B8A03339BB223F00303FB813B7C83F009
:102090000103DBB2002B05D0224A7B681360224A81
:1020A000FB8913801E4B1B781A4613469B00134472
:1020B000DB001A467B6913447B6100237B7422E0BA
:1020C0003B7C83F00103DBB2002B15D0154B196864
:1020D0007A7C13469B001344DB000B4401221A70E8
:1020E000104B19687A7C13469B001344DB000B44A9
:1020F00079687A690A445A60FB897A6913447B617A
:102100007B7C01337B74064B1B787A7C9A42D7D355
:102110007B69073323F0070318461837BD4680BD97
:10212000D40B0021D80B0021DC0B002180B588B036
:1021300000AF78600B46FB707B685B687B61FB7867
:10214000002B30D07B6801225A70404B1B88184608
:1021500020F046FE0346FB810023FB611FE07B6805
:10216000FA690C32002123F812107B68FA691032E8
:10217000F98923F81210FB89FA6902FB03F37A69E3
:102180001A447968FB699B000B445A607A68FB69C2
:102190001344143300221A70FB690133FB61FB699D
:1021A000032BDCD94DE07B6800225A700023BB6111
:1021B0001AE07B68BA690C32002123F812107B68A0
:1021C000BA691032002123F812107A68BB699B00AB
:1021D000134400225A607A68BB6913441433002206
:1021E0001A70BB690133BB61BB69032BE1D9174B83
:1021F0001B88184620F001FE03467B82134B1B8888
:10220000184620F00DFE03463B827B687A695A60CF
:102210007B683A8A1A843B8A7A691A447B689A6096
:102220007B687A8A5A847B687A69DA607B683A8A42
:102230009A843B8A7A691A447B681A617B687A8A35
:10224000DA8400BF2037BD4680BD00BFDC0B002113
:1022500080B584B000AF0023FB600023FB7217E061
:102260001D4B1968FA7A13469B001344DB000B449C
:102270001B78002B09D0184B1968FA7A13469B007B
:102280001344DB000B44FB6007E0FB7A0133FB7275
:10229000124B1B78FA7A9A42E2D3FB68002B03D1E7
:1022A000A9210920FEF742FCFB68002B0ED0FB6839
:1022B00002337B6000BF7B6800221A7000BF0121DF
:1022C000F868FFF733FFFB6800221A70FB681846B6
:1022D0001037BD4680BD00BFD80B0021D40B0021B4
:1022E00080B582B000AF0C4B1B88184620F078FDFB
:1022F0000346FB80084B1B88184620F091FD0346DF
:10230000BB80FA88BB88934238BF13469BB21846FD
:102310000837BD4680BD00BFDC0B002180B586B00C
:1023200002AF78600B46FB701346BB702E23FB7325
:10233000BB789BB2FA7892B2F97B184620F02DFB5D
:102340000346BB817B68002B13D0BB789AB2FB7825
:102350009BB2F87BB98900930346786820F0D5FAE0
:10236000064A7B681360064AFB781370054ABB78FF
:102370001370BB8918461037BD4680BDE00B0021A5
:10238000E40B0021E50B002180B500AF054B1B6875
:10239000054A1178054A12781846FFF7BFFF00BFBB
:1023A00080BD00BFE00B0021E40B0021E50B002104
:1023B00080B400AF024B1B681846BD4680BC704716
:1023C000E00B002180B400AF024B1B781846BD46DD
:1023D00080BC7047E50B002180B586B002AF786005
:1023E0000B46FB701346BB70BB789BB21A460521A7
:1023F000F72020F042FB034603339BB223F0030394
:10240000BB817B68002B2BD07B6803F00303002B80
:1024100003D095211920FEF789FB154A7B681360CC
:10242000134ABB8993800023FB8114E0104B1B6887
:10243000FA890F49898801FB02F21344BB60BB781B
:102440009BB2B98900930523F722B86820F0E7FA18
:10245000FB890133FB81FB789BB2FA899A42E5D371
:10246000FB78BA8902FB03F318461037BD4680BDDE
:10247000000C002180B584B000AF3A601A460346D4
:10248000FB710B46BB7113467B713B6803F007037E
:10249000002B04D03B6803F00303002B03D01F2163
:1024A0004C20FEF743FBFB799BB24FF48872194630
:1024B000002020F034FCF8607B79002B01D0002351
:1024C00000E03B46BA79F96801FB02F21146184672
:1024D00020F071F8B8607B7983F00103DBB2002B48
:1024E00005D0054AFB7913703B68044A1360BB684A
:1024F00018461037BD4680BD0C0C0021080C002189
:1025000080B584B000AF78600A4B1B789BB24FF463
:1025100088721946002020F002FCF860064B1B6808
:10252000FA687968184620F0FDF800BF1037BD46FC
:1025300080BD00BF0C0C0021080C00210122104BB3
:102540004FF0FF3000215A60C3F8080303F58053B1
:102550009A60C3F80012C3F80803C3F80015C3F863
:1025600004259A60C3F80803C3F80015C3F80425CE
:1025700003F5805341F6F872C3F80825704700BF91
:1025800000D000410A4B4FF40052C3F88020BFF343
:102590004F8FBFF36F8FC3F880214FF48042C3F891
:1025A0008020BFF34F8FBFF36F8FC3F88021704738
:1025B00000E100E008B5FFF7C1FFFFF7E3FF00F01F
:1025C0001BF8054B41F6F872C3F8082500F0AAF88D
:1025D000BDE8084000F0AEB800F0004108B5FFF7D4
:1025E000ADFFFFF7CFFF034B41F6F872C3F80825A4
:1025F00008BD00BF00F0004110B5054C204622F098
:10260000AAFB18B130211D20FEF790FA607010BDB2
:102610000D0C00212DE9F04707462B4E2B4C2A4884
:1026200022F09DFB054608B1FF2373704FF00108AF
:102630000023DFF89C90C4F80480C4F80031C4F88B
:102640000431C4F80475C4F80080D4F8003113B91B
:10265000D4F80431E3B1D4F80431002BE8D1A5B9A2
:1026600096F80180032375704FF400523046C4F889
:102670000833184BC4F80451C4F80051C3F8802142
:1026800022F07CFBB8F1000FC9D10020BDE8F08733
:10269000D9F81030DB06D8D50E4B4FF40052C3F8F2
:1026A0008021EFF3108A72B60323C4F80433D4F800
:1026B000003123B9D4F804310BB922F06AFBBAF126
:1026C000000FC2D162B6C0E70D0C002100D000415E
:1026D00000ED00E000E100E0114B1A6870B5E2B1D6
:1026E0005A680921012501321E68092A28BF0022E3
:1026F00005FA02F426420DD05A60EFF3108172B64B
:102700001A6822EA04021A6001B962B65B680360C3
:10271000002070BD0139E6D15A600520F9E700BFFD
:10272000100C0021024B00221A605A60704700BF53
:10273000100C0021014B00221A707047180C002168
:10274000084B10B51C784CB91CF060FE064BFF28F6
:10275000187005D173211F20FEF7E8F90F2010BD76
:102760002046FCE7180C00211000002110B5044C95
:102770002078FF2803D01CF065FEFF23237010BDD6
:1027800010000021044B4FF6FF7200219A86DA8672
:1027900083F832101A877047640C0021044B4FF6FF
:1027A000FF7200219A86DA8683F832101A87704702
:1027B000640C0021054B9A8E824205D100214FF610
:1027C000FF7283F832109A86704700BF640C0021B4
:1027D000014BD886704700BF640C00210A4A4FF6AF
:1027E000FF710346B2F834C08C4503D00022104676
:1027F0001A60704792F83210012902D001201A6045
:1028000070470020704700BF640C0021064B93F80E
:102810003220012A06D00122D98E104683F83220B8
:102820009986704700207047640C0021014B18877F
:10283000704700BF640C0021074B0246B3F834C058
:10284000198F8C4501D00020704793F83200002882
:10285000FAD0012013607047640C0021094B998E57
:102860001A8F914201D0002070474FF6FF7193F804
:1028700032209986002AF6D00022012083F83220E7
:10288000704700BF640C0021064B998E1A8F91424D
:1028900001D00120704793F83200B0FA80F040096F
:1028A000704700BF640C0021704700BF034648B961
:1028B000094B4FF0010C08688A88586003F804CB74
:1028C0009A807047012800D07047034A08688988B9
:1028D0009372D06011827047A00C002140B90C4A5D
:1028E00013781BB15068128908608A8018467047B7
:1028F000012809D1064A937A002BF7D0D068128AB2
:10290000086018468A80704700231846704700BF49
:10291000A00C002100B580EA020C1A78087891F822
:1029200005E050404A78604493F801C082EA0C0206
:1029300091F802C0024498788CEA000CC87894445C
:10294000DA7850400A7900EB0C0193F804C058790A
:1029500082EA0C038EEA00020B44DA420CBF01202B
:1029600000205DF804FB00BF10B9054B18787047D4
:10297000012802D1024B987A70470020704700BFAF
:10298000A00C002130B503468DB0CA780D46002456
:1029900000685968EC468DF81F209A68DB68069439
:1029A0008DF81C40CDE90444ACE80F002B79684653
:1029B0008DF81E306B798DF81D3020F011FD2A78CE
:1029C0009DF82F309A4202D020460DB030BD6A7873
:1029D0009DF82E309A42F7D1AC789DF82D00201A40
:1029E000B0FA80F040090DB030BD00BF30B50C46E4
:1029F000032105468DB0601852B3FEF71DFB6379C5
:102A0000EC4603F03F0343F0400363718DF81D3043
:102A10000023286806938DF81C306968AA68CDE900
:102A20000433E3788DF81F3023798DF81E30EB687E
:102A3000ACE80F00684620F0D3FC9DF82F109DF8FD
:102A40002E209DF82D3021706270A3700DB030BD26
:102A5000FEF700FBD3E700BF10B5044639B10621ED
:102A6000FEF7EAFA637903F03F03637110BD0621B4
:102A7000FEF7F0FA637903F03F03637110BD00BF06
:102A800010B40B46074C312223F8042BD4F80E0067
:102A9000D4F81210D4F81620648B07C31C8010BC25
:102AA000704700BFB80C002170B5224D296BEC6A4D
:102AB0000B78A83403F00303032B1AD1EB8E01200B
:102AC000AA8E0343207442F40062EB86AB6BAA86A5
:102AD0009847296B237E013B18BF012323764B784F
:102AE00033B1D4E92032013342F10002C4E920328B
:102AF00070BD002BEED04B78002BEBD0AA8E42F4A9
:102B00000062AA86EA6B002AF2D0FB2B08D895F85F
:102B1000403063B1AB6B00212020BDE87040184706
:102B200095F8413043F0100385F8413070BD012322
:102B30000370CFE7B80C002170B57E4C002382B043
:102B4000E56A8DF8053095F8CB2005F1A80694F8D4
:102B500076300AB10433DBB2FF2B11D180B995F87E
:102B60006F3095F86E108B4202D0FF2017F024F9D9
:102B7000B37D032B00F2D980DFE803F0051F7F6FE0
:102B800095F86E10F1E794F877306B48ADF80630A1
:102B9000A5F85430FFF750FE002840F09D800DF15D
:102BA00005020DF10601E06F1FF085F9A06720B165
:102BB00096F85D30002B00F0A280604B1846A367AA
:102BC000F37DDB0003F00802037803F0F303134303
:102BD000327E920002F00402134303F0EF0203F08E
:102BE0000303032B027002D1C378022B11D0E06FD4
:102BF0001FF08CFA48B9A06F027802F00303032B90
:102C000007D0FFF741FE002876D1A06F027842F08E
:102C10001002027096F8223013B14378002B46D18F
:102C200017F01EFB16F0ECFE6A6941F64B539A4210
:102C300036D8012195F86F20084617F0D9FBA26F0E
:102C400001233F491088927884F8B030A4F8B4008A
:102C500084F8B7308A7002B070BD3748FFF7ECFDDA
:102C600000285DD0A06FC3781B2BA9D1012105F1ED
:102C7000100017F0D3F8A06FA2E7B5F854300DF1AB
:102C800005020DF10601E06FADF806301FF013F9F3
:102C9000A067002894D140F2E5212720FDF746FFE8
:102CA00095F86F200121002017F0A2FBC7E7D4F8A8
:102CB000800017F0D5FA94F82810D4F88000D6E9EF
:102CC0001E23B1FA81F6A16F7609C4E9262384F8A0
:102CD000A06016F03BFEA7E7E38E8020A16F43F0D3
:102CE0008003A26BE38690470121A06F7174C378C3
:102CF0001B2B7FF465AFBAE7A06F027889E79DF8D8
:102D000005302BB1BDF8061003F0BCFFA06F57E7EC
:102D1000038001218370A06F03F0E6FDA06FF1E74F
:102D200040F2EE212720FDF701FF40F2FB21272092
:102D3000FDF7FCFEB80C0021300D0021FC0C002139
:102D40006C0D002110B5134C17F05CF916F058FE0D
:102D50000021A36BA08E9847237F53B9D4F8BC30D1
:102D600094F8411094F8B8009847002384F8B730DD
:102D700010BD234607CB1B88C4F80E0004F11D00CC
:102D8000C4F81210C4F8162002220349638304F029
:102D9000DBFAE3E7B80C0021812A0001034B93F82A
:102DA000B73003B97047FFF7CDBF00BFB80C0021A3
:102DB000174A92F828307BB180B992F8B410C9064E
:102DC0000ED503B30021D38E9B0714D5936FDB7808
:102DD000981E18BF012070470128EED000207047D0
:102DE000D2F8C010D06B0978C1F30011C1F1010114
:102DF00020B1002BE7D131B101207047B2F8C400F7
:102E00000028F9D1F5E7D08E003818BF01207047AF
:102E1000B80C002108B5094B93F8B720022A07D156
:102E20001A7B42F001021A73BDE80840FFF78ABF1F
:102E300040F249212720FDF779FE00BFB80C0021A0
:102E4000F8B52C4C0646E56AD4F8C03095F8CB208E
:102E500005F1A80794F8760023630AB1031DD8B2E0
:102E6000FF2895F86F1004D11EB995F86E3099427D
:102E700003D016F0A1FF97F823205AB3D4F88000AE
:102E800017F0EEF994F82830D4F88010003B206B4E
:102E900018BF012384F8A030D7E92023C4E92623F2
:102EA00016F054FD3EB995F86F0010F00C0018BFF5
:102EB000282017F035FA6A6941F64B539A420FD829
:102EC00095F86E200021012017F092FA022384F871
:102ED000B730F8BD206B17F0C3F916F091FDE1E7AC
:102EE000002195F86E20084617F082FA022384F834
:102EF000B730F8BDB80C00212DE9F041444C82B048
:102F000006460F4694F8B720E56A012A5FFA82F870
:102F100005F1A80577D12B7C6BB1E38E002104204D
:102F200043F004032974E386A36B984794F8283090
:102F30000BB185F81280A16F0A7802F00302032A10
:102F400044D04B78EBB10223AB7595F8233023B313
:102F5000E36A93F86F1094F828300139003B18BFEA
:102F6000012384F8A030D5E92023C4E9262394F86E
:102F70007620072942D8DFE801F03E0941074141A8
:102F8000413B0123AB75E0E74FF0030800214346C6
:102F9000012000911F4916F075FC012F11D186B94F
:102FA000D4F8C8303046984758B194F8413043B906
:102FB0003046FFF7FDFE20B902B0BDE8F041FFF753
:102FC0003FBF02B0BDE8F041FFF7BCBEAB7D63B9C7
:102FD000E38E022043F00203E386A36B9847A16FC0
:102FE0000B7803F00303032BABD10323AB75ACE7E2
:102FF0004FF00208CAE74FF00008C7E740F221414E
:103000000620FDF793FD40F26B412720FDF78EFD72
:10301000B80C0021400D002170B50B4C94F8B7306E
:1030200073B906460D4603F0FF02012104F1440086
:10303000227703F059FCC4F8C060C4F8805070BD1A
:10304000D0212720FDF772FDB80C0021044A92F828
:10305000B73003F0FF000BB9107770470C207047B2
:10306000B80C0021024B012283F84020704700BFBA
:10307000B80C00212DE9F04385B0BF4C02AD85E8C6
:10308000030094F8B7100C98002940F0F081002B51
:1030900018BF002A00F0EB81002800F0E88101F061
:1030A000FF06C4F8C830C4F8BC0004F12803A263CA
:1030B00084F8406084F8416084F8CC6084F8B8609B
:1030C00084F8B060E686A68695E8030083E80300EE
:1030D000E56A16F0F7FE16F093FC95F9720005F11B
:1030E000A80716F071FF286A17F09EF8A86916F075
:1030F00071FF97F8330016F077FF94F82830002B13
:1031000000F0B28004201CF04BFC6A6941F64B537E
:103110009A4200F2C680012017F064F94D2016F0A3
:1031200005FE95F86F10012017F08EFE002800F0C4
:10313000B180924817F07EF82888FEF727FFE067F5
:103140002888FEF7F1FE95F87B30C4F8D0001BB953
:10315000696F002940F0D480D7F89430DFF820C29E
:10316000D7F88800D7F88C10D7F89020ACE80F007B
:10317000D7F89830C4F8A130D7F89C30CCF80D308F
:1031800094F82830002B40F09080E36A93F8C52033
:10319000263A012A40F2DB8093F8C620262A00F066
:1031A000D68093F86E10042900F0188111F00C0FEE
:1031B000A88F18BF4FF4296002F0D4F92B8F95F82F
:1031C0006F10834297F82390B5F8408028BF0346DC
:1031D00011F00C0F0CBFB5F842004FF4296008291C
:1031E00084F8773008BF042102F0BCF9B9F1000F70
:1031F00001D1043080B2404528BF40465FFA80F8D4
:1032000084F8D48004F08CFB20B1B8F12B0F38BFC8
:103210004FF02B0894F8281084F87680002940F0AD
:10322000D28097F82230002B00F0B480012395F86B
:103230006E6084F8A030013E6869D7E91E23C4E9B6
:10324000262341F64B53984294BF04200020072EBA
:1032500000F2E480DFE816F09700F900E200960043
:10326000E200E200E200FB0003201CF099FB6A6927
:1032700041F64B539A4210D8012017F0B3F84D2075
:1032800016F054FD95F86E10002017F0DDFD0028B3
:103290007FF44FAF05B0BDE8F083962016F046FDF1
:1032A000F0E7962016F042FD3BE7E26A92F8C5305F
:1032B000A3F12601012934D992F8C600262830D07E
:1032C000A3F121011346012900F2C780242840F010
:1032D000AA8092F8671092F86E310B4092F86E1047
:1032E0005A077BD413F0010274D19B077FF55EAFC0
:1032F000042973D0082971D0012918BF022124E0C4
:10330000B7F84A20BB8A93427FF426AFB5F87820FD
:1033100013440122A7F84A3095F87A0018F0EEFF1E
:103320001AE792F8E63392F86E10002B3FF43EAFA6
:10333000082953D0042951D0082B4FD0042B4DD04D
:10334000012901D0012B15D10121A88F34E793F871
:10335000422393F86E10002A3FF428AF08293DD08D
:1033600004293BD0082A39D0042A37D00129EBD0D0
:10337000012AE9D00221E8E7B80C0021F0E40201BB
:10338000400D0021032100220B463E490092FB2202
:1033900016F078FA0120FFF7CFFB3B4BD3F85035FE
:1033A00023F00803032B67D0002397F83320C4E9E8
:1033B0000033A360A3812988BB8A218022716380A6
:1033C00005B0BDE8F08397F823305BB90120FFF723
:1033D00037FDE2E7042901D0082946D108214FF43E
:1033E0002960E9E695F86F300122D7E92001013B19
:1033F00084F8A020C4E92601072B0FD8DFE803F0EA
:1034000005290E040E0E0E2B0326002133464246DC
:10341000012000911B4916F035FAD7E740F221410F
:103420000620FDF783FB92F86E3192F86E105A0772
:10343000D4D413F0010214D198077FF5B7AE082950
:10344000CCD004297FF458AFC8E701219BE70221C3
:1034500099E70126D9E70226D7E724287FF4A1AE11
:1034600037E70829BAD00429B8D011466DE740F2F1
:1034700045112720FDF75AFB40F202212720FDF7D6
:1034800055FB00BF400D00210080004110B5174CD6
:1034900094F8B730DBB194F828307BB194F8B730AA
:1034A000022B1ED1E36AD3F8200316F00FFFE36A64
:1034B00093F87B200AB9596F61B910BD94F8B73001
:1034C000012BF4D040F21A212720FDF72FFBFFF744
:1034D00039FCECE7114693F87A00BDE8104018F08B
:1034E0000DBF40F21E212720FDF720FBB80C002164
:1034F000FFF728BC014B1877704700BFB80C0021BC
:10350000014B93F8B0007047B80C0021024B988E25
:10351000C0F38020704700BFB80C0021014B93F826
:10352000CC007047B80C00212DE9F0411E4F8207F6
:1035300082B00546FC6A0E4604F1A80411D4EB07DC
:103540000CD5217ED4E92032013342F10002012959
:10355000C4E920320CBF00230123237602B0BDE86A
:10356000F081FB6BDBB1B7F8C4201846396B03322E
:1035700091F801801CF0BEF80DF1020201A9386338
:10358000D7F8D0001EF090FF01981EF051FF0122E5
:1035900030604146D7F8D0001EF07AFECFE740F207
:1035A0005C412720FDF7C2FAB80C00212DE9F04755
:1035B000002386B0A54C06468DF80F300F46E56A0D
:1035C000CDE9043394F8B730A835022B5FFA83F8BD
:1035D00040F08981A38E13F0400106D1A36B4020F7
:1035E0009847A38E43F04003A386002E61D095F840
:1035F0002330002B40F00A81236B597889B2A4F85C
:10360000C410002940F016810022E2631A78E87D98
:10361000A38EC2F3800143F480738842A38600F036
:10362000DF80E16A94F8280001F1A80999F81610E2
:10363000D9B1022900F03E81002189F8161020B18D
:1036400099F81230002B40F02B8199F81130002BA3
:1036500040F0028199F81730012B0CBF00230123A1
:1036600089F81730236B1A78A38E43F480634FF0E8
:103670000009A386C2F3C0022B7E934228D104F036
:103680004FF9002800F0BD80226B137803F003038C
:10369000013B012B00F2B580527894F8D4309A4265
:1036A00040F2AF8094F8413043F0100384F8413089
:1036B0000EE095F82320002A40F0C38043F4007305
:1036C0004FF00009A38694F8CC30013384F8CC3055
:1036D00095F822303BB394F8283041F64B52B3FAB8
:1036E00083F35B0984F8A030E36A586993F86E109D
:1036F000904294BF042000200139D5E91E23C4E97B
:103700002623072900F2C480DFE801F07804C2759F
:10371000C2C2C2064FF00108002243464C49009243
:10372000FB2216F0AFF8002F45D194F8CC30012BD6
:1037300041D8D4F8C8300120984700283BD094F8ED
:103740004130002B37D10120FFF732FB074600281C
:1037500031D1FFF7F1F99DF80F30002B32D1B9F1DB
:10376000000F06D094F82830002B3BD16389013339
:10377000638166B3E3880022013384F8CC20E380C0
:10378000344804F0A7FE049840B11EF051FEE16AEF
:10379000002308220130037203F0B6FD059B33B10C
:1037A000E16A002010221872059803F0ADFD97B968
:1037B00006B0BDE8F08716F07FFE9DF80F300127B8
:1037C000002BCCD005A90220FFF7AEFEC7E7238966
:1037D00001332381D4E7FFF7B5FA06B0BDE8F087DF
:1037E000B14647E7E3882189AA8A0B4313439BB27A
:1037F000002BBED0BAE74FF003088DE74FF000086A
:103800008AE70DF10F00FFF74FF961E716F03CF979
:1038100016F01EF9236B597800287FF4EFAE0029CB
:103820003BD01B782A7EC3F3C0039A4255D089B29D
:10383000A4F8C410D4F8D0001EF0B5FC236BE063EC
:10384000E4E616F05BF9A38E38E700BFB80C002160
:10385000400D0021E00C00214FF0000A89F811A072
:10386000FEF7FCFF002848D0E38E5146082043F0C5
:103870000803E386A36B9847D9F878300133C9F879
:103880007830D9F87C3043F10003C9F87C30E1E6A8
:1038900040F221410620FDF749F9A4F8C410B3E62F
:1038A000E38E102089F8121043F01003E386A36B17
:1038B0009847CAE604A9E06F1EF050FBC0B1D9F8E2
:1038C000783094F828000133C9F87830D9F87C3082
:1038D00043F10003C9F87C30AEE6012384F8B83028
:1038E000FFF730FA64E740F2DF412720FDF71EF9C9
:1038F00040F2DA312720FDF719F940F2F1312720A3
:10390000FDF714F96E4B2DE9F0475A781C18013A6F
:1039100094F802C1D2B282425A7036D168B393F899
:10392000022162452FD0012827D093F80321624558
:1039300029D0022821D093F80421624523D00328FE
:103940001BD093F8052162451DD0042815D093F8AB
:103950000621624517D005280FD093F8072162454C
:1039600011D0062809D093F8082162450BD007280A
:1039700003D093F80921624505D01A78013AD2B2F2
:1039800094451A7043D1BDE8F0871101060100EBA0
:103990004000B71C82364FEA400E881C82311D1849
:1039A00053F800A0D8190EF5857ED5F80490D5F807
:1039B0000880ED6843F807A0C0F80490C0F80880BC
:1039C000C560581853F8018002EB4201D0F804900A
:1039D0001A4487684900C568981943F8068001F5BC
:1039E0008571C0F804908760C56092F8020184F880
:1039F00002015818595843F80E1003EB0E01808845
:103A0000888092F83A21587884F83A2186E7C2EB08
:103A1000C202CCEBCC0102F5A97201F5A9719C5848
:103A20001A4458185C50918894795A78818084712E
:103A30001978002AA7D093F80201884231D0012AD0
:103A4000A1D093F8030188422DD0022A9BD093F88D
:103A5000040188422BD0032A95D093F805018842AF
:103A600023D0042A8FD093F80601884221D0052A5A
:103A700089D093F8070188421FD0062A83D093F893
:103A80000801884217D0072A3FF47DAF93F8092137
:103A90008A427FF478AF0722134483F802C1BDE85D
:103AA000F0870022F8E70122F6E70322F4E702227A
:103AB000F2E70422F0E70622EEE70522ECE700BF7A
:103AC000900D0021044B5A78824203D9184490F893
:103AD0004201704700207047900D002108B5084B47
:103AE0004FF4C572002118461BF07AFE00224FF4F5
:103AF000617180F88A2180F88B21A0F88C1108BDB3
:103B0000900D0021014B83F88B017047900D00212F
:103B1000014B93F88B017047900D0021D54B2DE997
:103B2000F04393F80080B8F1000F00F03A8191F86B
:103B300000C04F7893F8544193F853517C4093F868
:103B400055918CEA050591F804E02C4493F8525104
:103B500045402C448D7885EA090909EB0406CC78A8
:103B600093F8569184EA0909B1444E7993F85711B4
:103B70008EEA0101894493F85811714011EB090153
:103B800000F01381B8F1010F00F00B8193F85A1186
:103B900093F85B918CEA010187EA0909494493F89B
:103BA000599180EA0909494493F85C9185EA090929
:103BB000894493F85D116140894493F85E118EEA5F
:103BC0000101494493F85F9186EA090919EB010F55
:103BD00000F0EA80B8F1020F00F0E38093F8611181
:103BE00093F862918CEA010187EA0909494493F844
:103BF000609180EA0909494493F8639185EA0909CB
:103C0000894493F864116140894493F865118EEA00
:103C10000101494493F8669186EA090919EB010FFD
:103C200000F00881B8F1030F00F0BB8093F8681131
:103C300093F869918CEA010187EA0909494493F8EC
:103C4000679180EA0909494493F86A9185EA09096C
:103C5000894493F86B116140894493F86C118EEAA2
:103C60000101494493F86D9186EA090919EB010FA6
:103C700000F0E280B8F1040F00F0938093F86F1128
:103C800093F870918CEA010187EA0909494493F895
:103C90006E9180EA0909494493F8719185EA09090E
:103CA000894493F872116140894493F873118EEA44
:103CB0000101494493F8749186EA090919EB010F4F
:103CC00000F0BF80B8F1050F6BD093F8761193F830
:103CD00077918CEA010187EA0909494493F87591C3
:103CE00080EA0909494493F8789185EA09098944E9
:103CF00093F879116140894493F87A118EEA0101B1
:103D0000494493F87B9186EA090919EB010F00F009
:103D10009D80B8F1060F44D093F87D1193F87E9101
:103D20008CEA010187EA0909494493F87C9180EA09
:103D30000909494493F87F9185EA0909894493F870
:103D400080116140894493F881118EEA0101494450
:103D500093F8829186EA090919EB010F7BD0B8F13B
:103D6000070F1ED093F884118CEA010C93F885118B
:103D70004F4093F88311BC44484093F88611604447
:103D80004D4093F8871128444C4093F88811204403
:103D90008EEA010E93F8891186444E4016EB0E0F01
:103DA00046D00120BDE8F083012158780028F8D0E2
:103DB00093F802418C4241D00128F2D093F803419C
:103DC0008C4240D00228ECD093F804418C423FD082
:103DD0000328E6D093F805418C423ED00428E0D079
:103DE00093F806418C423BD00528DAD093F807417E
:103DF0008C4238D00628D4D093F808418C4235D074
:103E00000728CED093F809018842CAD10721084675
:103E10001AB110705A788242C3D90B4493F83A21F0
:103E200093F84A01012A08BF40F00100BDE8F08381
:103E30000721BAE70221B8E70321B6E700210846C7
:103E4000E6E70421B1E701210846E1E70521ACE7F7
:103E500002210846DCE70621A7E703210846D7E749
:103E600004210846D4E705210846D1E70621084683
:103E7000CEE700BF900D00212DE9F84FC94C164642
:103E80001F462578002D00F04C8191F800C094F871
:103E900053A194F852E18CEA0A0A91F8019080EA61
:103EA0000E0E91F80280CA78F24494F854E10B792E
:103EB00089EA0E0E94F858B1F24494F855E188EA74
:103EC0000E0ED64494F856A182EA0A0AD64494F813
:103ED00057A183EA0A0AF24491F805E08EEA0B0B37
:103EE0001BEB0A0A00F02681012D00F05D8194F899
:103EF0005BA189EA0A0B94F85AA18CEA0A0ADA440F
:103F000094F859B180EA0B0BDA4494F85CB188EA72
:103F10000B0BDA4494F85DB182EA0B0BDA4494F8A7
:103F20005EB183EA0B0BDA4494F85FB18EEA0B0BB7
:103F30001BEB0A0F00F07E81022D00F0358194F812
:103F400061A18CEA0A0B94F862A189EA0A0ADA44B0
:103F500094F860B180EA0B0BDA4494F863B188EA14
:103F60000B0BDA4494F864B182EA0B0BDA4494F850
:103F700065B183EA0B0BDA4494F866B18EEA0B0B59
:103F80001BEB0A0F00F05881032D00F00D8194F80F
:103F900068A18CEA0A0B94F869A189EA0A0ADA4452
:103FA00094F867B180EA0B0BDA4494F86AB188EAB6
:103FB0000B0BDA4494F86BB182EA0B0BDA4494F8F9
:103FC0006CB183EA0B0BDA4494F86DB18EEA0B0BFB
:103FD0001BEB0A0F00F03281042D00F0E58094F80D
:103FE0006FA18CEA0A0B94F870A189EA0A0ADA44F4
:103FF00094F86EB180EA0B0BDA4494F871B188EA58
:104000000B0BDA4494F872B182EA0B0BDA4494F8A1
:1040100073B183EA0B0BDA4494F874B18EEA0B0B9C
:104020001BEB0A0F00F00C81052D00F0BD8094F809
:1040300076A18CEA0A0B94F877A189EA0A0ADA4495
:1040400094F875B180EA0B0BDA4494F878B188EAF9
:104050000B0BDA4494F879B182EA0B0BDA4494F84A
:104060007AB183EA0B0BDA4494F87BB18EEA0B0B3E
:104070001BEB0A0F00F0E680062D00F0958094F807
:104080007DA18CEA0A0B94F87EA189EA0A0ADA4437
:1040900094F87CB180EA0B0BDA4494F87FB188EA9B
:1040A0000B0BDA4494F880B182EA0B0BDA4494F8F3
:1040B00081B183EA0B0BDA4494F882B18EEA0B0BE0
:1040C0001BEB0A0F00F0C080072D00F0BF8094F8B2
:1040D00084118CEA010C94F8851189EA01018C4461
:1040E00094F88311484094F88611844488EA0101C9
:1040F0008C4494F887114A4094F8881162444B40EC
:10410000134494F889218EEA020E1EEB030F00F08F
:10411000A4806378072B40F2A28007252846BDE8DB
:10412000F88F6378072BF8D801232A46237040F2D2
:10413000531345E055466378002B4DD094F8022187
:10414000AA4273D0012B47D094F80321AA426DD024
:10415000022B41D094F80421AA4267D0032B3BD014
:1041600094F80521AA4261D0042B35D094F8062199
:10417000AA425BD0052B2FD094F80721AA4255D034
:10418000062B29D094F80821AA424FD0072B23D020
:1041900094F80931AB420CBF122507252846BDE82B
:1041A000F88F00BF900D00216378072BB5D86B1CEA
:1041B000072D237055D8C5EBC503EA0003F253134E
:1041C000D1F800C0521B44F803C02344898822441C
:1041D0009980637882F852014FEA03195A1C3146DC
:1041E00004EB030809F1020062701022204401F080
:1041F0003BF809F1820010223946204401F034F8DE
:104200001021384600F0C4FF03461021304688F8DC
:10421000423100F0BDFF002388F802511D4688F8A6
:104220004A0188F83A312846BDE8F88F1225284619
:10423000BDE8F88F01257EE702257CE703257AE7B4
:10424000042578E7052576E7062574E76378072BCC
:104250003FF664AF08232370ADE707256BE7013510
:10426000257044212820FCF761FC00BFC94B1A7857
:10427000002A00F038812DE9F04191F800C04F7814
:1042800093F8544193F853517C4093F855818CEA4C
:10429000050591F804E02C4493F8525145402C4414
:1042A0008D7885EA080808EB0406CC7893F85681E7
:1042B00084EA0808B0444E7993F857118EEA010158
:1042C000884493F85811714011EB080100F00D81FA
:1042D000012A00F0058193F85A1193F85B818CEA6A
:1042E000010187EA0808414493F8598180EA0808E7
:1042F000414493F85C8185EA0808884493F85D118D
:104300006140884493F85E118EEA0101414493F8BC
:104310005F8186EA080818EB010F00F02081022A6D
:1043200000F0DE8093F8611193F862818CEA01015C
:1043300087EA0808414493F8608180EA080841440C
:1043400093F8638185EA0808884493F86411614012
:10435000884493F865118EEA0101414493F866811F
:1043600086EA080818EB010F00F0FB80032A00F032
:10437000B78093F8681193F869818CEA010187EAA4
:104380000808414493F8678180EA0808414493F89B
:104390006A8185EA0808884493F86B116140884473
:1043A00093F86C118EEA0101414493F86D8186EA1D
:1043B000080818EB010F00F0D680042A00F0908066
:1043C00093F86F1193F870818CEA010187EA08086D
:1043D000414493F86E8180EA0808414493F8718162
:1043E00085EA0808884493F872116140884493F87C
:1043F00073118EEA0101414493F8748186EA08083A
:1044000018EB010F00F0B380052A69D093F87611FC
:1044100093F877818CEA010187EA0808414493F810
:10442000758180EA0808414493F8788185EA080894
:10443000884493F879116140884493F87A118EEAA0
:104440000101414493F87B8186EA080818EB010FCB
:1044500000F09180062A43D093F87D1193F87E8175
:104460008CEA010187EA0808414493F87C8180EADC
:104470000808414493F87F8185EA0808884493F846
:1044800080116140884493F881118EEA0101414412
:1044900093F8828186EA080818EB010F6FD0072A8B
:1044A0001ED093F884218CEA020C93F885215740A2
:1044B00093F88321BC44504093F8862160445540D2
:1044C00093F887212844544093F8882120448EEAA9
:1044D000020E93F889218644564016EB0E0F3CD00D
:1044E0000020BDE8F081104670470A465878002841
:1044F000F7D093F80211914237D00128F0D093F809
:104500000311914235D00228EAD093F80411914268
:1045100033D00328E4D093F80511914231D0042818
:10452000DED093F8061191422DD00528D8D093F80B
:104530000711914229D00628D2D093F80811914250
:1045400025D00728CCD093F809319342C8D1072051
:10455000FFF7D8F90120BDE8F0810722C6E7012264
:10456000C4E70222C2E70322C0E70020F0E70422EA
:10457000BCE70120ECE70522B8E70220E8E70622C5
:10458000B4E70320E4E70420E2E70520E0E70620A3
:10459000DEE700BF900D0021084B5878013840B28B
:1045A000002809DB10B5C4B22046FFF7ABF9601E46
:1045B00040B2431CF7D110BD704700BF900D0021E1
:1045C000014B83F88A017047900D0021014B93F84D
:1045D0008A017047900D0021421E4AF2B71103462E
:1045E00092B28A4204D8034A0120A2F88C31704763
:1045F00000207047900D0021014BB3F88C017047EB
:10460000900D0021C74B2DE9F0431F78002F00F0DB
:10461000338191F800C04E7893F8542193F85341B8
:1046200072408D788CEA040493F8559193F8568182
:10463000224493F8524185EA090991F804E0444084
:104640002244CC7849794A4484EA080808EB0209F4
:1046500093F857818EEA080202EB090893F8582173
:104660004A4012EB080200F00A81012F00F0048199
:1046700093F85B2193F85A8172408CEA080842440F
:1046800093F8598180EA0808424493F85C8185EAEE
:104690000808904493F85D216240904493F85E21AD
:1046A0008EEA0202424493F85F8181EA080818EB1F
:1046B000020F00F01C81022F00F0DE8093F86121D0
:1046C00093F862818CEA020286EA0808424493F871
:1046D000608180EA0808424493F8638185EA08080B
:1046E000904493F864216240904493F865218EEAE7
:1046F0000202424493F8668181EA080818EB020F2F
:1047000000F0F780032F00F0B78093F8682193F84A
:1047100069818CEA020286EA0808424493F86781BC
:1047200080EA0808424493F86A8185EA08089044C0
:1047300093F86B216240904493F86C218EEA020258
:10474000424493F86D8181EA080818EB020F00F0EB
:10475000D480042F00F0908093F86F2193F870813B
:104760008CEA020286EA0808424493F86E8180EAE5
:104770000808424493F8718185EA0808904493F848
:1047800072216240904493F873218EEA02024244FF
:1047900093F8748181EA080818EB020F00F0B180E9
:1047A000052F69D093F8762193F877818CEA02027D
:1047B00086EA0808424493F8758180EA0808424472
:1047C00093F8788185EA0808904493F8792162404B
:1047D000904493F87A218EEA0202424493F87B8156
:1047E00081EA080818EB020F00F08F80062F43D0F3
:1047F00093F87D2193F87E818CEA020286EA08080C
:10480000424493F87C8180EA0808424493F87F810F
:1048100085EA0808904493F880216240904493F818
:1048200081218EEA0202424493F8828181EA0808DB
:1048300018EB020F6DD0072F1ED093F884218CEA5D
:10484000020C93F88521564093F88321B4445040DC
:1048500093F886216044554093F8872128445440BA
:1048600093F8882120448EEA020E93F88921864429
:10487000514011EB0E0F38D00820BDE8F0831046F0
:104880005A78002AF8D093F80211814233D0012AD5
:10489000F2D093F80311814231D0022AECD093F880
:1048A000041181422FD0032AE6D093F805118142EA
:1048B0002DD0042AE0D093F8061181422BD0052A8E
:1048C000DAD093F80711814227D0062AD4D093F882
:1048D0000811814223D0072ACED093F809318342B0
:1048E00014BF08200720BDE8F0830720C8E7012097
:1048F000C6E70220C4E70020BFE70320C0E701208D
:10490000BBE70420BCE70220B7E70520B8E7032097
:10491000B3E70620B4E70420AFE70520ADE70620A3
:10492000ABE700BF900D0021044B5A78824203D9B7
:1049300003EB00108230704700207047900D00217B
:10494000044B5A78824203D903EB001002307047BF
:1049500000207047900D002110B40D4C6378834205
:1049600002D8002010BC7047204490F80231C3EBFD
:10497000C303E01803F2531390F852010870E118D2
:10498000E358012010BC13608B889380704700BFF0
:10499000900D002170B506460D4615F009FD14F086
:1049A000DDFE0A4B93F88A4114B1597811B90C46CF
:1049B000204670BD981C82333246002D08BF184631
:1049C00014F098FE14F0F0FE204670BD900D00210A
:1049D00008B514F0FFFE08B9FF2008BDBDE8084087
:1049E00014F02EBF14F0F6BE8C460246012108B525
:1049F000054B03EB0C1303F1820014F07BFEBDE8C2
:104A0000084014F0D1BE00BF900D0021074B10B537
:104A100093F88A4114B1597811B90C46204610BD5B
:104A20000246981C14F066FE204610BD900D002131
:104A3000F8B5114D6E7856B1002407462346E918A3
:104A400091F8421121B10134E3B2B342F7D3F8BD7A
:104A500003EB4301013405EB03133A4605EB410137
:104A600003F1820001F58571FDF7C0FF6E78E3B2B6
:104A7000B342E4D3F8BD00BF900D00210048704759
:104A8000200F0021084B5A7882420AD91A1892F84E
:104A9000422132B900EB400003EB400000F5857085
:104AA00070470020704700BF900D002101EB4101CD
:104AB000044B0268490001F585715A5019448388F6
:104AC0008B807047900D0021064B5A78824206D9A0
:104AD000184490F83A01B0FA80F04009704700207D
:104AE000704700BF900D00212DE9F0470C460546A8
:104AF00006211746204600F04BFB064650B1DA4827
:104B0000427822B1394600F59D701AF069FE3046B0
:104B1000BDE8F087D44B93F80080B8F1000FF6D0D1
:104B2000207894F801E093F8542193F853118EEA19
:104B3000020294F802C0414093F855A193F85691AF
:104B40000A4493F852118CEA0A0A69400A44E1784F
:104B5000524481EA090909EB020A227993F8579134
:104B6000647982EA0909D14493F858A184EA0A0ACF
:104B70001AEB090F00F05B81B8F1010FC7D093F871
:104B80005A9193F85BA180EA09098EEA0A0AD14496
:104B900093F859A185EA0A0AD14493F85CA18CEAFA
:104BA0000A0ACA4493F85D9181EA0909CA4493F854
:104BB0005E9182EA0909D14493F85FA184EA0A0A66
:104BC0001AEB090F00F03581B8F1020F9FD093F86E
:104BD000619193F862A180EA09098EEA0A0AD14438
:104BE00093F860A185EA0A0AD14493F863A18CEA9C
:104BF0000A0ACA4493F8649181EA0909CA4493F8FD
:104C0000659182EA0909D14493F866A184EA0A0A07
:104C10001AEB090F00F00F81B8F1030F3FF477AFE3
:104C200093F8689193F869A180EA09098EEA0A0A63
:104C3000D14493F867A185EA0A0AD14493F86AA19E
:104C40008CEA0A0ACA4493F86B9181EA0909CA44BA
:104C500093F86C9182EA0909D14493F86DA184EA32
:104C60000A0A1AEB090F00F0EA80B8F1040F3FF4CA
:104C70004EAF93F86F9193F870A180EA09098EEA1C
:104C80000A0AD14493F86EA185EA0A0AD14493F83E
:104C900071A18CEA0A0ACA4493F8729181EA09095F
:104CA000CA4493F8739182EA0909D14493F874A134
:104CB00084EA0A0A1AEB090F00F0C580B8F1050F63
:104CC0003FF425AF93F8769193F877A180EA09092C
:104CD0008EEA0A0AD14493F875A185EA0A0AD144FA
:104CE00093F878A18CEA0A0ACA4493F8799181EA88
:104CF0000909CA4493F87A9182EA0909D14493F8E0
:104D00007BA184EA0A0A1AEB090F00F0A080B8F12F
:104D1000060F3FF4FCAE93F87D9193F87EA180EAF4
:104D200009098EEA0A0AD14493F87CA185EA0A0AA5
:104D3000D14493F87FA18CEA0A0ACA4493F880917F
:104D400081EA0909CA4493F8819182EA0909D144A8
:104D500093F882A184EA0A0A1AEB090F7BD0B8F112
:104D6000070F3FF4D4AE93F8848180EA080093F8EB
:104D700085818EEA080E704493F883E185EA0E057A
:104D8000054493F886018CEA000C93F8870165448A
:104D9000414093F88801294442400A4493F889111C
:104DA0004C40D4427FF4B3AE07215A78002A3FF436
:104DB000AEAE93F8020188423FD0012A3FF4A7AE7D
:104DC00093F8030188423CD0022A3FF4A0AE93F846
:104DD0000401884239D0032A3FF499AE93F80501C3
:104DE000884236D0042A3FF492AE93F806018842F6
:104DF00033D0052A3FF48BAE93F8070188422ED0BA
:104E0000062A3FF484AE93F80801884229D0072A85
:104E10003FF47DAE93F809218A427FF478AE0722F1
:104E20001344012683F83A713046BDE8F0873146D5
:104E3000BBE70121B9E70221B7E70022F0E7032130
:104E4000B3E70122ECE70421AFE70222E8E70521FE
:104E5000ABE70322E4E70621A7E70422E0E7052207
:104E6000DEE70622DCE700BF900D0021002342F2BE
:104E7000107CA0F8482003644B1E0CFB0232B2FBEE
:104E8000F1F14164704700BF70B50D460021064640
:104E9000FCF746FE686018B1002318462B7070BD01
:104EA000044601213046FCF73BFE686018B101233F
:104EB00020462B7070BD022070BD00BF38B504467F
:104EC0000D4631B1012965D002292CD003295AD0D1
:104ED00038BD4FF483621AF083FC49230122042178
:104EE00084F817316FF03B0384F8CD20072284F853
:104EF0001931FE232B2084F8181184F81A217F2100
:104F0000414A84F84E31202384F81B5184F81C5107
:104F100084F81D5184F8160184F8C110C4F8B0203B
:104F200084F8943338BD0023D0F8EC23416942F271
:104F30001075B0F8F203A4F8F630B4F8FA3001FBBB
:104F400003F3B3FBF2F3A4F8FA30531E05FB003071
:104F5000B0FBF2F0A4F8F800D4F8E80000FB01F18F
:104F6000B1FBF2F1C4F8E8102849B1FBF2F10131CC
:104F7000A4F8FE10B4F8F01005FB0133B3FBF2F314
:104F8000C4F8EC3038BD00F1CE01CD30BDE838407A
:104F900000F0C0BD436900251D49B0F8FA00D4F8FF
:104FA000E820194403FB00F003FB02F2A4F82653A7
:104FB00084F81B53A4F8F650B1FBF3F1B0FBF3F007
:104FC000B2FBF3F2C4F8EC1040F6B831A4F8FA00E2
:104FD000581EC4F8E820A4F8F01042F21071E28BD9
:104FE00001FB0200094A04F1CE01B2FBF3F2B0FB6F
:104FF000F3F3013204F1CD00A4F8F830A4F8FE2058
:10500000BDE8384000F086BD00E0FCFF005A6202B7
:105010007FC3C90138B504460D4631B1012965D0B9
:1050200002292CD003295AD038BD4FF462721AF0ED
:10503000D7FB49230122042184F817316FF03B0389
:1050400084F8CD20072284F81931FE232B2084F820
:10505000181184F81A217F213F4A84F84E31202309
:1050600084F81B5184F81C5184F81D5184F81601F2
:1050700084F8C110C4F8B02084F8293338BD002367
:10508000D0F85023416942F21075B0F85603A4F8E5
:10509000F630B4F8FA3001FB03F3B3FBF2F3A4F8F3
:1050A000FA30531E05FB0030B0FBF2F0A4F8F80014
:1050B000D4F8E80000FB01F1B1FBF2F1C4F8E8100C
:1050C0002649B1FBF2F10131A4F8FE10B4F8F0105A
:1050D00005FB0133B3FBF2F3C4F8EC3038BD00F14B
:1050E000CE01CD30BDE8384000F014BD436942F236
:1050F00010751B4AB0F8FA001A44D4F8E81003FB04
:1051000000F003FB01F1B2FBF3F2B0FBF3F0C4F8E3
:10511000EC2040F6B832A4F8FA00581EA4F8F020AB
:10512000E28B05FB02000D4AB1FBF3F1B2FBF3F297
:10513000B0FBF3F30132A4F8F8300023C4F8E81010
:1051400004F1CD0004F1CE01A4F8FE20A4F8F6305D
:10515000BDE8384000F0DEBC00E0FCFF005A62020F
:105160007FC3C90170B5047934F01F040ED1451E08
:10517000061D15F8010F02F00BFD0444B542E4B220
:10518000F7D1012C94BF0020012070BD002070BD1C
:10519000002964D04B1E062B00B562D98B0800F1A4
:1051A000040E02464FF0000C013BDBB20EEB830E07
:1051B00052F8043B724543EA0C0CF9D1CCF30723B7
:1051C000CCF307424CEA0303134301F0FC0243EA29
:1051D0001C6331F0FC0CDBB23CD010F802C043EA97
:1051E0000C0302F1010C5FFA8CFC614532D910F816
:1051F0000CC043EA0C0302F1020C5FFA8CFCDBB238
:10520000614527D910F80CC043EA0C0302F1030CE6
:105210005FFA8CFC61451DD910F80CC043EA0C0301
:1052200002F1040C5FFA8CFC614513D910F80CC034
:1052300043EA0C0302F1050C5FFA8CFC614509D9C5
:10524000063210F80CC0D2B243EA0C03914201D9E5
:10525000825C1343B3FA83F040095DF804FB01203C
:10526000704700221346B8E762B102F1FF3C0A44DE
:10527000431E5FFA8CF1084412F8011D03F8011F68
:105280009842F9D1704700BF30B51C468DB0C37B42
:10529000154642788DF80030837B8DF80E208DF80E
:1052A0000130437B8DF80230037B8DF80330C37AE5
:1052B0008DF80430837A8DF80530437A8DF8063006
:1052C000037A8DF80730C3798DF8083083798DF82B
:1052D000093043798DF80A3003798DF80B30C378A3
:1052E0008DF80C3083788DF80D30037868468DF892
:1052F0000F30CB7B4A788DF810308B7B8DF81E20D9
:105300008DF811304B7B8DF812300B7B8DF81330FC
:10531000CB7A8DF814308B7A8DF815304B7A8DF866
:1053200016300B7A8DF81730CB798DF818308B79D1
:105330008DF819304B798DF81A300B798DF81B30B8
:10534000CB788DF81C308B788DF81D300B788DF86C
:105350001F301EF045F88DB39DF82F009DF82E10DC
:105360009DF82D209DF82C30207061709DF82B0049
:105370009DF82A10A270E3709DF829209DF828302E
:10538000207161719DF827009DF82610A271E371CC
:105390009DF825209DF82430207261729DF823002D
:1053A0009DF82210A272E3729DF821209DF8203012
:1053B00020736173A273E3730DB030BD08AD0FCDE0
:1053C00020606160A260E3600DB030BDA0F10B030E
:1053D000042B08D9A0F121032F2818BF062B94BF56
:1053E0000120002070470120704700BF0D2900F206
:1053F0008380DFE801F00D11171D232939454B513A
:10540000585E67072A3A042A8CBF002001207047A3
:10541000B2FA82F040097047073A012A8CBF002097
:10542000012070470B3A022A8CBF002001207047F0
:105430000E3A012A8CBF002001207047113A0C2A35
:105440008CBF002001207047002B41D1A2F1130333
:10545000012B49D990F85E30002B47D0143A082A26
:105460008CBF002001207047A2F11103032B3BD910
:1054700090F85E001D2A8CBF002000F001007047EC
:10548000A2F10400B0FA80F040097047A2F10100D7
:10549000B0FA80F04009704703BBA2F10500B0FAF2
:1054A00080F0400970471E3A022A8CBF002001207C
:1054B0007047A2F121002F2A18BF062894BF0120AF
:1054C00000207047A2F12900B0FA80F0400970472F
:1054D000123A0B2A8CBF002001207047A2F1100065
:1054E000B0FA80F04009704701207047183A042A4A
:1054F0008CBF00200120704700207047F8B504469B
:105500000D46D0E9046717F065F908B3DDB12369EA
:1055100062699B1B62EB0702012B72F1000114DB35
:105520006FF001000021984271EB020215DB6A1E48
:105530001344B3FBF5F303FB05F5AE191D4647F124
:105540000007C4E904672846F8BD00252846F8BDD1
:105550004FF404712920FBF7E9FA40F21A212920BF
:10556000FBF7E4FA11F00C030CD04B0712D44FF404
:10557000747340229842194612D9401A90FBF2F0F7
:1055800080B2704702290DD0702809D97038C0F355
:10559000CF00704740F20E23102298421946ECD8F3
:1055A000002070473C28FBD93C38C0F38F0070477F
:1055B0000B68C0F86A307047034610F0010007D14D
:1055C0009A0704D413F0040018BF08207047022083
:1055D000704700BF2DE9F84F8946074608469246B6
:1055E00001F0ECFA0546484601F0ECFA10F001042F
:1055F000064659D1820700F1928010F0040474D15C
:10560000A34615F001084CD1AB0700F1838015F0DB
:10561000040803D04FF0010B4FF0080813F0D6FF39
:105620000640F6B2002E08BF002413F0CFFF05405D
:1056300097F86E30EDB2002D08BF4FF00008A3427E
:1056400026D08AF8004097F86F3043452FD044EABF
:105650000803DBB28AF80180002B4CD0D4B3082CAD
:1056600006D05846BDE8F88F042B01D0082B37D15F
:1056700097F86C31012BF4D1B7F87031012B97F802
:105680006E3050D0082BECD008238AF80030E8E7C1
:1056900000238AF8003097F86F20424529D043460E
:1056A000D8E74FF0010BB9E74FF0010BA9E7002352
:1056B0008AF80130002CD2D1484601F089FAB7F8B7
:1056C000BC3047F6FD72DB4303449BB2934288BF74
:1056D0004FF0000B97F86E30022BC5D8002BC0D1CD
:1056E00040F2D7210620FBF721FA4FF0010B0824E6
:1056F00087E78AF80130484601F06AFAB7F8BC300B
:10570000DB43184447F6FD7380B2984288BF4FF0E0
:10571000000BA3E74FF0010B4FF002087EE74FF0BC
:10572000010B02246DE7042BAED004238AF800306D
:1057300097E700BF012805D0022803D010F00C0025
:1057400018BF0420704700BFC1F3072384B05FFA7D
:1057500080FC012B0190C9B2C0F307201ED10129A2
:105760001CD10CEA000001400B401A46990731D4C5
:1057700013F0010102D113F0040131D190072DD4AF
:1057800012F0010303D112F0040318BF0823002014
:1057900061F3070063F30F2004B07047022901D1C1
:1057A000022BDED0042901D1042BDAD0BCF1010F89
:1057B00001D10128D5D0BCF1020F01D10228D0D0EF
:1057C000BCF1040F01D10428CBD00CEA030300EA9A
:1057D0000102CBE790074FF00201D1D50223D6E7B3
:1057E00093070DD412F0010303D112F0040318BF84
:1057F0000823BDF80620012A14BF08210421C6E7AA
:105800000223F6E7082908BF012884460CBF0120BF
:1058100000200FD0A1F10400BCF1010FB0FA80F01C
:105820004FEA501008BF002000B9704708211380CC
:10583000518070470421138051807047162A01D08F
:1058400000207047A0F10C02032A0CD9212806D0B1
:105850000029F5D00A78012A05D9162AF0D1232289
:1058600001201A7070472A2201201A70704700BF69
:10587000013908B5072914D8DFE801F0071013042F
:105880001313130440F6A66008BD034640F2E2423B
:1058900040F6C410002B08BF104608BD40F6C410E7
:1058A00008BD4FF468712920FBF740F980F87210A9
:1058B00012F068BA41F27073A0F57A729A4205D973
:1058C000064BA3FB0030C0F38F207047044BA3FBB3
:1058D0000030800900F5506080B270475917B7D189
:1058E000D34D62106FF45063C318062B04D940F2F5
:1058F000E24303FB00F070474FF47A73A0F5506069
:1059000003FB00F0704700BF41F64B53994208D9A2
:10591000C0EB401300EB830000EB8000400080B23E
:10592000704700EB800000EB80008000704700BFF4
:1059300041F64B53994205D9054BA3FB0030C0F308
:1059400087207047034BA3FB0030C0F3471070471C
:105950005917B7D11F85EB5141F64B53994294BF6C
:10596000642340F2E24303FB00F0704741F64B53DF
:10597000994205D9054BA3FB0030C0F38F20704737
:10598000034BA3FB0030C0F34F1070475917B7D13A
:105990001F85EB5141F64B53994209D9094B40F20F
:1059A000E242A3FB00139B0A02FB1303C01A7047D9
:1059B000054B6422A3FB00135B0902FB1303C01A0F
:1059C000704700BF5917B7D11F85EB5110B46FF462
:1059D000E9742044884294BF091A491A18680129B9
:1059E00000EB510494BF002001201C60136810BC20
:1059F000A3EB510111607047074B93F90030184435
:105A0000142804DC10F17F0F03DB40B27047142030
:105A100070476FF07E007047300F002108B514F01A
:105A2000E9FA084B93F900301844142804DC10F10B
:105A30007F0F03DB40B208BD142008BD6FF07E006D
:105A400008BD00BF300F002100B583B07F230DF1EA
:105A500007008DF8073014F0B9FC20B99DF9070054
:105A600003B05DF804FB0A4A9DF9073050784042C4
:105A700040B21844142806DC10F17F0F05DB40B259
:105A800003B05DF804FB1420EAE76FF07E00E7E75F
:105A9000300F0021014B187059707047300F0021F2
:105AA000024B00221A705A70704700BF300F00215D
:105AB000014B93F900007047300F0021014B93F91F
:105AC00001007047300F0021074B1A7803463AB99E
:105AD0000649012208680979186010461971704753
