:020000040000FA
:10000000C07D00209974000069AA02006D74000090
:100010006D7400006D7400006D7400006D7400005C
:10002000000000000000000000000000396D00002A
:100030006D74000000000000E16C00006D740000B1
:10004000B96D0000B96D0000B96D0000B96D000018
:10005000B96D0000B96D0000B96D0000B96D000008
:10006000B96D0000B96D0000B96D0000B96D0000F8
:10007000B96D0000B96D0000B96D0000B96D0000E8
:10008000B96D0000B96D0000B96D0000B96D0000D8
:10009000B96D0000B96D0000B96D0000B96D0000C8
:1000A000B96D0000B96D0000B96D0000B96D0000B8
:1000B000B96D0000B96D0000B96D0000B96D0000A8
:1000C000B96D0000B96D0000B96D0000B96D000098
:1000D000B96D0000B96D0000B96D0000B96D000088
:1000E000B96D0000B96D0000B96D0000B96D000078
:1000F000B96D0000B96D0000B96D0000B96D000068
:10010000B96D0000B96D0000B96D0000B96D000057
:10011000B96D0000B96D0000B96D0000B96D000047
:10012000B96D0000B96D0000B96D0000B96D000037
:10013000B96D0000B96D0000B96D0000B96D000027
:10014000B96D0000B96D0000B96D0000B96D000017
:10015000B96D0000FFFFFFFF81F0004102E000BF2A
:1001600083F0004330B54FEA41044FEA430594EA77
:10017000050F08BF90EA020F1FBF54EA000C55EAB2
:10018000020C7FEA645C7FEA655C00F0E2804FEA83
:100190005454D4EB5555B8BF6D420CDD2C4480EA65
:1001A000020281EA030382EA000083EA010180EA95
:1001B000020281EA0303362D88BF30BD11F0004FE3
:1001C0004FEA01314FF4801C4CEA113102D0404219
:1001D00061EB410113F0004F4FEA03334CEA133354
:1001E00002D0524263EB430394EA050F00F0A7806C
:1001F000A4F10104D5F1200E0DDB02FA0EFC22FA67
:1002000005F2801841F1000103FA0EF2801843FA5A
:1002100005F359410EE0A5F120050EF1200E012A4B
:1002200003FA0EFC28BF4CF0020C43FA05F3C01889
:1002300051EBE37101F0004507D54FF0000EDCF102
:10024000000C7EEB00006EEB0101B1F5801F1BD3AB
:10025000B1F5001F0CD349085FEA30004FEA3C0CAF
:1002600004F101044FEA445212F5800F80F09A80A5
:10027000BCF1004F08BF5FEA500C50F1000041EBA9
:10028000045141EA050130BD5FEA4C0C404141EBAD
:100290000101013C28BFB1F5801FE9D291F0000FA8
:1002A00004BF01460020B1FA81F308BF2033A3F157
:1002B0000B03B3F120020CDA0C3208DD02F1140C4E
:1002C000C2F10C0201FA0CF021FA02F10CE002F189
:1002D0001402D8BFC2F1200C01FA02F120FA0CFC82
:1002E000DCBF41EA0C019040E41AA2BF01EB0451CB
:1002F000294330BD6FEA04041F3C1CDA0C340EDCC9
:1003000004F11404C4F1200220FA04F001FA02F30B
:1003100040EA030021FA04F345EA030130BDC4F1C9
:100320000C04C4F1200220FA02F001FA04F340EABE
:100330000300294630BD21FA04F0294630BD94F06F
:10034000000F83F4801306BF81F480110134013D56
:100350004EE77FEA645C18BF7FEA655C29D094EAC7
:10036000050F08BF90EA020F05D054EA000C04BF45
:100370001946104630BD91EA030F1EBF0021002030
:1003800030BD5FEA545C05D14000494128BF41F0CF
:10039000004130BD14F580043CBF01F5801130BD33
:1003A00001F0004545F0FE4141F470014FF00000BE
:1003B00030BD7FEA645C1ABF194610467FEA655C6F
:1003C0001CBF0B46024650EA013406BF52EA033511
:1003D00091EA030F41F4002130BD00BF90F0000FFF
:1003E00004BF0021704730B54FF4806404F132043B
:1003F0004FF000054FF0000150E700BF90F0000FF4
:1004000004BF0021704730B54FF4806404F132041A
:1004100010F0004548BF40424FF000013EE700BFEA
:1004200042004FEAE2014FEA31014FEA02701FBF7A
:1004300012F07F4393F07F4F81F06051704732F0AC
:100440007F4208BF704793F07F4F04BF41F4002103
:10045000704730B54FF4607401F0004521F0004161
:100460001CE700BF50EA010208BF704730B54FF0EB
:1004700000050AE050EA010208BF704730B511F0EC
:10048000004502D5404261EB41014FF4806404F124
:1004900032045FEA915C3FF4D8AE4FF003025FEAAA
:1004A000DC0C18BF03325FEADC0C18BF033202EB2E
:1004B000DC02C2F1200300FA03FC20FA02F001FA88
:1004C00003FE40EA0E0021FA02F11444BDE600BF2B
:1004D00070B54FF0FF0C4CF4E06C1CEA11541DBFDA
:1004E0001CEA135594EA0C0F95EA0C0F00F0DEF8A5
:1004F0002C4481EA030621EA4C5123EA4C5350EA8A
:10050000013518BF52EA033541F4801143F48013DA
:1005100038D0A0FB02CE4FF00005E1FB02E506F06B
:100520000042E0FB03E54FF00006E1FB03569CF0C0
:10053000000F18BF4EF0010EA4F1FF04B6F5007FC6
:1005400064F5407404D25FEA4E0E6D4146EB060638
:1005500042EAC62141EA55514FEAC52040EA5E50C1
:100560004FEACE2EB4F1FD0C88BFBCF5E06F1ED86B
:10057000BEF1004F08BF5FEA500E50F1000041EBA2
:10058000045170BD06F0004646EA010140EA02004F
:1005900081EA0301B4EB5C04C2BFD4EB0C0541EA71
:1005A000045170BD41F480114FF0000E013C00F386
:1005B000AB8014F1360FDEBF002001F0004170BDAA
:1005C000C4F10004203C35DA0C341BDC04F11404C3
:1005D000C4F1200500FA05F320FA04F001FA05F24F
:1005E00040EA020001F0004221F0004110EBD3701C
:1005F00021FA04F642EB06015EEA430E08BF20EA48
:10060000D37070BDC4F10C04C4F1200500FA04F3EA
:1006100020FA05F001FA04F240EA020001F000417C
:1006200010EBD37041F100015EEA430E08BF20EAEF
:10063000D37070BDC4F1200500FA05F24EEA020E37
:1006400020FA04F301FA05F243EA020321FA04F066
:1006500001F0004121FA04F220EA020000EBD3701D
:100660005EEA430E08BF20EAD37070BD94F0000F1D
:100670000FD101F00046400041EB010111F4801F51
:1006800008BF013CF7D041EA060195F0000F18BF02
:10069000704703F00046520043EB030313F4801F3E
:1006A00008BF013DF7D043EA0603704794EA0C0FF8
:1006B0000CEA135518BF95EA0C0F0CD050EA41060E
:1006C00018BF52EA4306D1D181EA030101F000418B
:1006D0004FF0000070BD50EA410606BF10461946B3
:1006E00052EA430619D094EA0C0F02D150EA0136BF
:1006F00013D195EA0C0F05D152EA03361CBF104600
:1007000019460AD181EA030101F0004141F0FE419E
:1007100041F470014FF0000070BD41F0FE4141F422
:10072000780170BD70B54FF0FF0C4CF4E06C1CEA22
:1007300011541DBF1CEA135594EA0C0F95EA0C0FD7
:1007400000F0A7F8A4EB050481EA030E52EA033592
:100750004FEA013100F088804FEA03334FF08055B3
:1007600045EA131343EA12634FEA022245EA1115E0
:1007700045EA10654FEA00260EF000419D4208BF91
:10078000964244F1FD0404F5407402D25B084FEA3E
:100790003202B61A65EB03055B084FEA32024FF4EA
:1007A00080104FF4002CB6EB020E75EB030E22BF47
:1007B000B61A754640EA0C005B084FEA3202B6EB07
:1007C000020E75EB030E22BFB61A754640EA5C00B6
:1007D0005B084FEA3202B6EB020E75EB030E22BF46
:1007E000B61A754640EA9C005B084FEA3202B6EB47
:1007F000020E75EB030E22BFB61A754640EADC0006
:1008000055EA060E18D04FEA051545EA16754FEA67
:1008100006164FEAC30343EA52734FEAC2025FEA85
:100820001C1CC0D111F4801F0BD141EA00014FF014
:1008300000004FF0004CB6E711F4801F04BF0143E5
:100840000020B4F1FD0C88BFBCF5E06F3FF6AFAE01
:10085000B5EB030C04BFB6EB020C5FEA500C50F191
:10086000000041EB045170BD0EF0004E4EEA113114
:1008700014EB5C04C2BFD4EB0C0541EA045170BD1B
:1008800041F480114FF0000E013C90E645EA060E5F
:100890008DE60CEA135594EA0C0F08BF95EA0C0F8D
:1008A0003FF43BAF94EA0C0F0AD150EA01347FF4D5
:1008B00034AF95EA0C0F7FF425AF104619462CE7AC
:1008C00095EA0C0F06D152EA03353FF4FDAE10460F
:1008D000194622E750EA410618BF52EA43067FF460
:1008E000C5AE50EA41047FF40DAF52EA43057FF4F0
:1008F000EBAE12E74FF0FF3C06E000BF4FF0010CFB
:1009000002E000BF4FF0010C4DF804CD4FEA410C5E
:100910007FEA6C5C4FEA430C18BF7FEA6C5C1BD02B
:1009200001B050EA410C0CBF52EA430C91EA030FAC
:1009300002BF90EA020F0020704710F1000F91EA09
:10094000030F58BF994208BF90422CBFD8176FEAD7
:10095000E37040F0010070474FEA410C7FEA6C5CA5
:1009600002D150EA013C07D14FEA430C7FEA6C5CAC
:10097000D6D152EA033CD3D05DF8040B704700BFD8
:100980008446104662468C461946634600E000BF26
:1009900001B5FFF7B7FF002848BF10F1000F01BDF8
:1009A0004DF808EDFFF7F4FF0CBF012000205DF8C3
:1009B00008FB00BF4DF808EDFFF7EAFF34BF012048
:1009C00000205DF808FB00BF4DF808EDFFF7E0FFE1
:1009D00094BF012000205DF808FB00BF4DF808ED32
:1009E000FFF7CEFF94BF012000205DF808FB00BF99
:1009F0004DF808EDFFF7C4FF34BF012000205DF87B
:100A000008FB00BF4FEA410212F5001215D211D5C2
:100A10006FF47873B3EB625212D94FEAC12343F0FB
:100A2000004343EA505311F0004F23FA02F018BF7D
:100A3000404270474FF00000704750EA013005D146
:100A400011F0004008BF6FF0004070474FF0000009
:100A5000704700BF80F0004002E000BF81F000411D
:100A600042001FBF5FEA410392EA030F7FEA226C54
:100A70007FEA236C6AD04FEA1262D2EB1363C1BFE4
:100A8000D218414048404140B8BF5B42192B88BF53
:100A9000704710F0004F40F4000020F07F4018BF76
:100AA000404211F0004F41F4000121F07F4118BF96
:100AB000494292EA030F3FD0A2F1010241FA03FC3E
:100AC00010EB0C00C3F1200301FA03F100F0004326
:100AD00002D5494260EB4000B0F5000F13D3B0F1EE
:100AE000807F06D340084FEA310102F10102FE2A5D
:100AF00051D2B1F1004F40EBC25008BF20F00100CD
:100B000040EA03007047490040EB0000013A28BF6B
:100B1000B0F5000FEDD2B0FA80FCACF1080CB2EBEE
:100B20000C0200FA0CF0AABF00EBC250524218436C
:100B3000BCBFD0401843704792F0000F81F4000111
:100B400006BF80F400000132013BB5E74FEA4103E4
:100B50007FEA226C18BF7FEA236C21D092EA030F50
:100B600004D092F0000F08BF0846704790EA010FCA
:100B70001CBF0020704712F07F4F04D1400028BFF7
:100B800040F00040704712F100723CBF00F50000D9
:100B9000704700F0004343F0FE4040F4000070470F
:100BA0007FEA226216BF08467FEA236301464202BB
:100BB00006BF5FEA412390EA010F40F480007047CE
:100BC0004FF0000304E000BF10F0004348BF404274
:100BD0005FEA000C08BF704743F0964301464FF0B0
:100BE00000001CE050EA010208BF70474FF000030C
:100BF0000AE000BF50EA010208BF704711F000434D
:100C000002D5404261EB41015FEA010C02BF84461C
:100C10000146002043F0B64308BFA3F18053A3F57B
:100C20000003BCFA8CF2083AA3EBC25310DB01FAC2
:100C300002FC634400FA02FCC2F12002BCF1004F46
:100C400020FA02F243EB020008BF20F001007047D7
:100C500002F1200201FA02FCC2F1200250EA4C002B
:100C600021FA02F243EB020008BF20EADC70704771
:100C70004FF0FF0C1CEAD0521EBF1CEAD15392EA7F
:100C80000C0F93EA0C0F6FD01A4480EA010C40025B
:100C900018BF5FEA41211ED04FF0006343EA5010B5
:100CA00043EA5111A0FB01310CF00040B1F5000FF7
:100CB0003EBF490041EAD3715B0040EA010062F1A6
:100CC0007F02FD2A1DD8B3F1004F40EBC25008BF90
:100CD00020F00100704790F0000F0CF0004C08BFAE
:100CE00049024CEA502040EA51207F3AC2BFD2F17B
:100CF000FF0340EAC250704740F400004FF0000389
:100D0000013A5DDC12F1190FDCBF00F000407047C2
:100D1000C2F10002410021FA02F1C2F1200200FA00
:100D200002FC5FEA310040F1000053EA4C0308BFC7
:100D300020EADC70704792F0000F00F0004C02BF18
:100D4000400010F4000F013AF9D040EA0C0093F093
:100D5000000F01F0004C02BF490011F4000F013BED
:100D6000F9D041EA0C018FE70CEAD15392EA0C0F5B
:100D700018BF93EA0C0F0AD030F0004C18BF31F0C6
:100D8000004CD8D180EA010000F00040704790F09C
:100D9000000F17BF90F0004F084691F0000F91F040
:100DA000004F14D092EA0C0F01D142020FD193EA06
:100DB0000C0F03D14B0218BF084608D180EA01008E
:100DC00000F0004040F0FE4040F40000704740F06A
:100DD000FE4040F4400070474FF0FF0C1CEAD05238
:100DE0001EBF1CEAD15392EA0C0F93EA0C0F69D094
:100DF000A2EB030280EA010C49024FEA402037D0FF
:100E00004FF0805343EA111143EA10130CF00040F5
:100E10008B4238BF5B0042F17D024FF4000C8B42E5
:100E200024BF5B1A40EA0C00B3EB510F24BFA3EBC5
:100E3000510340EA5C00B3EB910F24BFA3EB910395
:100E400040EA9C00B3EBD10F24BFA3EBD10340EAEF
:100E5000DC001B0118BF5FEA1C1CE0D1FD2A3FF635
:100E600050AF8B4240EBC25008BF20F001007047EA
:100E70000CF0004C4CEA50207F32C2BFD2F1FF038D
:100E800040EAC250704740F400004FF00003013ABE
:100E900037E792F0000F00F0004C02BF400010F462
:100EA000000F013AF9D040EA0C0093F0000F01F076
:100EB000004C02BF490011F4000F013BF9D041EA98
:100EC0000C0195E70CEAD15392EA0C0F08D14202CB
:100ED0007FF47DAF93EA0C0F7FF470AF084676E79E
:100EE00093EA0C0F04D14B023FF44CAF08466EE777
:100EF00030F0004C18BF31F0004CCAD130F0004245
:100F00007FF45CAF31F000437FF43CAF5FE700BF9C
:100F10004FF0FF3C06E000BF4FF0010C02E000BFC5
:100F20004FF0010C4DF804CD4FEA40024FEA410367
:100F30007FEA226C18BF7FEA236C11D001B052EA1D
:100F4000530C18BF90EA010F58BFB2EB030088BFE3
:100F5000C81738BF6FEAE17018BF40F00100704752
:100F60007FEA226C02D15FEA402C05D17FEA236C34
:100F7000E4D15FEA412CE1D05DF8040B704700BF7B
:100F8000844608466146FFE70FB5FFF7C9FF002812
:100F900048BF10F1000F0FBD4DF808EDFFF7F4FF4B
:100FA0000CBF012000205DF808FB00BF4DF808EDE4
:100FB000FFF7EAFF34BF012000205DF808FB00BF07
:100FC0004DF808EDFFF7E0FF94BF012000205DF829
:100FD00008FB00BF4DF808EDFFF7D2FF94BF0120DA
:100FE00000205DF808FB00BF4DF808EDFFF7C8FFD3
:100FF00034BF012000205DF808FB00BF4FEA40022B
:10100000B2F1FE4F0FD34FF09E03B3EB12620DD936
:101010004FEA002343F0004310F0004F23FA02F0A0
:1010200018BF404270474FF00000704712F1610F47
:1010300001D1420205D110F0004008BF6FF000401E
:1010400070474FF0000070477BB972B90029BEBFEE
:1010500000204FF0004106E008BF00281CBF6FF0E1
:1010600000414FF0FF3000F077B8ADF1080C6DE9AA
:1010700004CE002909DB002B1ADB00F0A2F8DDF812
:1010800004E0DDE9022304B07047404261EB410116
:10109000002B1BDB00F095F8DDF804E0DDE902230E
:1010A00004B0404261EB4101524263EB430370479D
:1010B000524263EB430300F084F8DDF804E0DDE91D
:1010C000022304B0404261EB41017047524263EB9E
:1010D000430300F076F8DDF804E0DDE9022304B014
:1010E000524263EB4303704753B94AB9002908BF22
:1010F00000281CBF4FF0FF314FF0FF3000F02CB83C
:10110000ADF1080C6DE904CE00F05BF8DDF804E009
:10111000DDE9022304B07047D0B5FFF781F9002262
:101120000B4B06460F46FFF7D3F900F017F80446BD
:10113000FFF754F90022074BFFF7CAF902460B46A6
:1011400030463946FFF70CF800F008F82146D0BDCC
:101150000000F03D0000F041704700BF4A0011D28E
:1011600012F5001211D20DD56FF47873B3EB625201
:101170000ED44FEAC12343F0004343EA505323FA0D
:1011800002F070474FF00000704750EA013002D182
:101190004FF0FF3070474FF00000704710B500214E
:1011A0000446FFF703FF20B92046BDE81040FFF7D3
:1011B000B3BF04F10040FFF7AFFF404261EB4101D4
:1011C00010BD2DE9F04786468C460846089E154618
:1011D00074461946002B40F0C1808542B2FA82F273
:1011E00045D94AB1C2F1200300FA02FC954094406F
:1011F0002EFA03F343EA0C0C4FEA154EA8B2230C67
:10120000BCFBFEF80EFB18CC08FB00F943EA0C43CC
:10121000994528D9EB1808F1FF3704D2994502D92E
:10122000A8F102072B44A3EB0903A4B2B3FBFEFC15
:101230000EFB1C330CFB00F044EA0344A04214D91B
:101240002C190CF1FF3304D2A04202D9ACF10203F5
:101250002C44241A43EA07401EB1D44000233460D2
:101260007360BDE8F0874746DDE76346F1E792BB70
:10127000431B01214FEA154EAFB2200CB3FBFEFC1D
:101280000EFB1C330CFB07F840EA0343984561D979
:10129000EB180CF1FF3004D2984502D9ACF10200F2
:1012A0002B44A3EB0803A4B2B3FBFEFC0EFB1C33E0
:1012B0000CFB07F744EA0344A7424DD92C190CF163
:1012C000FF3304D2A74202D9ACF102032C44E41B41
:1012D00043EA0040C0E7C2F120039540944020FA61
:1012E00003F12EFA03F34FEA154E9040AFB20343D9
:1012F000B1FBFEFC0EFB1C10190C0CFB07F841EABD
:101300000041884522D969180CF1FF3004D2884584
:1013100002D9ACF102002944A1EB08019BB2B1FB58
:10132000FEFC0EFB1C110CFB07F743EA01439F4236
:101330000ED9EB180CF1FF3104D29F4202D9ACF167
:1013400002012B44DB1B41EA004193E76046E3E7DF
:101350006146F7E76046A4E76346B8E7834206D9EB
:1013600016B9002108467CE7C6E900E0F9E7B3FAC0
:1013700083F78FB9834201D3724508D8BEEB0204CC
:1013800060EB030301209C461EB9002169E7384643
:10139000FAE7C6E9004CF8E7C7F1200CBB400EFAAB
:1013A00007F522FA0CF42EFA0CF1BA401C4320FA8D
:1013B0000CF3B8404FEA144901431FFA84FEB3FB13
:1013C000F9F809FB18300B0C08FB0EFA43EA00434E
:1013D0009A4540D9E31808F1FF3004D29A4502D962
:1013E000A8F102002344A3EB0A0389B2B3FBF9F886
:1013F00009FB183308FB0EFE41EA03418E452CD948
:10140000611808F1FF3304D28E4502D9A8F1020316
:10141000214443EA0040A1EB0E01A0FB02984145A4
:10142000CE46434602D306D14D4504D20138B9EB2E
:10143000020E68EB0403002EA7D0B5EB0E0261EBA1
:10144000030101FA0CFC22FA07F3F9404CEA03030A
:10145000C6E9003199E74046C5E74346D9E70000B1
:101460002DE9F84314461D4606460022204629462B
:10147000214BFFF79FFA90BB1BA3D3E90023204623
:101480002946FFF7B5FA50BB29462046FFF7BAFABE
:101490000746FEF7B3FF02460B4620462946FEF7F5
:1014A0005FFE13A3D3E90023FFF712F80022124BCB
:1014B00080468946FFF77EFA88B90BA3D3E900235B
:1014C00040464946FFF794FA044640B9404649462B
:1014D0003760FFF797FA70602046BDE8F8836FF039
:1014E0002100FAE7AFF300800000C0FFFFFFDF41FB
:1014F0000000000080842E410000E0C100000000D8
:101500002DE97343089E7068FEF778FF22A3D3E9A4
:101510000023FFF707F9044630680D46FEF76EFF1B
:1015200002460B4620462946FEF71CFE04460D46A1
:101530001B4B0022C3E900451A4BD3E90089002365
:1015400040464946FFF754FAF8B142464B4620461A
:101550002946FFF7E7F800F029FB134B6846D3E96B
:101560000023FFF77DFF304620F08CFA01460F483C
:1015700026F018FD684620F085FA01460C4826F052
:1015800011FD002002B0BDE870834FF060400949B2
:10159000E1E700BFAFF300800000000080842E412F
:1015A000C81A0020C01A002018050020BC20030023
:1015B000D9200300FFFFEF47D0B5049C6068FEF719
:1015C0001DFF0DA3D3E90023FFF7ACF80646206802
:1015D0000F46FEF713FF02460B4630463946FEF72C
:1015E000C1FD00F0E3FA204620F04CFA0146044821
:1015F00026F0D8FC0020D0BD0000000080842E41E1
:101600006220030000000000F8B54C680B68D0E9C8
:1016100013721F4EA41ADB1BE517C3FB0645002DF2
:101620002ADA036B6442D0F82CC065EB4505D91764
:1016300090F82000CCFB0631012817D1D017944632
:101640000246134EC7FB06C2002A604602DA404239
:1016500062EB42024143A0FB030603FB02110AA313
:10166000D3E900233144FFF7EFFC0346A342A9412D
:10167000B4BF01200020F8BD836AD0F824C0D91778
:10168000D6E700BFAFF3008000E1F50500000000E1
:1016900040420F0000000000F0B50B688BB00C4614
:1016A000198805462CF00AFF6B46282200211846AF
:1016B00029F099FB64680027002C08BF0446636882
:1016C00031492068DA17C0FB0132304E9E4277EB79
:1016D00002010FD340F6FF70A3FB003100FB0211A3
:1016E0002B48181841F1000125A3D3E90023FFF787
:1016F000FBFC87B2E368A1682348DA17C1FB00321C
:1017000000209E4270EB020136D340F6FF70A3FB2F
:10171000003100FB02111E48181841F1000118A306
:10172000D3E90023FFF7E0FC86B2F9B228462CF09B
:10173000BEFE310141EA17212846C9B22CF0B7FE9E
:10174000C6F3071128462CF0B2FE217C28462CF067
:10175000AEFED4E9060120F051F8014628462CF0EF
:10176000A6FED4E9080120F049F8014628460BB04E
:10177000BDE8F0402CF09BBE0646D6E7AFF30080F4
:1017800000E1F5050000000040420F0000E1F50512
:1017900080F0FA0210B5044628B101461148BDE8B0
:1017A000104026F0FFBB104826F0FCFB1EF0CAFDDF
:1017B00020461EF053FE1EF0B7FF044600F0BAFBB1
:1017C000014620460DF0E6FE014608B10748E6E76F
:1017D00027F0B6FC032019F01FF8BDE810400448BC
:1017E00026F0E0BB1E1E03003E1E0300551E030034
:1017F000781E0300F8B51C4826F0D4FB1B4808F0FF
:101800003BF8014610B11A4826F0CCFB194C1A4E91
:101810001A4F18482EF06EFA28B9194826F0C2FB64
:101820004FF0FF30F8BDA568314620462B68984739
:10183000014618B1134826F0B5FBF1E739462046BA
:101840006B689847014610B10F4826F0ABFB0F4B71
:101850000F48B3F9001026F0A5FB00214FF420300B
:1018600025F088F9D5E700BF8A1E03009517000010
:101870001E1E0300B0020300F81D0300A007002095
:101880009B1E0300AE1E0300D81E03003448002038
:10189000FB1E030010B5124A029C1168F1B1C8206A
:1018A000104A52F823204243B2FBF1F20E48C2F331
:1018B000460102F001024243C4E900120B4A02EB66
:1018C000031304F1080293E8030082E80300986818
:1018D000D968103484E80300002010BD0A46EBE705
:1018E000303200202032002020A107006C0C0300C1
:1018F000024A002012681A60704700BF14320020AC
:101900000022014B1A70704700490020F7B50C46C1
:1019100015460E4901AA1E4627F019FC78B1019F11
:101920006FB9102C0ED1224630460949A84700282D
:1019300003DB084826F036FB384603B0F0BD6FF0F5
:101940000100FAE76FF01500F7E700BF828503009A
:10195000980B00200A1F0300F7B50C4615460E49E8
:1019600001AA1E4627F0F3FB78B1019F6FB9082C3E
:101970000ED1224630460949A847002803DB084813
:1019800026F010FB384603B0F0BD6FF00100FAE717
:101990006FF01500F7E700BF342003001832002075
:1019A0002E1F0300F7B50C4615460E4901AA1E4628
:1019B00027F0CDFB78B1019F6FB9082C0ED12246DC
:1019C00030460949A847002803DB084826F0EAFA10
:1019D000384603B0F0BD6FF00100FAE76FF0150074
:1019E000F7E700BFB7200300180500205A1F0300C7
:1019F00010B5029C0A4B04F1080293E8030084E846
:101A00000300D3E9020182E803000648216826F0BA
:101A1000C9FAA1680448BDE8104026F0C3BA00BF67
:101A2000980B0020851F0300A91F0300054A009B97
:101A300092E80300642283E803004243014602481F
:101A400026F0B0BA18320020CD1F030038B5049C30
:101A5000114D94E8030085E8030005F10803D4E97B
:101A6000020183E803000D48216826F09BFAA16873
:101A70000B4826F097FA294610220A4804F03AFA51
:101A8000014620B1084826F08DFA002038BD0748ED
:101A900026F088FAF9E700BF980B0020851F0300A5
:101AA000A91F0300F41F0300FF1F03001B200300F6
:101AB000642210B5029B0D4C93E8030084E80300F8
:101AC00019680B484A4326F06DFA21460822094856
:101AD00004F010FA014620B1074826F063FA00200E
:101AE00010BD064826F05EFAF9E700BF1832002064
:101AF000CD1F03002B200300FF1F03001B2003004A
:101B000010B5029C074B2046D3E90023FFF7A8FC41
:101B100020461FF0B7FFBDE810400146024826F0FE
:101B200041BA00BFC81A00204520030010B5029C2E
:101B3000074B2046D3E90023FFF792FC20461FF015
:101B4000A1FFBDE810400146024826F02BBA00BFB5
:101B500018050020622003000122034B03481A707D
:101B60000022002324F06CB800490020601A0020F5
:101B700007B501230021094ACDE9003108486B4629
:101B80002DF0B3F9014610B1064826F00BFA0122F8
:101B9000054B1A6003B05DF804FB00BF480A002043
:101BA000080200208020030014320020024608B5FD
:101BB0000B4609490948C1E90023082204F09AF9B3
:101BC000014620B1BDE80840054826F0EBB90548BC
:101BD000BDE8084026F0E6B918050020A72003005C
:101BE000FF1F03001B20030007B50F4B01930F4B92
:101BF0001878A0B10E4A1368591C03F00303083388
:101C00006B4413F8040C11602DF016F84FF4767243
:101C10000023084803B05DF804EB24F011B803B0CA
:101C20005DF804EB2DF008B801020408004900201B
:101C300008320020601A0020F8B51C462A4D2846BC
:101C40002EF058F828B9294826F0ACF94FF0FF36A5
:101C500041E0AE682649284633689847014618B1E6
:101C6000244826F09FF9F1E72349284673689847EE
:101C7000014610B1214826F095F9214B2148B3F9CE
:101C80000050294626F08EF92846FEF7B7FB064697
:101C90000F4602460B461C4826F084F932463B4666
:101CA0002046FFF7DDFB064618B10146174826F02F
:101CB00079F9174D204629462DF056FA58B92B6868
:101CC000AA68934209D162686B689A4208DC95E879
:101CD000030084E803003046F8BD22689342F6DA38
:101CE000D5E90201F5E700BFB00203009B1E030027
:101CF000001E0300AE1E0300A80B0020D81E030028
:101D000044480020E3200300F120030005210300E4
:101D1000B0090020F8B51C46214D3921AE6828468F
:101D2000F36898470D2128462246336998470546AF
:101D300018B101461B4826F035F91B4E20463146A6
:101D40002DF012FA324658B93368B1688B421AD175
:101D500061687368994219DC92E8030084E8030023
:101D60000026124F394620462DF0FEF990B1104A58
:101D700052F82630013342F826300E4A28461368BE
:101D800001331360F8BD21688B42E5DA0A4B93E812
:101D90000300E3E70136042E07F11007E2D1ECE778
:101DA0002803030039210300980B00206C0C03006A
:101DB0002032002030320020A00B002070B51D46DC
:101DC0000E4B1B68A3B90E4E33689BB12EF0D1F8B1
:101DD0004FF47A74A0FB042304FB0133D20B42EAD4
:101DE00043423368D21AB2FBF4F22A60002070BD7D
:101DF0000022FAE74FF6FF72F7E700BF1432002027
:101E00001032002073B506460C462AF018FD002853
:101E100072D006EA040515F0010142D0374B4FF4A9
:101E20007A7218680028D5BF002064230146584301
:101E300040F2E733C8BFC117C90341EA5041C003AC
:101E4000C01841F100010023FFF74EF902460B468E
:101E50002B4823F0F5FEAB074ED52A4C2A4A2368BF
:101E600002EBC302D2E900010133284A03F0070361
:101E7000C2E90001236002460B466846FFF7F0FA0C
:101E8000014610B1224826F08DF800216B46214A08
:101E900021482DF02AF8014670B3204826F082F838
:101EA0002AE0002E14BF002404F00104002CD2D03C
:101EB0001B4C23682BB9124802B0BDE8704023F0D8
:101EC000C5BE6B46174A1848CDE900112DF00DF834
:101ED000014610B1154826F065F8002323602EF066
:101EE00048F84FF47A72A0FB020302FB0131C00BE9
:101EF0000F4A40EA4140106002B070BD1832002025
:101F0000901A00200C320020A80A0300C01A0020FA
:101F100005210300580900209003002085210300BB
:101F200014320020480A0020080200206521030026
:101F30001032002010B51249124823F097FD1249C3
:101F4000124823F093FD124C20462DF0D3FE90B999
:101F5000104826F027F810481EF020FA04F09AF9ED
:101F60000E4804F057F80E4804F054F80D4804F0F9
:101F700051F80D4810BD21680C4826F013F8EAE727
:101F8000E91B0000601A0020711B0000901A00205D
:101F900028030300B821030050090020740B00201F
:101FA000A00A0020C0090020300C0300D621030045
:101FB0002DE9F04F91B0009302F004030293C2F3B5
:101FC000C2030133840705460E46DDF8688003929C
:101FD000059340F0E381041D30B1072909D86FF063
:101FE0001B0011B0BDE8F08F01F00706341DC6F1EB
:101FF0000806009B4FF000094FF0040A591E4FF0ED
:10200000FF334F460193CB465346CDF810900DB1A8
:10201000009A22600598002800F3DA809648009A1A
:10202000824203D395488242C0F0D280039AA4EB47
:10203000050E92074FEA9E0040F1E1804FF0000C40
:10204000CFE07A2860D84B280ED847285CD82928BA
:102050002FD8252855D057D820287DD02338D0F127
:10206000000B4BEB000B77E0A0F14C0CBCF12E0FFA
:102070004AD8DFE80CF07149494949494949494979
:1020800049494C49494949494949495A494C4C5A95
:102090005A5A714C6E497149184C18494984814CFF
:1020A00049494C49810000204FF0000B4FF0040AD1
:1020B00039E00122A0F12A0C5FFA8CFC02FA0CFC38
:1020C0001CEA0E0F48D11CF062502ED11CEA020B04
:1020D00042D0013C5444CAF1000C04EA0C04002D27
:1020E00060D0A3EB050CA444B4453FF678AF0028BC
:1020F00067D1042B48D158F8043B236004230434EF
:102100002AE0019A013A01924FF0000B24E011F805
:10211000010C6C2835D1002011F8023C83466C2B51
:10212000C4D14FF0080A5346D3E708F1070828F056
:102130000708073424F00704F8E802AB35B1069825
:102140002044B0423FF64BAFC4E900AB4FF0000B68
:1021500008344FF0080A534611F8010F002800F028
:10216000A980BBF1000F7FF46CAF2528F4D14FF0AC
:10217000010B019B013301934FF0040AEBE7584632
:1021800092E700208346A4E7082B40F08A8008F1FC
:10219000070828F00708F8E80223C4E90023082309
:1021A0000834D9E768B9042B02D108F10408A5E77F
:1021B000082B76D108F1070828F0070808F108086D
:1021C000EDE7059A013A059258F8042B00921EE7B4
:1021D000039A900744D54FF0010CA4EB050E4FEA8B
:1021E0009E00BEF5007F1BD3254940F27B22254887
:1021F00026F0ADF940F27B21214826F0A1F90F2FFE
:1022000010D8002D40D007F140020DEB020C019ACE
:102210000CF8200C0CF8102C0498013004901EE0EF
:102220000F2F08D916494FF42072164826F08FF95F
:102230004FF42071E0E7D5B107F140020DEB020E3B
:10224000019AC0B20EF8200C0EF8102CBCF1000F51
:10225000E2D060F07F000EF8200C09F1010901378F
:10226000C5F108024FF6DA7E0434069274E7BCF139
:10227000000F09D00136F2E7700103008C8C0300D7
:102280001722030045220300029802360028E6D1F7
:102290000098CDE9063128F028FDDDE90631064435
:1022A000DDE7404940F2C5223F4826F050F940F2B0
:1022B000C521A1E7631BB3F5806F08D3394940F20C
:1022C000D122394826F043F940F2D12194E71DB9D3
:1022D000A6F10804E01884E6029A9B0828602B7097
:1022E0009DF81030C2B1EB7085F80290B9F1000F83
:1022F00005D0002208A8C5F1010C97420ED14FF07D
:10230000000AC5F101030DF1200801930DF1300B16
:10231000574512D1601B64E66B70E5E710F8013B8E
:10232000190608D504EB0C0EB64503F07F033FF603
:1023300056AE04F8013B0132DFE7B9F1000F03D0DC
:1023400098F90020002A17DB029BD3B11AF80B2062
:1023500004F8012B0022019B98182044B0423FF65C
:102360003EAE98F80000009904F8010B2046039255
:1023700028F02EFD039A14440AF1010A08F101081D
:10238000C6E798F8002055F822300093029B009889
:1023900045F8223028F0A9FC421CDCE76FF00D0064
:1023A0001FE600BF17220300452203002DE9F04F6E
:1023B00095B000AF0446C7E90812D7F878B0BB6102
:1023C00050B9AB494FF46572AA4826F0C0F84FF4F3
:1023D0006571A74826F0B4F8CBF3C0033B613B6AB4
:1023E00053B903784678807800EB830020443B6A39
:1023F0009E421AD8031B3B6294F802A0E37856462B
:102400007B61BAF1000F02D01BF0010F17D17B697D
:102410005BBB7B6A1BB12046BA69396A98473D6A43
:1024200028465437BD46BDE8F08F451C284628F0A5
:102430005CFC3B6A0130013328443B62D7E76368A8
:1024400094F80080FB617B6A4FEA8802FA6004EB33
:102450008808002B40F00681C14600263D6A0AEB41
:10246000080399454ED1D04413E01BF0020FD0D0A1
:1024700094F800804FEA8803FB60636804EB8808E7
:10248000FB617B6A002B78D13D6ABAF1000F4ED117
:1024900056461BF0050F0CBF022301237B627B69AC
:1024A00008EB430A0BF002033B62D045B8D018F8A2
:1024B000021B18F8013C54F823906F4B994502D346
:1024C0006E4B994539D33B69002B43D0F86925F011
:1024D000B4FC00283ED0E9468AB06A46684B536196
:1024E000FB69C2E906314FF400731384654B42F86F
:1024F000103F00234FF41251634802F0CFFF023D1A
:10250000CD46D2E719F8012B7B6254F8220028F05F
:10251000ECFBFA6F7B6A01303AB1D7F88020964223
:102520003EBFFA6F22F816000136054499E71BF00A
:1025300004061CBF7E6AD044ABE73B6923B1F8694F
:1025400025F07BFC0028C6D11BF0010F05D17B6A6A
:10255000ED1AAAE73B6A002BA7D0484628F0C5FB36
:10256000FB6F43B1D7F880309E423FBFFA6F431CE8
:1025700022F816300136054497E7BAF1000F00F053
:1025800085801BF0040600F08480D146002607F108
:1025900040005246414628F01BFC7B69D0445B005A
:1025A000BB607B6908EB43037B610BF002037B603C
:1025B0007B6998456FD123781BF0020F7B616378AC
:1025C00018BF002106EB030208BF4FEA59011BF0B8
:1025D000010FD2B240F0DE801BF0040F14BF48465A
:1025E00000203B61A37894F803B0FB616270A07097
:1025F000E1702046BA69F9687B6A9847051EFFF6C4
:102600000FAF7B69494623703B69BA696370FB6908
:1026100084F803B0A37007F140007B6A9847B0F1DB
:102620000009C0F2E4803B6A4046A3EB0A01FB6864
:10263000BA69C91ABB68C91A7B6A98470028C0F2F0
:10264000D8804FF0000B05EB090808EB000507F1F7
:10265000300AB345C0F0A0800021BA6908467B6A01
:102660009847DDE64FF0000907F1300091E700BF21
:102670001722030045220300700103008C8C030025
:102680005D22030004000001AC0703005646D1465A
:1026900083E7B14681E718F8021B574B18F8015C35
:1026A00054F825209A4202D3544B9A4215D33B69E1
:1026B0002BB1F86925F0C1FB00287FF479AF7B6866
:1026C000002B47D00F2E3BD94D494FF489624D481E
:1026D00025F03DFF4FF489617BE63B692BB1F8693A
:1026E00025F0ABFB00287FF463AF1BF0010F0AD08D
:1026F0000F2E25D9424940F23E42424825F027FF9D
:1027000040F23E4165E61BF0040F3FF451AFB9F1D2
:102710000F0F08D93A4940F241423A4825F017FFD5
:1027200040F2414155E609F1280307F1280109F17A
:10273000010203EB010909F8105C5FFA82F937E73F
:1027400006F1280307F12801721C5E1806F8205CC8
:10275000D6B22DE7B9F10F0F08D9294940F24B4203
:10276000284825F0F4FE40F24B4132E609F12803F7
:1027700007F1280009F10102181807F1500309F1C7
:10278000020953FA82F200F8101C5FFA89F902F884
:10279000105C0DE7002024E71BF80A3054F8239062
:1027A00087F82F30FB6FFBB133F81B800121BA692A
:1027B0007B6A07F12F00984700281ADB0544B8F11F
:1027C000000F06D1484628F090FA00F101081FFAE0
:1027D00088F841464846BA697B6A9847002808DB72
:1027E00005440BF1010B34E7D7F87C80DEE74D465A
:1027F00016E6054614E600BF700103008C8C03004A
:102800001722030045220300014B1860704700BFE8
:10281000BC0B002030B5002587B0CDE9030104468C
:10282000009503A90548059500F0D0FBDDE90430CB
:102830009842B8BF255407B030BD00BF7B7F02006F
:1028400070B589B306680122304625F007FC0146C1
:102850000446304625F0CAFBC30708D41349AF220B
:10286000134825F074FEAF21104825F069FE21467B
:10287000304625F0D1FB251829460022304625F0A8
:10288000B5FB2D1AAC4206D00849B722084825F0FE
:102890005EFEB721E8E72146304625F0C3FB21461E
:1028A000BDE8704025F0FFBC70BD00BF11230300E0
:1028B000452203002DE9F8430F4606681446B26826
:1028C0004B1EB2F5004F34BF042108213B4010D00D
:1028D000C7F1000909EA0709494503F1FF3028BF9C
:1028E000494618420CD11F46BCB900252846BDE810
:1028F000F8838F420FD82146BDE8F84325F015BD77
:102900002C492D484FF4A27225F021FE4FF4A271FC
:10291000284825F015FE9946E6E7B2EBD40FE4D936
:10292000E319591A104625F0A3FB0146304625F05D
:10293000F9FB80460028D8D0B36809EBC005B3F591
:10294000004F34BF042308231D4435447B1E1D441F
:102950007F423D40A5EB09052946304625F07EFB28
:102960002C44073424F00704A41B804507464FEA93
:10297000E40408D202464146304625F00DFC4146AB
:10298000304625F04EFC3946304625F045FB3844AC
:10299000844208D239463046224625F0FDFB2146C6
:1029A000304625F03EFC01223946304625F03AFB00
:1029B0009CE700BF1123030045220300B2F5802FDE
:1029C000F8B50CD2042A20D83B494FF4F9723B48A1
:1029D00025F0BDFD4FF4F971374825F0B1FD08230E
:1029E000D21ACC1D114424F0070421F00701091B61
:1029F00017294FEAD1060AD82F4940F2FB122F4877
:102A000025F0A5FD40F2FB11E6E70423E8E70027E7
:102A1000046031463046A660E76025F032FB0121B4
:102A200085000246304625F023FB1B35ED0828447F
:102A3000B04234D83B46384604F10C019A4237DAAA
:102A40002A462046002125F005FB002320461A4691
:102A5000194625F0D6FA771B19462046012225F0A3
:102A6000E1FA3A46294625F0F5FA2B460022294696
:102A7000204625F0C6FA3146204625F0EBFA3B46C3
:102A800031462046002225F0BCFA3146204601227C
:102A900025F0C8FA2946BDE8F84025F0C2BB064932
:102AA0004FF40372054825F052FD4FF4037193E78C
:102AB00041F8040F0133C1E711230300452203004D
:102AC0002DE9F84F0446A38B08461907164612D481
:102AD000022803F0070162D1204625F058FC88B196
:102AE0000138042800F22181DFE810F059001F01AD
:102AF0007E00C400F10001280CBF43F0100143F038
:102B00002001A18304F1140022F080F9002800F0D4
:102B1000A98086F31188BFF36F8FBDE8F88F03F0AB
:102B20000702501F01281ED80020062A2768C4E982
:102B3000000014D13A4603E0E08B0130E0831268D4
:102B4000002AF9D123F0070343F002022046A283B2
:102B500025F01DFC90B342F02002A2832EE023F06A
:102B600007039AB2F2E7042A33D123F007039AB29B
:102B70002046A28325F00BFC10B142F02002A28374
:102B8000A38B03F00709894540F0D880A18BCA06C2
:102B900040F11E8121F01003A38301F00701D4F856
:102BA0001880A38BB8F1000FB9DA0022276823F050
:102BB0000703C4E9002243F00103A383A38B03F0BE
:102BC0000709894540F0BB80002FDFD00025AA46C9
:102BD0003EE0844940F21B12834825F0B8FC40F2E5
:102BE0001B11804825F0ACFC41B17E494FF4AB721B
:102BF0007D4825F0ACFC4FF4AB71F2E7236843B994
:102C0000784940F25712784825F0A1FC40F257115C
:102C1000E7E723691D6845B972494FF4AD72724800
:102C200025F095FC4FF4AD71DBE70F4688464FF079
:102C30000609A38B23F0070343F006039BB2A3838B
:102C4000A268002A7DD1002F7ED1002D9ED0BA46E9
:102C500043F0080304F1140B5846A38322F0D6F87E
:102C6000002873D16149C2225F4825F070FCC2215F
:102C70005E48B7E7022908D05A4940F25D125A4827
:102C800025F065FC40F25D11ABE7E78B47B1554994
:102C90004FF4AF72544825F05AFC4FF4AF71A0E7DF
:102CA00023695D6845B94F4940F261124E4825F0ED
:102CB0004EFC40F2611194E7A38BB84623F0070362
:102CC00043F004039BB24FF00409A383B8E7012942
:102CD00008D044494FF4B272434825F038FC4FF411
:102CE000B2717EE7236843B93E4940F265123E481F
:102CF00025F02DFC40F2651173E723699D6845B905
:102D000038494FF4B472384825F021FC4FF4B471BF
:102D100067E70027A38BB84623F0070343F00503BA
:102D20009BB24FF00509A3838AE72E4940F26B124C
:102D30002D4825F00CFC40F26B1152E700270025CE
:102D40007EE74FF0010A83E7924681E786F3118818
:102D5000BFF36F8FBAF1000F17D14FBB15B12046EB
:102D60002349A8474FF02003EFF3118683F312881D
:102D7000BFF36F8F584622F03BF808BB1B499422E3
:102D8000194825F0E4FB942172E7A1680029E4D0FA
:102D90000E680029E1D043464A462046D1F804A0F7
:102DA000D0471EB1336831461E46F2E73346FAE794
:102DB000394643464A4620463F6825F014FBCCE797
:102DC000584622F031F8A38B23F00803A383DDE6F5
:102DD0008B067FF597AE21F02003A38301F0070156
:102DE0007AE600BF32230300452203005423030088
:102DF000F52D0000F8B504460D4600F114064FF01D
:102E00002003EFF3118783F31288BFF36F8F3046EF
:102E100021F0EEFF40B90A490A48942225F097FBB9
:102E20009421074825F08CFB304621F0FDFFA56179
:102E30003A462046BDE8F8400121FFF741BE00BFF9
:102E400054230300452203002DE9F04704460F46B2
:102E500025F0B9FA051E5CDB04F114094FF02003DC
:102E6000EFF3118A83F31288BFF36F8F484621F086
:102E7000BFFF804638B932499422324825F067FBBB
:102E800094212F483AE0484621F0CEFF4FF6FF72DA
:102E9000E38BA68B934206F007063DD0022E0ED19F
:102EA00035460133E383484621F0B0FF002839D18D
:102EB0002349C222234825F04AFBC221E1E7062E1E
:102EC00013D8DFE806F0092C1212090409006FF08C
:102ED00085054FF00008E6E700233B6063687BB997
:102EE000C4E900777EB13546F3E7174915484FF43A
:102EF000E47225F02CFB4FF4E471134825F020FB1D
:102F00001F606760EEE7524602212046FFF7D8FDBA
:102F100035462846BDE8F0876FF00A05D9E76FF01F
:102F20000405D6E78AF31188BFF36F8FB8F1000F5D
:102F3000EFD0002332463946204625F054FAE8E720
:102F400054230300452203003223030008B54268DE
:102F5000034602F00302022A81600AD0032A4FF0DE
:102F6000000103D0012A0AD1596006E018685960AF
:102F700008BD186800225A6050B90020F8E70649D9
:102F80000648452225F0E3FA4521034825F0D8FA02
:102F900024F0DAFCF1E700BF81230300452203009F
:102FA00010B5094C0A44914200D110BD11F8013B03
:102FB00058400309E35C0001C0B243401809205C9B
:102FC0001B01DBB25840EEE7A42303002DE9F04FCC
:102FD00081468B4617461C46002595B0387808B9BF
:102FE000284657E37B1C2528039306D05946C8473B
:102FF0000028C0F24F830135FBE1182200210EA802
:1030000027F0F1FE7B78252B7DD0002398469E4645
:103010009C461E46781C014610F8012B2B2A00F016
:10302000A18000F29880202A00F09F80232A00F0DF
:103030009F802BB19DF8403043F040038DF8403025
:10304000B8F1000F05D09DF8403043F020038DF813
:103050004030BEF1000F05D09DF8403043F0100322
:103060008DF84030BCF1000F05D09DF8403043F0A2
:1030700008038DF840302EB19DF8403043F0040332
:103080008DF840309DF8403003F04400442803D1CF
:103090006FF386138DF840309DF840302A2A43F0B4
:1030A00080038DF840307FD19DF841204B1C42F0C9
:1030B00001028DF841201A782E2A0CBF012100212F
:1030C0009DF8412061F341028DF8412078D15A7872
:1030D0002A2A6ED000224FF00A0C0133194611F84B
:1030E000010BA0F13006092E40F295809DF84010AA
:1030F0001292C1F3400040EAD2700A4660F34102E6
:103100008DF840205CE0BA1C03928DF843309DF8A6
:103110004130DA0740F12E8154F8048BB8F1000FEA
:1031200007DA9DF84020C8F1000842F004028DF84B
:1031300040205E0740F1278154F804ABBAF1000F3C
:1031400080F226819DF841306FF341038DF84130C4
:103150004FF0FF3A1CE12D2A0DD0302A7FF469AFE1
:10316000012358E74FF0010C55E74FF0010E52E7ED
:103170004FF001084FE701264DE703460EFB0262C0
:10318000303A184610F8016BA6F1300CBCF1090F6B
:10319000F3D999428FD09DF840101192D20F62F36B
:1031A00041018DF8401086E70B4600224FF00A0ED1
:1031B000E7E79DF84120023342F004028DF84120F8
:1031C0001A786C2A47D02BD8682A31D06A2A4BD07B
:1031D0004C2A51D01A4612F8013B782B03928DF8F5
:1031E00043309DF8412000F2BE806D2B51D8692BF1
:1031F00000F2B980572B67D8412B03D0453B022BF7
:1032000000F2B18004229DF8423062F302038DF88F
:103210004230012373E00CFB02020B46303A5DE7BB
:10322000742A25D07A2AD5D106219DF841200CE0B8
:103230005A78682A9DF8412006D1012161F3C6021F
:103240008DF841200233C5E7022161F3C6028DF8F3
:1032500041200133BEE75A786C2A9DF8412001D104
:103260000421EBE70321F0E705219DF84120ECE77D
:1032700007219DF84120E8E7BDF8402022F4F04204
:1032800022F0020242F4804242F00202ADF84020F5
:10329000DFE76E3BD9B201238B4040F282410B4203
:1032A00037D113F0240F51D1D8075CD503219DF8F5
:1032B000423061F302038DF8423002F07803A3F14B
:1032C00040014B424B411AE00120A3F15801C9B221
:1032D00000FA01F111F4624F94D140F60106314237
:1032E0001DD111F4043F3ED09DF8423060F302033B
:1032F00002F07802402A8DF8423034D000239DF845
:103300004020C2F340010B4363F341028DF840209B
:10331000FDE602219DF8423061F30203E8E7022056
:103320009DF8421002F0780260F30201402A8DF805
:10333000421002BF9DF8401041F001018DF840108D
:10334000632BDBD1131E18BF0123D8E703219DF89F
:10335000423012F0780F61F302038DF8423014BF4F
:1033600001230023CBE79DF8403043F001038DF8A3
:103370004030C3E79DF94020002AACBF4FF0FF3832
:10338000DDF84480D5E698077FF5E2AEDDF848A089
:103390000023CDE911339DF842309DF8411003F030
:1033A0000703012BC1F3C30133D1CB1E042B04D877
:1033B000DFE803F0214646212100236801294FEA76
:1033C000E372CDE90E321CD19DF93830DA17CDE920
:1033D0000E3204349DF8403013F0030650D03A46C4
:1033E00059464846039B25F094F80028C0F25281C4
:1033F0000544039FF2E554F8043BDA17CDE90E3299
:10340000E8E70229E5D11AB243F3C033CDE90E2330
:10341000DFE7022B24D1CB1E042B04D8DFE803F016
:1034200018101018180001294FF0000254F8043B3E
:1034300014D00229CDE90E32CCD19BB20E93C9E74C
:10344000073424F00704F4E80223CDE90E23C1E792
:1034500054F8043B0E9300230F93BBE7DBB2CDE798
:10346000042B08D1073424F00704D4E900230834DE
:10347000CDE90E23AEE7032BACD154F8043BDDE7D6
:103480009DF843007828B4D862281CD825283FF43A
:10349000ADAD5828ADD1DDE90E010DF13603009335
:1034A00010AA08AB24F0EFFFBAF1000F074680F234
:1034B0009980002F9DD00DF13603D81B002E00F00F
:1034C000C0800130BDE06338152892D801A252F8BF
:1034D00020F000BFA9350000BB350000F333000029
:1034E000F3330000F3330000F3330000BB3500007A
:1034F000F3330000F3330000F3330000F333000034
:1035000047360000DF35000005360000F3330000C9
:10351000F33300002D350000F3330000DF350000E9
:10352000F3330000F3330000DF350000BAF1000F81
:103530000E9F35DB5146384627F0DEFB07EB000ACD
:10354000002F3FF456AF00269DF8423013F01002D2
:10355000059200F0928002305B06119A48BF129BE0
:10356000104448BFC018B8F1000F049240F39F8088
:103570009DF84020A8EB0008C2F380035007069393
:1035800000F19580510640F188803EB159463046A1
:10359000C84700287EDB069B01351E4630227DE0B1
:1035A000384627F0A2FBC9E70E9B002601208DF8C4
:1035B000203008AF0DF1210AC6E719075ABFC3F33F
:1035C00000135E012B26DDE90E23002BBFF663AF4F
:1035D000524263EB43032D26CDE90E235BE7002621
:1035E00059E700269DF840200DF13603DB1B6FF3F1
:1035F00086129A458DF840207FF65BAFAAEB030355
:10360000119356E70E9890B30DF136030093002105
:1036100008AB10AA24F037FFBDF84230BAF1000F12
:1036200003F0EF0343F4F04343F010030746ADF813
:103630004230D6DA00283FF4DCAE00260DF1360326
:10364000181A9A4680E70E9B07293FF6D2AEDFE8AC
:1036500001F00C04060C08080C0C1D70C9E61D8056
:10366000C7E6EA17C3E90052C3E61D60C1E62F4F63
:10367000064607F1050A052066E71A0748BF01302C
:103680006AE71046079306925946C847DDE90623C4
:10369000002804DA15B0BDE8F08F20224346194611
:1036A000002903F1FF33ECDC454498466D1A2EB136
:1036B00059463046C8470028ECDB01359DF84230BA
:1036C000DA0601D41B0705D559463020C847002823
:1036D000E0DB0135059B33B159469DF84300C847EF
:1036E0000028D7DB0135049E2E4405E059463020E2
:1036F000C8470028CEDB0135731B002BF6DC534690
:103700003A465946484624F004FF0028C2DB0544E7
:10371000A844A8EB0503002B7FF76BAE5946202089
:10372000C8470028B6DB0135F3E700BFB423030028
:1037300038B50D4604462022002127F054FB002214
:10374000EB68E361AB68A3612B6823626B68A262DC
:1037500063622A6923B1591E194208BF42F001026F
:1037600022610122002104F12C002CF054FB40B115
:10377000044905482E2224F0EAFE2E21014824F0B7
:10378000DFFE38BDBA230300452203002DE9F04FC8
:10379000002689B0CDE90123436A04468B4288465E
:1037A000B2460596079650D300F114074FF0200358
:1037B000EFF3118B83F31288BFF36F8F3846D9462E
:1037C00021F016FB40B945499422454824F0BFFE3C
:1037D0009421424824F0B4FE384621F025FB079A94
:1037E0002AB13146204624F093FF0023079306A90F
:1037F000204624F0B9FE0699054641452ED322689D
:10380000236A204613F8221003EB820A21F00301F9
:1038100003F822102168424624F0CAFEE3682060C3
:10382000984216D00025384621F0F0FA40B389F3CB
:103830001188BFF36F8F059929B1A2690AB120469B
:10384000904700230593002DB0D1504609B0BDE844
:10385000F08F236943F008032361E3E718B12046A2
:1038600024F0C0FEDFE7DDE9013213432ED00391DF
:103870002CF07CFA039948BB384621F0C7FA30B9DE
:103880001649C222164824F062FEC221A1E78BF33A
:103890001188BFF36F8F04F12C00DDE9012321F0C3
:1038A00039FD05464FF02003EFF3118983F31288A9
:1038B000BFF36F8F384621F09BFA002883D0B5FA0A
:1038C00085F5384621F0B0FA6D09ACE7204607AB24
:1038D00005AA266824F0A5FE0546A4E754230300A4
:1038E000452203002DE9F0410446C36908460D4610
:1038F000984704F1140607464FF02003EFF31188B0
:1039000083F31288BFF36F8F304621F071FA40B90C
:1039100014499422144824F01AFE9421114824F0EA
:103920000FFE304621F080FA2B783A4643F001032F
:103930002B706168204624F03BFE6060204624F036
:1039400002FF304621F062FA30B90649C222064829
:1039500024F0FDFDC221E1E788F31188BFF36F8FEA
:10396000BDE8F08154230300452203002DE9F8430C
:10397000044600F114074FF02003EFF3118883F39E
:103980001288BFF36F8F384621F032FA054640B9EE
:103990002F4994222F4824F0DAFD94212C4824F05A
:1039A000CFFD384621F040FA2369A26813F0080FD2
:1039B00002D163689A4200D9636A9B1A002B38D0FF
:1039C000216A11F8223001EB820913F0030033D091
:1039D000022803D151F82260B60805D1D80718D4BF
:1039E0004846E36998470646A1683246204624F0D7
:1039F000DFFD3146A060204624F0E8FD384621F086
:103A000005FAD8B91249C222124824F0A0FDC221F9
:103A1000C4E743F0020301F82230E3694846A56891
:103A2000984729460246204624F0C2FD0025A060A2
:103A3000E4E71D46A946E1E70546FBE788F3118860
:103A4000BFF36F8F002D96D14846BDE8F88300BFC5
:103A500054230300452203002DE9F0410446C369C5
:103A600008460D46984704F1140706464FF0200318
:103A7000EFF3118883F31288BFF36F8F384621F07C
:103A8000B7F940B921499422214824F060FD9421DE
:103A90001E4824F055FD384621F0C6F92B786FF307
:103AA00000032B7023699B0705D5E268236A03EBAB
:103AB00082039D421BD12B786FF341032B70D4E915
:103AC0000231994204D13246204624F071FDA060B3
:103AD0003146204624F07AFD384621F097F958B94E
:103AE0000A49C2220A4824F032FDC221D0E72B68DD
:103AF00066F39F032B60EFE788F31188BFF36F8FA6
:103B000004F12C00BDE8F04121F0CABB54230300AE
:103B100045220300044608B54FF02002EFF311835D
:103B200082F31288BFF36F8F1CF01AF9204603F05E
:103B3000E3FC034824F036FA02F0B6FFFCE700BFCE
:103B4000E023030008B543090CD0012B1BD0124918
:103B5000124840F2472224F0FAFC40F247210E4876
:103B600024F0EEFC4FF0FF33C340DA07EFD50C4BE7
:103B700003EB8003D3F8002222F0E04242EA017115
:103B8000C3F8001208BD4FF6FF7300F01F00C340DA
:103B9000DB07DCD5034BEBE70924030045220300D8
:103BA000002584500028845070B54FF02003EFF3B7
:103BB000118683F31288BFF36F8F0124154B164DC6
:103BC000C3F8004502230321C5F8D0360020FFF7D3
:103BD000B9FF20460321FFF7B5FFC5F8044721468A
:103BE000C5F804492120C5F8004BFFF7ABFF21467B
:103BF0002020FFF7A7FF21460B20FFF7A3FF214658
:103C00000A20FFF79FFF86F31188BFF36F8F002014
:103C100070BD00BF0010005000400050052370B57B
:103C2000144D154E2C780134B4FBF3F303EB8303EE
:103C3000E41A2AF0F1FF114A137823B156F8243020
:103C4000C01A072814D94FF05023D3F8141141B1EA
:103C50000021C3F81411D3F814312C700CB90123CE
:103C600013702C782AF0D8FF46F82400012070BD8C
:103C70000020FCE7024900203432002001490020E6
:103C800048B1054B054A1B68B3FBF2F35843044B9C
:103C900043F00103184770478011002040420F0095
:103CA000A00A0300062807D10122044BC3F800250F
:103CB000BFF34F8F20BFFDE7704700BF00400050AB
:103CC000F0B583B000AF381D1EF02CFA334B98428C
:103CD00061D11BF0CDFF041E13DA38791EF028FAEB
:103CE0006D4688B06A462E4BC2E90534032342F87C
:103CF000103F00234FF4C2512A4801F0CFFBAD46DC
:103D000045E040F60703284D7C71AE68FB8074687F
:103D10007B6814B96FF05704E2E708212846234A6C
:103D2000A047041EDCDB3369002BF3D001220821FD
:103D300028469847041ED3DB01233D791C4AAB403B
:103D4000C2F80435FB7978790F2B0AD919491A483A
:103D500040F2E71224F0FBFB40F2E711154824F093
:103D6000EFFB9E001BF0C0FD48B91449124840F219
:103D70004E2224F0ECFB40F24E211048EFE7104BAE
:103D800045F00045C0F880509D51002CA8D1204638
:103D90000C37BD46F0BD6FF01204A1E70000AD0B7B
:103DA000AA24030064080300F8020300613E000037
:103DB00000700150402403004522030072240300D8
:103DC00080A1025070B5049EC6F30744F5B2C6F355
:103DD000072630461BF072FD0F2C0AD919491A48E4
:103DE00040F2E11224F0B3FB40F2E111154824F057
:103DF000A7FBA400E4B248B9144913484FF4177262
:103E000024F0A5FB4FF417711048F0E70022104B87
:103E1000C0F880201A5101230E4AAB40C2F8083581
:103E200030461BF043FF28461EF082F90A4B9842A9
:103E300007D00A490448742224F089FB74210748FA
:103E4000D5E770BD4024030045220300722403001F
:103E500080A00250007001500000AD0BD22403007E
:103E60002DE9F341144683681B6943B9324933484D
:103E7000CA2224F06CFBCA212F4824F061FB0022E7
:103E8000984705460028F1D1C4F3072840461BF0A7
:103E900043FDB4F1805F07464FEA146609D3284911
:103EA00040F2E712254824F052FB40F2E711244883
:103EB000E3E74046B6001BF017FD48B9214940F240
:103EC00063221E4824F043FB40F263211D48D4E7DF
:103ED0001D4BC0F880509D514046C4F307461BF06F
:103EE000EDFC0F2E08D9164940F2E112134824F0D8
:103EF0002EFB40F2E111DAE7144AB600E3B2F6B263
:103F000043F00043935140B90E494FF412720B48ED
:103F100024F01DFB4FF41271D8E7C0F880300C4B31
:103F200007F13202009340462B46019452001BF0E9
:103F3000B7FD02B0BDE8F081D224030045220300A2
:103F4000402403007224030080A1025080A002508C
:103F5000C53D00001DF0CABD2DE9F7430F460646DA
:103F60000821C06A24F0BEFC80463C68DFF8489017
:103F7000241A3C6004EA0905AC4203D8002003B0CF
:103F8000BDE8F08308236A462146304624F0FCFB56
:103F90000028F4D16946304624F0AEFC40B1BDF8AB
:103FA0000230BDF8042005EA090513441D443C60B5
:103FB000A4EB0804E0E700BF0000FFFF2DE9F04F8D
:103FC0008FB0044600AF00F1140840462BF0EAFE23
:103FD000A06A8368DB689847E06288B98E4B7B6390
:103FE00002236FF015054FF482518C483B6307F1B3
:103FF000300224F074FC28463C37BD46BDE8F08F03
:10400000A06A8368DB6898470368013B1F2B01D9CE
:10401000834BE4E7A06A216807F114022AF0B2FB9F
:1040200008B1804BDBE7A5892DB1BB69B5FBF3F285
:1040300003FB12550DB17C4BD1E7E389012B01D86D
:104040007A4BCCE7E36A3D6093F804A04FF0FF336E
:104050004FF0FF32404620F01DFF0821E06A24F0B7
:1040600041FCA9460646E3891FFA85FB5B451BD840
:10407000E3894B4500F048815B450BD13968082343
:1040800052462046891B24F0C4FB18B93946204605
:1040900024F088FB39462046FFF75EFF054608B34B
:1040A000404620F0ADFFA6E7A1892B04891B13FA37
:1040B00081F1524608232046396024F0AAFB78B1EA
:1040C0003946204624F06EFB09F1010908235246C7
:1040D000204639681FFA89F924F09BFB0028C7D0D5
:1040E0000135C0E73B684FEA13494FEA094963606D
:1040F000C4F80890D4E9011399420FD3082320464D
:104100003A1D24F041FB05460028C9D13B1D13F898
:10411000012B92454CD10135082DF8D16368394601
:104120001B0C1B0420463B6024F03CFB52462046FF
:10413000A389396824F06DFB051EB1DB636800F0CC
:1041400089804FF6FF7A06EB0309A3891FFA89F2EB
:104150009B1B9A42C7F8009044D3354B4FF48651CD
:104160007B6302232D483B6307F1300224F0B7FB49
:104170002046616824F072FB0546002890D16368F0
:104180002C4AA18913400B44A3EB46031A40A260BA
:10419000636004F12C0204F50B7142F8043F914274
:1041A000FBD1204624F096FC0546002D6ED077E723
:1041B0002046391D24F0A0FB626810B9921B626092
:1041C00098E73D89F988E06AC4F80890294424F00A
:1041D00089FB48449042A060F0D1002DEED06FF0F2
:1041E0001C058CE008234946204607F10C0224F008
:1041F000CBFA054600287FF453AF204607F10C01A7
:1042000024F07AFB30B1BB89534503D13B8A002BA4
:1042100000F0BB80B14498E726250300DC070300CB
:1042200048250300652503007D2503009125030033
:10423000032603000000FFFF524620465B1A24F0CD
:10424000E8FA051EFFF62CAF08D0E26AA3681268F0
:104250001344A360D4E901318B42EDD86168A3898E
:1042600001EB46029A42A0D1DFF85091A36801EA1F
:104270000902934299D0204624F0F0FA054600281E
:104280007FF40EAF636803EA0903A3604FF6FF797A
:104290004FF40072FF2104F1300026F0A4FD6368A2
:1042A000FB60204607F1200207F10C01D7F80CA0B3
:1042B00024F05AFB054600287FF4F2AE388C24F037
:1042C000F7FA3B8C4B450CD004EB80052B6B01338C
:1042D00007D1204607F1200124F00EFB08B1C5F8F4
:1042E00030A06368FA689342DBD1A2899BB2A2EB4B
:1042F000460293420BD1204624F0D7FB05464046A8
:1043000020F07EFE35B176E66FF02C05C8E640461B
:1043100020F076FE0123E84688B023746D46E289DA
:10432000A3894FF004092E462549EB61C5E9051222
:1043300046F8109F32464FF40351224824F0CFFA3A
:10434000C5466368AD46204A4FF403516A611A0CB2
:104350009BB2AA61EB6132461A48C5F8109024F06E
:10436000BEFAC546A368AD46184AC5F810906A6102
:104370001A0C9BB2AA61EB6132464FF4035111480B
:1043800024F0ADFA0025C54635E6114B07F13002A1
:104390007B6302234FF486513B630A4824F09FFA63
:1043A000636839461B0C20461B043B6024F0FAF975
:1043B0002046396824F052FAF6E600BF0000FFFFFD
:1043C000B4250300DC070300CB250300DD25030033
:1043D000EE2503002DE9F04F1E46037C0446884677
:1043E00091468DB07BB96F4B6FF00C050B93022398
:1043F0004FF482516C480AAA0A9324F070FA2846B6
:104400000DB0BDE8F08FC26A0821104624F06AFAA8
:1044100082463146104624F065FAA3890746A3EB8D
:104420008A03B342C0F0BB8056B9404624F040FA3C
:104430000C3054F82030039301334CD10025DEE7D3
:10444000B9F1000F00F0AB80404624F031FA0C3097
:1044500054F82030039301333DD1002F6CD104F187
:10446000140A4FF0FF334FF0FF32504620F012FD98
:104470000023DFF838B1E289934200F08D80D4E95F
:104480000121781882425AD3FF2306A8ADF81A10EA
:104490008DF81E30ADF81880ADF81C6024F016FAC7
:1044A0003346A1684A46204624F0A8FA314605461C
:1044B000E06A24F017FAA3680344A3603DB92046DC
:1044C00006A924F0D5FA002814BF05463546504603
:1044D00020F096FD93E7204604AA03A9DDF80CB06E
:1044E00024F042FA0546002889D1BDF81030434532
:1044F00006D06268039B9A42EDD1002E9ED0ACE7B5
:10450000204604A924F0F8F90028F2D0BDF81200E2
:10451000BDF814306EB1B3429FD14FEA1B4109047C
:10452000014433464A46204624F049F9051E94DCEE
:1045300065E7002B91D181E75744BFB28FE708218F
:10454000E06A019324F0CEF94FF6FF71ADF8181030
:104550000021ADF81C101118ADF81A10A18902EA5B
:104560000B020A44101A606006A824F0AFF906A9ED
:10457000204624F07DFA2046211D24F013F96268BC
:10458000204602EA0B02A26024F0A4FA05460028A5
:104590009DD1019B01336EE76FF01B0597E76FF02C
:1045A00015052CE712250300DC0703000000FFFFC0
:1045B0002DE9F0471F46037C88B004460E4690461E
:1045C000BDF8409073B9334B3348079302234FF43F
:1045D000825106AA069324F082F96FF00C0008B00D
:1045E000BDE8F0870821C06A24F07CF9A389A3EB19
:1045F0004003BB424AD3304624F05AF90C3054F8F9
:1046000020A0BAF1FF3FCDF804A01AD16FF001004D
:10461000E5E7204602AA01A924F0A6F90028DED188
:10462000BDF80830B34206D1204602A924F064F94F
:1046300008B10135ADB26268019B9A4202D1514680
:1046400008E000254D455146DDF804A0E1D9636836
:10465000534503D1BDF80830B342D7D1BDF80C3073
:10466000002BD3D0A945D1D8BDF80A00090CBB4214
:104670004FEA014128BF3B4601444246204624F010
:1046800083F80028ABD1BDF80C00A8E76FF0150047
:10469000A5E700BF12250300DC0703007FB570B952
:1046A000124B1348059302234FF4825104AA04933A
:1046B00024F0F3FA6FF0150007B05DF804FB83688F
:1046C00063B90C4B0A48059302234FF4825104AAA4
:1046D000049324F0E2FA6FF00400EDE71B681BB1CD
:1046E00007B05DF804EB18471846E5E731260300EC
:1046F000F40703004226030030B587B008B101B1CA
:104700006AB9134B1348059302234FF4825104AA4C
:10471000049324F0C2FA6FF0150007B030BD84682E
:104720000CB1E56865B90C4B0A48059302234FF4B8
:10473000825104AA049324F0B0FA6FF00400ECE76D
:1047400041F8040BE36807B0BDE83040184700BFEC
:1047500060260300F40703004226030030B5134629
:10476000044687B068B91A4B1A48059302234FF4E0
:10477000825104AA049324F090FA6FF0150007B058
:1047800030BD006860B9144B1248059302234FF402
:10479000825104AA049324F080FA6FF00100EEE73E
:1047A00082680AB1956865B90C4B0A4805930223E3
:1047B0004FF4825104AA049324F06FFA6FF00400BE
:1047C000DDE70A46AC46616807B0BDE830406047A7
:1047D0008C260300F40703009D26030042260300F5
:1047E00008B504220021024826F0FDFA002008BD89
:1047F0000000072030B50C460E4985B00291D0F874
:10480000AC110546CDE9003100F1E0014FF0FF3376
:1048100020461FF0BDFB50B9012384F86430D5F861
:10482000A83123B1204605B0BDE83040184705B097
:1048300030BD00BF918D020038B50C4611460546CB
:1048400024F0A8FA034638B92846044924F0A2FA0D
:1048500003460020236038BD0120FBE7F25003002F
:104860002DE9F04F012381460569466885B005F5BD
:104870005977D7E8EF2F002A03D1C7E8E13F002995
:10488000F7D140F0B880B368B26A043B2632B3EB8C
:10489000420F4FEA420126BFB3FBF1F3B3FA83F3B1
:1048A00000234FF0010428BFC3F12003013B9C40CB
:1048B00005F5E47800F099801022082170689A408C
:1048C00002EB4402043099400932C5F86002063117
:1048D00022F003020A44B16A01FA03FC510001EB21
:1048E0004C01C5F86412B16A994000EB4103C5F868
:1048F00058320333134423F00303C5F8543273686A
:10490000C5F85C42C5F850323C4B4046C5E9A96346
:10491000316800F01DFA044630BBD9F804A0D9F87C
:104920001090DAE9073409F5307B012B584608BFAF
:10493000103C20F0AFFF0023DAF8240030494FF498
:10494000806201EB802100935846234620F0B8FF97
:1049500009F52C702B4920F0FDFEDAF8140083686D
:104960005C681CB96FF05704002137E04B46264ABB
:10497000DAF81810A04704460028F5D1DAF8140038
:1049800083681B69002BEDD00122DAF818109847D4
:1049900004460028E8D11D4B2846C5F8A8311C4B19
:1049A000C5F8AC311B4B0393D5F810320293D5F800
:1049B0000832CDE90083D5F86832B26AD5F86013C1
:1049C00000F08EF904460028CED105F1E0001FF07A
:1049D00079FC0028C5F868030ADB0221384624F078
:1049E0000EFA204605B0BDE8F08F6FF00B04BBE770
:1049F0006FF01504B8E76FF07704F2E7E78D020077
:104A0000384B0020CD8D0200C18D0200DD4A000030
:104A10009F8E02002F8E02002DE9F84306464FF0CC
:104A200001090569D0F8048005F55977D7E8EF3F0B
:104A3000022B03D1C7E8E29F002AF7D149D12648CB
:104A400005F1400126F061F920B16FF00F04204616
:104A5000BDE8F883204805F1B00126F056F900289A
:104A6000F3D12846D5F8601324F04CFA044670BB05
:104A700071683669486983681B6933B3224689695E
:104A80009847044618BB06F530764946304620F074
:104A900077FF304605F5E47602F078FD3046D8F829
:104AA000001024F06CFA044688B90146E82230462A
:104AB00026F099F921464FF4E272284626F093F940
:104AC0002146384624F09BF9C1E76FF057040221D4
:104AD000F7E76FF07704BAE7F250030013B5044626
:104AE00040B100230122CDE90032074BD0E9091281
:104AF0001FF002FAA36E1B6823B1E06E02B0BDE89E
:104B00001040184702B010BDF250030013B5044620
:104B10000846216901F55971D1E8AF1F022910D16A
:104B200093B1A0B10121CDE900311346D0E90912BA
:104B30001FF0E2F9074B984208BF6FF00B0002B07C
:104B400010BD6FF00F00FAE76FF04C00F7E76FF061
:104B50000100F4E72EF8FFFF2DE9F74388461546DC
:104B6000066906F55973D3E8AF3F022B5FD113688E
:104B700023B96FF0150003B0BDE8F0831B78002B5C
:104B8000F7D0D6F86093B9F1000F33D106F5D87796
:104B90004FF0FF324FF0FF33384620F07BF93046BC
:104BA0002A6801A9FFF748FE019C1CB9384624F089
:104BB00024F9DEE705F10803A3666B6984F86490C5
:104BC000E366E46360B1384624F017F921463046C5
:104BD000236E2A68FFF70EFE0020C8F80040CAE7DF
:104BE0002022296804F1400026F06BF8384624F0B2
:104BF00004F9F1E730460F4924F0CCF804460028C8
:104C0000B7D005F1080383666B69C063C3660023F0
:104C100080F8643020222968403026F052F822467D
:104C20000121304600F03EF80028D5D0A1E76FF012
:104C30000F00A0E7F25003002DE9F04F05460E46A5
:104C400090460027D0F8B0A085B0AAF5AE742146F2
:104C5000304626F05AF8E0B9114BA4F1400B02930C
:104C6000DAF810303246CDE9008329464FF0FF33A1
:104C70005846AAF5CE791FF08BF960B9702301224E
:104C800003FB079383F86420DAF80C300BB1584625
:104C90009847703417B105B0BDE8F08F0127D6E70B
:104CA000018F02001FB5144690B18AB1012912D1BB
:104CB0000A4B00F1E0010293D0F8AC31403201938D
:104CC0004FF0FF33204600931FF062F904B010BD8F
:104CD0006FF01500FAE70020F8E700BF018F02002F
:104CE0002DE9F04387B00E46DDE90E811446DDE97B
:104CF00010251F4630B329B3DFF850C000F1E0099A
:104D0000002D08BF65469EB9CDE9034400F5CE7479
:104D1000204605962AF0D8FF03ABCDE900432A468A
:104D20003B46414648461FF0F3FA07B0BDE8F08322
:104D3000002241460E9248462A4607B0BDE8F0439D
:104D40001FF010BC6FF01500EFE700BF394C0000FA
:104D5000F0B50E46044689B000286FD00123024604
:104D6000C3630023D0F89810364F403040F80C7CD5
:104D700042F8301FCDE901334FF0FF330093C36D8C
:104D80002AF00BFB304A06AB92E8030083E80300ED
:104D900018461EF0D1FF0546D8B904F134001EF0C4
:104DA000ABFF0546A8B93946284805AA2AF0CDFA2E
:104DB000054670B9059B9A6872B10C33D4F894001B
:104DC000C4F8A03024F0CDF8C4F8D40030B96FF0A6
:104DD0000B05284609B0F0BD0346EFE7D4F8940070
:104DE00024F0BFF8C4F8D8000028F0D0D4F88C30F4
:104DF000D4F8A010C4F8A8300423C4F8AC30C4F828
:104E0000C4300223A362124BB4F89420D4F8D470B7
:104E1000C4F8B810C4F8D010D4F89010236204F18C
:104E2000A403A4F8B020C4F8A470C4F8C010A4F877
:104E3000C820C4F8BC00A661E362CAE76FF015059C
:104E4000C7E700BFC7260300F0090300D12603000F
:104E5000D80C030030B5002289B00F490F482BF061
:104E6000B0F8002200230024CDE906230E230C4DC8
:104E7000CDE903344FF400622846CDE90144094BE3
:104E8000094900941FF0FEFE084928462AF074FFE5
:104E9000204609B030BD00BFDD4F0000C822002011
:104EA000401E002085520000384F0020D926030004
:104EB0002DE9F047044607464FF00109DFF850801E
:104EC00014B93846BDE8F08794FAA4F5B5FA85F52B
:104ED00009FA05F32E0108EB05156FEA030A24EA27
:104EE00003042B7B002BEBD058F806301B694BB921
:104EF0004644736804222846196807EA0A0700F046
:104F0000A9FADDE7284698470028D9D1F0E700BF85
:104F1000740803002DE9F047DFF8AC902B4C804675
:104F2000A9EB04039F2B0F460AD929494FF48C7231
:104F3000284823F00CFB4FF48C71254823F000FB2C
:104F4000254824F060F8064640B300252846BDE811
:104F5000F087237B73B12368DB680BB12046984749
:104F600023681B6993B9636804222046196800F01E
:104F700071FA013610344C4514D9154940F2251206
:104F8000144823F0E4FA40F22511D6E7204698476A
:104F90000028E8D00AFA06F31D43EAE705464FF079
:104FA000010AE8E7D5D3B8F1000FCFD0002DCCD05F
:104FB0002846FFF77DFF0546002FF7D000214FF46C
:104FC000A47021F0D7FDF1E7840803007408030002
:104FD000E1260300452203005C320020014820F056
:104FE0005FB900BF7C170020014B53F820007047C9
:104FF000100D030008B5034608462BB1044A1360A0
:1050000000F04AFD002008BD6FF01500FBE700BF6F
:10501000EC0B002010B5044C237813B9034820F0A2
:105020003FF90123237010BD034900207C170020A5
:1050300010B50446064823F0E6FF3CB1054BD3E823
:10504000EF1F0139C3E8E21F002AF8D110BD00BFED
:10505000543200205832002000200146034BD3E890
:10506000EF0FC3E8E21F002AF9D170475432002045
:1050700070B5FFF7F1FF05460D4C0E4EB44215D941
:105080000D490E484FF4E87223F061FA4FF4E871CD
:10509000094823F055FA63685B792BB123685B6894
:1050A00013B12946204698471034E7E7F3D370BD83
:1050B0007408030084080300E1260300452203006E
:1050C00010B5044C04492046FEF732FB034B1C602C
:1050D00010BD00BF00160020FC0C03004C32002065
:1050E00008B50023074A4FF400411370064A0748E9
:1050F0001360074A1360FFF77DFFBDE80840FFF724
:10510000DFBF00BF0449002054320020039002009A
:10511000583200200146002200230148FEF736BB2A
:10512000001600200148FEF721BC00BF0016002039
:10513000024B01461868FEF78FBC00BF4C320020BE
:10514000014823F00DBB00BF0016002070B52C4BAA
:105150001878002853D0FFF7E5FF054620B3294B08
:10516000D3E8EF1F0139C3E8E21F002AF8D1264C2B
:10517000264EB44214D9264926484FF4E27223F051
:10518000E6F94FF4E271224823F0DAF963685B79BB
:1051900023B12368294620461B6898471034E8E766
:1051A000F4D32846FFF7C4FF1B4B1C4C1B68002B95
:1051B00019DD2AF0DEFE4FF47A72A0FB020302FB37
:1051C0000131C30B43EA4143D4E900209B1A40F26A
:1051D000E9324FEAD13161EB0001934271F10001F4
:1051E00001D3FFF745FFD4E9003213F57A7342F19A
:1051F0000002C4E90032BDE87040FFF7A1BF70BDF6
:10520000034900205832002074080300840803007A
:10521000E12603004522030054320020C022002072
:1052200070B5134D297809BB0120FFF773FE114CAF
:10523000114EB44213D91149114840F2871223F09C
:1052400086F940F287110D4823F07AF963685B799B
:105250001BB1236820469B6898471034E9E7F5D3D3
:10526000FFF774FF0028FBD101232B7070BD00BF36
:10527000044900207408030084080300E1260300A9
:10528000452203002DE9F0472C4B2D4FFB1A1B093B
:105290000AD12C4940F25B322B4823F058F940F2F6
:1052A0005B31284823F04CF900210846FFF732FE15
:1052B000044640B340F267684FF0000921F086FCD5
:1052C000224B186030B1224B1B68092B02DD2148AC
:1052D0001FF0E6FF0025DFF87CA044B12046FFF771
:1052E000E7FD044618B94FF0FF384FF0FF39FFF7DC
:1052F0002DFF064628B95DB942464B46504620F080
:1053000009F83546E9E74FF0FF384FF0FF39D5E7A8
:105310000A4D08E0F0D22B689B691BB10022284699
:10532000114698471035BD42F4D9064940F24F3234
:10533000054823F00CF940F24F31B2E7740803003E
:1053400084080300E12603004522030050320020B8
:10535000583200207C17002013B5264823F053FE56
:10536000254B1B7853B34FF02003EFF3118483F3E5
:105370001288BFF36F8F21481FF03AFD40B92049D2
:105380009422204823F0E3F894211D4823F0D8F814
:105390001A481FF049FDFFF7D9FE18481FF036FDE7
:1053A00030B91749C222174823F0D1F8C221ECE7DF
:1053B00084F31188BFF36F8F02B010BD124B1B68CE
:1053C000002BF9D050B9002200231048CDE900236A
:1053D0004FF40042002322F04DF8EDE70A28EBD10C
:1053E0000A482AF0FAFD0A4802B0BDE810401FF052
:1053F00057BF00BF58320020044900204832002027
:10540000542303004522030050320020C82200200C
:105410007C17002010B5064B04461B6898472146B0
:10542000A0600448FEF75EFABDE81040FFF794BFA5
:10543000EC0B002000160020044A054B9B1AB1EB30
:10544000D30F34BF52F83100002070472406030008
:10545000740803000E4B10B5C31A1B110133DBB2E5
:1054600040B90C490C48DE2223F071F8DE210948CE
:1054700023F066F84468237143689A7101224368F7
:10548000196043685A71BDE81040FFF7C3BD00BF03
:10549000740803003F270300452203002DE9F04F65
:1054A0008FB0C1F34A2804AF0D469146B8607B60C7
:1054B0000C0DB8F1000F65D000264FF0040B4FF033
:1054C0000A0A07F11403C7F80C80C7E907667E6271
:1054D0000193CDF808B0CDF800A007F11C033246C7
:1054E0004846F968FCF762FFB0F5006F03461CD32D
:1054F0006C468AB0D9F8041004AB2B481A46C3E9AD
:10550000050140F2FF71D9614FF400711984274BF6
:1055100042F8103F4FF4125133462548FFF7BEFFC3
:10552000A5462C37BD46BDE8F08FC0F30A0804F14C
:105530001700184420F0070080083B60FFF7EAFDE1
:1055400068F35325044628B33B6800F11001C7E90E
:10555000083607F11403F961CDE900A3CDF808B0CE
:105560004846144AF96807F11C03FCF71FFF00289E
:1055700010DA11491148562222F0E9FF56210E484F
:1055800022F0DEFF04F1170020F007008008FFF78B
:10559000C1FD044668F353252A4620467B68B96856
:1055A00023F063FDBDE700BF802703000400000176
:1055B000FC0703003F900200BF27030045220300C1
:1055C0002DE9F04F87B00446DDE9105ADDE9126994
:1055D0000F4693469846A6B1102133465246002006
:1055E000CDF80090CDF81490FCF7E2FC011E09DA2A
:1055F0001E4975221E4822F0AAFF75211B4822F081
:105600009FFF314605F1170008441A4B04F00704C8
:105610000BF0070BE40020F0070003EA412344EA03
:105620008B1480081C430391FFF774FD44EA055472
:10563000054688B186B1334652460399CDF80090AD
:105640001030FCF7B5FC002806DA08498F2208481C
:1056500022F07DFF8F21D1E7434622463946284676
:1056600007B0BDE8F04F23F000BD00BFBF27030027
:105670004522030000FE0F000EB403B503AB53F840
:10568000042B01460448019323F015FD02B05DF898
:1056900004EB03B0704700BFB9560000CA0605D43A
:1056A0008B064CBF02490349FFF7E6BF704700BFB6
:1056B0007B8903007A89030038B54B6805461A6870
:1056C000CB680C469A4202D1084623F0FBFC636883
:1056D000D3E8EF2F511CC3E8E01F0028F8D1A368DE
:1056E0009D5463681A68E3689A4208D905490648D8
:1056F0007A2222F02CFF7A21024822F021FF00209A
:1057000038BD00BFEB270300452203002DE9F04F11
:1057100089B09B46DDE915769DF848300446049330
:10572000DDE913930593049B0D460692002B00F0D0
:10573000878006F00803079323F07FFC06F0020A37
:10574000024600284BD020468C49FFF795FF804643
:10575000BAF1000F08D016F0440F42D12A46204675
:105760008749FFF789FF804406F001035BB1854B51
:10577000049A204653F82220834B8449002A08BF0C
:105780001A46FFF779FF06F00803002B55D0804B2F
:10579000049A204653F822207E49FFF76DFF054604
:1057A000069B2BB11A4620467B49FFF765FF05444F
:1057B000BBF1000F05D05A4620467849FFF75CFF41
:1057C00005444544B9F1000F4AD1002F60D1F307D9
:1057D00000F1CE8031462046FFF760FFC2E08046F0
:1057E000B6E76F4B18680028BDD06E4B4FF47A7E39
:1057F0001B684FF46162B5FBF3F5B5FBF0F300FBFA
:1058000013550EFB05F5B3FBF2FAB5FBF0FC3C219A
:1058100002FB1A3200FB1C55B2FBF1F30EFB05F53F
:10582000B5FBF0F501FB132220460092CDE901C53E
:1058300052465D49FFF720FF95E706F00805AFE700
:10584000BBF1010F07D1B9F1000F1CD1002F00F0FF
:10585000898000251CE0B9F1000FF7D0534813E010
:1058600053484B462246534922F0B6FA00280DDA37
:10587000514952484FF4027222F069FE4FF402710E
:105880004D4822F05DFE4A48049DEAE7002F65D0AE
:10589000DFF82C91DFF82CA1102F31462046B846B6
:1058A0004FF0000B28BF4FF01008FFF7F7FE5D45E3
:1058B00042DC059B514620461A78FFF7DDFE4FF08B
:1058C000010B1BF0070F03D149462046FFF7D4FE1A
:1058D000D84538D9059B5146204613F80B20FFF7D1
:1058E000CBFE0BF1010BBBF1100FEAD14FF0000B17
:1058F00020463549FFF7C0FE5A46059B20469A5C74
:10590000A2F120015F2928BF2E223049FFF7B4FE03
:105910000BF1010BBBF1100F1AD01BF0070F03D1D5
:1059200049462046FFF7A8FED8455A46E5D84946DD
:105930002046FFF7A1FEEBE749462046FFF79CFE15
:105940000BF1010BB3E720462149FFF795FEC8E7AD
:10595000059BB7EB0807434405939DD1049B002B9F
:105960007FF435AF204609B0BDE8F04F23F0AABB65
:105970002046054A0549FFF77FFE2BE71F28030055
:1059800023280300200D03001A2803001236030009
:10599000340D0300482803004E280300522803005A
:1059A00064320020603200202C280300DF900200C7
:1059B000B9560000B7900200EB2703004522030010
:1059C00046890300572803005D2803005F28030071
:1059D000448903002DE9F0410F884B6805460C46C9
:1059E00090468E6886B0C7F382175BB1134A9B1A44
:1059F00043F3CF0100291FDB2078C0F3C200FFF77B
:105A00001BFD0346214651F8102B6088C2F34A2241
:105A1000002A01EB020408BF0021C0F30B10CDE9FE
:105A20000308CDE901140022314628460097FFF70C
:105A30006DFE06B0BDE8F0810023E3E72406030015
:105A400042F20F7373B58B4228BF0B4605680446BC
:105A5000052168460D4A22F0B2FA064663682846D8
:105A60000B225B680A4923F019FB636832466946DA
:105A700028465B6823F012FB63681B2228465B689C
:105A8000044923F00BFB02B070BD00BF01680300A6
:105A90007E2803006228030000210123064A904269
:105AA00006D8064A01B901231360054B18607047F8
:105AB000012140085B00F2E740420F006032002005
:105AC00064320020014B0020196070477C320020B6
:105AD0000122024B02481A7023F0F4BA0649002052
